S01B00004E6574416E616C797A65725F464732335F5630312E73333705
S3150800000000080020D90500083B8D00083B8D000834
S31508000010679800083B8D00083B8D00083B8D00085B
S315080000203B8D00083B8D00083B8D00083B8D000882
S315080000303B8D00083B8D00083B8D00083B8D000872
S315080000403B8D00083B8D00083B8D00083B8D000862
S315080000503B8D00083B8D00083B8D00083B8D000852
S315080000603B8D00083B8D00083B8D0008A104000865
S31508000070910400083B8D00083B8D00083B8D000865
S315080000803B8D00083B8D00083B8D00083B8D000822
S315080000903B8D00083B8D0008F10C00083B8D0008DD
S315080000A03B8D00083B8D0008C9080008A108000818
S315080000B03B8D00083B8D000831760008ED8000086E
S315080000C0A39F00089F9F0008A1780008B99F000811
S315080000D0A79F0008BD800008AB9F00085181000853
S315080000E0898100083B8D00083B8D00083B8D000880
S315080000F03B8D00083B8D00083B8D00083B8D0008B2
S315080001003B8D00083B8D00083B8D00083B8D0008A1
S315080001103B8D00083B8D00083B8D00083B8D000891
S315080001203B8D00083B8D00083B8D00083B8D000881
S315080001303B8D00083B8D00083B8D00083B8D000871
S315080001403B8D00083B8D00083B8D00083B8D000861
S315080001503B8D00083B8D000815AB0008956000082C
S315080001603B8D00083B8D0008459F00084B9F000803
S3150800018070470000000000000000000000000000AA
S315080001900000000000000000000000000000000051
S315080001A00348044B834202D0034B03B118477047F8
S315080001B05C1400205C14002000000000064B074970
S315080001C0C91A891048BF0131491003D0044B0BB135
S315080001D001481847704700BF5C1400205C140020D3
S315080001E00000000010B5064C237843B9FFF7D8FF86
S315080001F0044B13B10448AFF300800123237010BDEC
S31508000200B01200200000000014E7000808B5054BEE
S315080002101BB105490548AFF30080BDE80840FFF764
S31508000220CDBF00BF00000000400A002014E7000808
S31508000230A3F5803A704700BF174B002B08BF134B36
S315080002409D46FFF7F5FF00218B460F461348144AD3
S31508000250121A09F0B3FE0E4B002B00D098470D4B2F
S31508000260002B00D098470020002104000D000D48FF
S31508000270002802D00C48AFF3008008F0BDF9200032
S31508000280290008F009FD08F071F900BF0000080010
S315080002900000000000000000000800200008002000
S315080002A0E0120020000000000000000000B583B046
S315080002B00B4B4FF080625A66012304220921022063
S315080002C001F064FF0023019302E0019B01330193CF
S315080002D0019A49F63F439A42F7D903B05DF804FB01
S315080002E00090005008B54E220249034B186809F0E1
S315080002F026F808BD80AB00084413002030B591B03D
S315080003000AF0B8F9134B1A685B68904271EB03035D
S3150800031001D211B030BD05460C460F4A13680133A9
S3150800032013600E4A4021684608F032F9021E0ADCBC
S315080003304FF47A700AF0B8F9401944F10004054BF5
S3150800034018605C60E5E76946054B186808F0F7FF32
S31508000350EEE700BF00080020580A0020D0AB0008CE
S31508000360441300200023062073B1704754B224B901
S31508000370013353B15DF8044B70470228F8D008687A
S315080003800A4908601046F3E710B4094A52F82310E0
S315080003900A7A022AEAD9032AEAD1441EE4B2012CCF
S315080003A0E6D90868014908601046E1E75C0A0020BA
S315080003B01C13002030B5A3B020252A4600211AA810
S315080003C009F0FCFD294B1A934FF4E1331C930223E1
S315080003D08DF87530264A1E9201248DF87D408DF8D9
S315080003E07E408DF87F408DF880300021159116915A
S315080003F01791189119914FF4801315931D4B199362
S31508000400109111911291139114911B4B10931B4B40
S3150800041014933C2201A809F0D1FD0DF1040E0DF14B
S31508000420540CBCE80F00AEE80F00DCF80030CEF83C
S3150800043000300DF1180E0DF1400CBCE80F00AEE8C7
S315080004400F00DCF80030CEF800300D4B0B930C95FE
S315080004508DF835408DF836400A4B0F930A4B1AAA89
S3150800046001A90A4802F0EAFB23B030BDB8B3000878
S31508000470A8B300083C00015B010010004400015BC2
S31508000480600A002030130020800A0020340B002068
S3150800049008B5024808F0D2FF08BD00BF340B00209B
S315080004A008B5024808F0CAFF08BD00BF340B002093
S315080004B010B58EB02422002105A809F07FFD334B24
S315080004C00593334B1B88ADF82430324B1B88ADF8A7
S315080004D02630314B1B680B93304B1B680C93304A04
S315080004E005A9304803F0A8F800B1FEE72E4B1C68B2
S315080004F02E4A21462B4B186803F054F900B1FEE743
S315080005004CB12146274B186809F03AFA01464FF6CE
S31508000510FF73984206D10021224B186808F0EDFEB9
S3150800052038B1FEE71F4B186803F080FA0028F2D0AE
S31508000530FEE71F491B4B186803F0BCFA00B1FEE73B
S315080005406FF0C00240F2FF33CDE900234FF0FF32CF
S315080005504FF0FF331349086809F05BFA00B1FEE76C
S31508000560144B1B88ADF81030ADF80C3004A90D4BB0
S31508000570186809F036FA00B1FEE703A9094B1868AE
S3150800058009F045FA00B1FEE70EB010BD2B8D000844
S3150800059012B4000810B4000818B4000814B400080F
S315080005A00D8D0008481300200C130020178D000835
S315080005B00700110000B2000808B50448044A121AD8
S315080005C09210044908F0BAFB08BD00BF8001000874
S315080005D0A0010008E012002008B5154B83F30A882D
S315080005E000F030F8FFF7E8FF124A0AE01068516891
S315080005F050F8230041F82300013391688B42F5D364
S315080006000C320D4B9A4201D20023F6E70B4A08E05A
S315080006101168002041F82300013351688B42F7D353
S315080006200832074B9A4201D20023F6E7FFF704FE89
S31508000630000000201CE7000828E7000828E7000853
S3150800064028E7000870B5134B134A9A60D3F8882038
S3150800065042F47002C3F88820104A4FF4804191662C
S315080006600F4D05F500544FF0FF3222660D4A6266BB
S315080006700222C3F8D020BFF34F8FBFF36F8F00203D
S3150800068002F09AFA4FF44036E660002008F04FFE72
S315080006902E6170BD00ED00E00000000800900050DB
S315080006A0008000447FFF7F01014B1860704700BF40
S315080006B05013002008B5064B1860064B1B6F03F055
S315080006C00703032B00D008BD09F0E0FDFBE700BFD8
S315080006D0581300200080005010B504460FE001238F
S315080006E0834024EA03040F2814D800EB40020E4B7B
S315080006F003EB82035A6812B19968C0B2904794B165
S31508000700234600201F28EAD813F0010FE7D101304D
S315080007105B08F7E7103800EB40039B00B033024A4A
S3150800072013440433E6E710BD500B002008B50D4806
S315080007300AF0BDF81A2002F02FFA28B91B2002F099
S315080007402BFA40B9002008BD1A2002F035FA1A2003
S3150800075008F0EDFDF2E71B2002F02EFA1B2008F048
S31508000760E6FDEFE7A4B300082DE9F04170B30C46A7
S31508000770174605460F292BD803784BB1022B20D0F4
S31508000780032B21D0012B01D0002303E00F2301E026
S3150800079040F2FF736A78D34013F0010F1AD00F4B5B
S315080007A0D3F81063C6B90AF075F880463A4621466A
S315080007B0284601F033FE40460AF067F83046BDE8A1
S315080007C0F08140F2FF33E5E73F23E3E72226F5E72A
S315080007D02126F3E72126F1E70226EFE700C00350BA
S315080007E040B310B5044603784BB1022B1DD0032B3A
S315080007F01ED0012B01D0002303E00F2301E040F2B5
S31508000800FF736278D34013F0010F15D00AF042F84F
S31508000810237862780121914003EB43031B01074AC1
S31508000820D1500AF032F8002010BD40F2FF33E8E755
S315080008303F23E6E7222070472120F5E740D0035002
S3150800084040B310B5044603784BB1022B1DD0032BD9
S315080008501ED0012B01D0002303E00F2301E040F254
S31508000860FF736278D34013F0010F15D00AF012F81F
S31508000870237862780121914003EB43031B01074A61
S31508000880D1500AF002F8002010BD40F2FF33E8E725
S315080008903F23E6E7222070472120F5E740E0035092
S315080008A008B5084BD3F82404D3F82024104000F0E8
S315080008B0553020F0502003F50053C3F82004FFF705
S315080008C00BFF08BD00C0035008B5084BD3F8240435
S315080008D0D3F82024104000F0AA3020F0A02003F519
S315080008E00053C3F82004FFF7F7FE08BD00C0035005
S315080008F0F0B585B00C4694469DF83410664A1278D1
S31508000900002A00F0BD800546BCF1070F00F2BA8048
S315080009100A9A002A00F0B8800B9A002A00F0B680DE
S315080009200E9AB2F5006F00F3B38001285BD05B4ADC
S3150800093002EB0C12127B002A00F0AC800022009217
S31508000940019202920392564A02EB4C1E002C4FD19A
S315080009504FEA4C1600209051CEF80400CEF8080055
S31508000960CEF80C009EF8020040F010008EF8020047
S315080009709EF8030040F030008EF8030021B9C1B29A
S3150800098041F003018EF8031000930E9B013B444A85
S315080009904FEA4C1002EB4C11165A63F30E16165218
S315080009A00A9B8B600B9B4B60CB789DF83C2062F3CF
S315080009B08303CB70012D36D0109B002B56D0374AB7
S315080009C04FEA0C1102EB0C1310985050119A5A600A
S315080009D000249C605D7372466946604601F07AFCA5
S315080009E0204605B0F0BD0C9A002AA0D12D48F8E79C
S315080009F02B4F4FEA4C1607EB4C120020B8515060AB
S31508000A009060D060907840F010009070D07840F0F8
S31508000A100300D0700029B7D107EB4C12C1B241F0E0
S31508000A203001D170B0E70E460A7B42F001020A7324
S31508000A30D2B242F002020A73CA68042161F39F0225
S31508000A40F26006F1100796E80F0087E80F00F269D2
S31508000A506FF0030161F39F02F2610C9B7361012C35
S31508000A60AAD10B9AB2610C9A7260A5E7002DA6D19D
S31508000A700B4B03EB4C139A786FF304129A709EE7AC
S31508000A800948AEE70748ACE70648AAE70548A8E7D5
S31508000A900448A6E70548A4E7B1120020B80D0020CF
S31508000AA0B80C0020018000F0028000F0078000F0FA
S31508000AB0134B1B78FBB110B50446F0B109F0EAFEFA
S31508000AC00023072B13D80F4A02EB0312127B0AB135
S31508000AD00133F6E723600B4A190102EB03130124DD
S31508000AE01C730024545009F0D0FE204602E009F099
S31508000AF0CCFE054810BD054870470548FAE700BF13
S31508000B00B1120020B80D0020048000F0028000F029
S31508000B10018000F038B509F0BDFE04460023072B16
S31508000B2006DC0C4A02EB0312127B12B90133F6E714
S31508000B30002222B1204609F0A8FE074838BD01F078
S31508000B4075FB0025054B1D70204609F09EFE2846BC
S31508000B50F4E700BFB80D0020058000F0B1120020B0
S31508000B600F4B1B78BBB110B50446072815D809F0FA
S31508000B7091FE0C4B03EB04131B7B1BB909F085FE96
S31508000B8009480BE0074B03EB041300241C7309F018
S31508000B907CFE204602E005487047054810BD00BFA8
S31508000BA0B1120020B80D0020068000F0028000F087
S31508000BB0018000F000B583B0134B1B680193002336
S31508000BC08DF8043009F066FE104B1B7833B90F4BCD
S31508000BD001221A7009F059FE002309E009F055FEB2
S31508000BE00B480EE00B4A02EB031200211173013386
S31508000BF0072BF7DD08238DF8073001A801F03AFB2B
S31508000C00002003B05DF804FB04B20008B11200200E
S31508000C10038000F0B80D002010B5104C2478BCB144
S31508000C20072817DC0E4C04EB0014247BA4B10C4CEB
S31508000C304FEA001E04EB001C44F80E30029BCCF869
S31508000C4004300024CCF8084001F044FB204610BDCF
S31508000C500448FCE70448FAE70448F8E7B11200201C
S31508000C60B80D0020028000F0018000F0078000F037
S31508000C7008B50A4B1B785BB107280BD8084B03EB62
S31508000C8000131B7B43B1002101F0E6FA002008BDE2
S31508000C900448FCE70448FAE70448F8E7B1120020DC
S31508000CA0B80D0020028000F0018000F0078000F0F7
S31508000CB008B50A4B1B785BB107280BD8084B03EB22
S31508000CC000131B7B43B1012101F0C6FA002008BDC1
S31508000CD00448FCE70448FAE70448F8E7B11200209C
S31508000CE0B80D0020028000F0018000F0078000F0B7
S31508000CF0F8B5194B1F6D5B6D1F4002D40125002402
S31508000D0002E0FEE701346D00072C24D83D42F9D0F5
S31508000D10124B1D652301124AD358002BF2D002EB61
S31508000D200416B1680131B16072682046984780F0B0
S31508000D300100C0B2737B012BE4D10028E2D0094B35
S31508000D4003EB44131A7B6FF341021A731A7F6FF38E
S31508000D5041021A77D6E7F8BD000004500020045077
S31508000D60B80D0020B80C002038B505460C46164BC1
S31508000D70D3F8283103F00703013B052B20D8DFE819
S31508000D8003F003131B0F0B1709F05AFA052305B1D5
S31508000D90286004B1236038BD09F052FA0623F6E745
S31508000DA009F098FA0723F2E709F08AFA0323EEE72F
S31508000DB009F086FA0423EAE709F07EFA0223E6E751
S31508000DC000231846E3E700BF0080005030B583B023
S31508000DD005460C4600230193154BD3F8203203F041
S31508000DE00703042B21D8DFE803F0030B11161B00B9
S31508000DF001230DB1019A2A6004B1236003B030BD06
S31508000E00002101A8FFF7B0FF1123F2E709F062FA03
S31508000E1001900723EDE709F029FD01900A23E8E789
S31508000E2009F0A2FA01900923E3E70023E1E700BFEE
S31508000E300080005038B505460C460F4BD3F85032A3
S31508000E4003F00303022B12D0032B08D0012B0AD080
S31508000E500023184605B1286004B1236038BD09F09F
S31508000E6008FD0B23F6E709F001FD0A23F2E709F06E
S31508000E707BFA0923EEE700BF0080005038B5054627
S31508000E800C460C4BD3F8903203F00303012B05D024
S31508000E90022B07D109F01EFA072305E009F00CFA20
S31508000EA0022301E00023184605B1286004B1236037
S31508000EB038BD00BF00800050024B4FF480321A67DD
S31508000EC0704700BF00900050204B984236D009D991
S31508000ED01F4B984236D01F4B984222D11E4BD3F84F
S31508000EE0D0007047A3F5B703A3F55863984221D0FD
S31508000EF006D91A4B984212D1174BD3F8BC00704743
S31508000F00174B984202D0174B984203D1124BD3F88D
S31508000F10A0007047144B9842F8D000207047002074
S31508000F207047124B984203D10B4BD3F8C800704751
S31508000F3000207047084BD3F8B8007047064BD3F823
S31508000F40C0007047044BD3F8CC007047C0EA2101B3
S31508000F500048E801005A62020080E00F0024F4000D
S31508000F6080841E0000093D0040420F0080BA8C01B3
S31508000F7038B505460C46104BD3F8000100F00300BF
S31508000F80032815D8DFE800F002080C10012305B184
S31508000F90286004B1236038BD09F092F90323F6E707
S31508000FA009F0E2F90923F2E709F090F90823EEE7D8
S31508000FB000231846EBE700BF0080005038B5054609
S31508000FC00C46174BD3F8200100F00700062823D853
S31508000FD0DFE800F0040A0E16121A1E00012305B1F6
S31508000FE0286004B1236038BD09F02AF90523F6E71D
S31508000FF009F066F90323F2E709F06CF90723EEE72F
S3150800100009F05AF90223EAE709F01AF90623E6E78E
S3150800101009F056F90423E2E700231846DFE700BF84
S315080010200080005038B505460C46104BD3F84001F1
S3150800103000F00300032815D8DFE800F002080C10BA
S31508001040012305B1286004B1236038BD09F00EFC00
S315080010500A23F6E709F088F90923F2E709F009FCFB
S315080010600B23EEE700231846EBE700BF008000508D
S3150800107030B583B005460C4600230193144BD3F8CC
S31508001080603203F00703013B032B1FD8DFE803F0A8
S31508001090020E1914002101A8FFF790FF0F230DB1C6
S315080010A0019A2A6004B1236003B030BD002101A86B
S315080010B0FFF7B8FF1023F2E709F00CF901900723B0
S315080010C0EDE709F0F9F801900223E8E70023E6E7DF
S315080010D00080005030B583B005460C4600230193C6
S315080010E00C4BD3F8703203F00303012B09D0022B03
S315080010F00DD114230DB1019A2A6004B1236003B0FF
S3150800110030BD002101A8FFF78DFF1023F2E7002369
S31508001110F0E700BF0080005038B505460C46104B76
S31508001120D3F8600100F00300032815D8DFE800F0C3
S3150800113002080C10012305B1286004B1236038BDEC
S3150800114009F094FB0A23F6E709F00EF90923F2E7FA
S3150800115009F08FFB0B23EEE700231846EBE700BFE9
S3150800116000800050324B984252D029D8314B9842D1
S3150800117048D009D9304B984247D0304B98421DD1B8
S315080011802F4BD3F8800070472E4B984237D005D99D
S315080011902D4B984210D12A4B186F70472B4B98420B
S315080011A002D02B4B984202D1254B986D7047294B9C
S315080011B09842F9D0002070470020704700207047F9
S315080011C0254B98422CD00CD9244B98422CD003F5A9
S315080011D0740303F5105398420FD1194BD3F89800AE
S315080011E070471F4B984217D01E4B984203D1144B99
S315080011F0D3F88C0070470020704700207047104BCA
S31508001200586E70470E4B586F70470D4B986F704766
S315080012100B4BD3F884007047094BD3F88800704706
S31508001220074BD3F890007047054BD3F894007047E6
S315080012300048E8010024F400C0EA210180BA8C01C4
S315080012400080E00FC0CF6A00405DC60080841E00A3
S3150800125000093D0040420F00007E56030090D0036F
S3150800126080D54302006CDC0270B582B006460D4696
S3150800127000230193104BD3F8804104F00304022C99
S3150800128016D0032C0FD0012C07D000240EB1019BD9
S31508001290336005B12C6002B070BD002101A8FFF7CC
S315080012A08DFE0F24F2E709F015F801900724EDE703
S315080012B009F002F80190E9E70080005038B50546C4
S315080012C00C46104BD3F8400200F00300032815D84B
S315080012D0DFE800F002080C10012305B1286004B10C
S315080012E0236038BD09F0C2FA0A23F6E709F03CF88C
S315080012F00923F2E709F0BDFA0B23EEE700231846A7
S31508001300EBE700BF0080005038B505460C46134B86
S31508001310D3F8000200F0070004281BD8DFE800F025
S3150800132003090D111500012305B1286004B12360D6
S3150800133038BD09F09BFA0A23F6E709F015F80923E0
S31508001340F2E709F096FA0B23EEE708F09FFF800A0A
S315080013500E23E9E700231846E6E700BF00800050A1
S3150800136038B505460C46134BD3F8080200F00700BB
S3150800137004281BD8DFE800F003090D111500012326
S3150800138005B1286004B1236038BD09F06FFA0A2355
S31508001390F6E708F0E9FF0923F2E709F06AFA0B23F2
S315080013A0EEE708F073FF800A0E23E9E700231846E4
S315080013B0E6E700BF00800050B0F5207F20D00ED8A9
S315080013C0B0F5007F16D020D810B1B0F5C07F04D193
S315080013D00F4B186FC0F3033018E0002016E0B0F585
S315080013E0607F05D10A4BD3F88000C0F301100DE0E9
S315080013F000200BE0064BD3F89000C0F3046005E02C
S31508001400034B186FC0F3802000E0002001307047BE
S315080014100080005038B505460C46174B4FF480320D
S315080014209A660020FFF7C8FF05FB00F0134BDA6940
S3150800143002F4803241F67131D9635B6823F44013B4
S315080014406CB90F49884207D800210B430B494B60FA
S315080014500AB10022CA6338BD4FF48011F5E7002CA3
S3150800146007DD0849884201D80021EEE74FF48011CC
S31508001470EBE74FF44011E8E70090005000000350F6
S31508001480005A6202002D3101430905D0012B0DD007
S31508001490022B0DD0002200E0002200F01F0049B107
S315080014A002F580520123834013607047034AF4E72C
S315080014B0034AF2E702F50052F4E700BF64800050E1
S315080014C06880005008B5802007F0AFFC034B9842AF
S315080014D003D8034B4FF480321A6708BD005A6202DC
S315080014E000A0005000B583B000230193B0F5807FBB
S315080014F000F0AF8011D9B0F5086F00F0B48044D978
S31508001500B0F5286F00F0C38069D9B0F5306F79D18E
S3150800151001A90020FFF7B2FC75E0802873D82428BB
S3150800152071D324385C286ED8DFE800F04C4C4C4C5C
S315080015304C6D446D98546D6D6D6D6D6D6D6D6D6D05
S315080015406D986D6D6D39A76D6D6D6D6D6D6D6D6D8C
S315080015506D6D6D6DAC4C6D6D6D676D6D5FB1A27720
S31508001560776D6D6D6D6D6D6D6D6D6D6D6D6D6D6D93
S315080015706D6D6D6D6D6D6D6D6D6D6D6D6D6D6D6D8D
S315080015806D6D6D6D6D6D6D6D7C00B0F5C06F65D060
S315080015900AD9B0F5E06F70D0B0F5F06F17D101A990
S315080015A00020FFF7B9FD2EE0B0F5A06F60D0B0F5CA
S315080015B0B06F04D101A90020FFF756FE23E0B0F56D
S315080015C0806F20D101A90020FFF7F8FC1BE0B0F5D9
S315080015D0D06F18D101A90020FFF796FE13E0B0F5E9
S315080015E0186F4FD0B0F5206F04D101A90020FFF77E
S315080015F03FFD08E0B0F5106F05D101A90020FFF7FF
S31508001600AFFE00E003D2019803B05DF804FBB0F525
S31508001610386F23D0B0F5406FF5D101A90020FFF748
S31508001620A3FBF0E71C4B1B6F03F00703013B032BDF
S31508001630E9D8DFE803F00B02050805230193E2E782
S3150800164003230193DFE708230193DCE702230193D1
S31508001650D9E701A9002007F0C3FBD4E701A90020B8
S31508001660FFF7E0FCCFE701A90020FFF781FCCAE7F6
S3150800167001A90020FFF7AAFBC5E701A90020FFF78B
S315080016801DFEC0E701A90020FFF7D4FBBBE701A9AF
S315080016900020FFF71FFDB6E700800050094B596E82
S315080016A003F580534FF480325A66074A536A23F08B
S315080016B00103536211F4803F03D1044B4FF4803287
S315080016C05A6670470080005000C0075000A00050BE
S315080016D038B504468020FFF705FF032800F0B580DB
S315080016E0604B4FF480125A665F4B45F60E02C3F8FC
S315080016F0802003F580524FF0A061916203F50053F4
S315080017004FF480329A62584B9B6D13F4803FFAD19E
S31508001710554B9B6D13F0804FFAD1226863681B0501
S3150800172043EA0263227B43EA0243627B43EA0233CB
S31508001730A27B43EA8213E27B13434B4D2B61AB69D1
S3150800174003F00043226943EA8263626943EA02635B
S31508001750227E43EA0243627E43EA0223A27E1343C1
S31508001760AB614FF400624FF44061404807F01FFB3D
S315080017702B6A23F00F03E269002A46D111460B4370
S31508001780E17E43EA81031A43374B1A62E369002B69
S315080017903DD1354A916A364B0B4094F8201043EAFE
S315080017A0411394F8211043EA011394F8241043EAEC
S315080017B0C10343F4803393622B4B9A6D2D4B9343AD
S315080017C0FAD1294A02F580514FF080738B6213696A
S315080017D023F47003A06843EA005313614FF00043F3
S315080017E08B6194F822301BB9234B4FF080729A62B2
S315080017F094F8233013BB204B4FF480329A621A4B6D
S315080018009B6D13F0804FFAD118E00821B7E7022B39
S315080018101CD0154A916A164B0B4094F8201043EADF
S31508001820411394F8221043EA016394F8241043EA1A
S31508001830C10394F8231043EA0143936294F82530D0
S315080018401BB1094B0D4AC3F8802038BD064B002250
S315080018501A619A614FF408524FF47F41084807F01D
S31508001860A6FAD6E7009000500040005A3840005AC1
S31508001870C7FFFEFE030001000060005AF1A7FFFF44
S315080018803440005A014B93F9000070474614002073
S31508001890014B1880704700BF3C140020B0F5207F2C
S315080018A048D02DD8B0F5007F39D04CD810B1B0F556
S315080018B0C07F24D110B54C1E07F0B0FA07F09BFC88
S315080018C0FFF7FAFA204A136F23F4704343EA043306
S315080018D0136708F0DBFC1D4BD3F8843013F0100FA8
S315080018E0F9D11A4BD3F88410C1F38111C1F1020161
S315080018F007F076FC00F040F8FFF7E4FD10BD7047EE
S31508001900B0F5607F0AD101390F4AD2F8803023F04A
S31508001910300343EA0113C2F8803070477047013933
S31508001920094AD2F8903023F0F85343EA0163C2F823
S31508001930903070470139044A136F23F4806343EAF1
S31508001940812313677047704700800050004000509D
S3150800195008B50121022000F0F3F84FF42070FFF7D4
S315080019602BFD044B187007F059FA07F044FCFFF7F3
S31508001970A3FA08BDB212002008B54FF4C07007F0EC
S3150800198054FA054B984205D902214FF42070FFF707
S3150800199085FF08BD0121F8E780F0FA0210B5044674
S315080019A008F074FC0F4BD3F8843013F0100FF9D1FC
S315080019B00C4BD3F88410C1F38111C1F1020107F071
S315080019C00FFC0121002000F001F924B1FFF7D4FF34
S315080019D0FFF778FD10BD044B19784FF42070FFF718
S315080019E05DFFF5E700400050B212002070B50446CE
S315080019F0FFF7B8FB0546364B4FF4C0225A6603F587
S31508001A0098335B68012B29D08020FFF76BFD0528EA
S31508001A102DD025F040752F4B9C422FD02E4B9C4243
S31508001A202FD008F00DFC064684422DD82B4BDB68D8
S31508001A3013F0060FFAD1294B9A689D609B686B4094
S31508001A4013F4F81F25D0254B9A6034468020FFF7FB
S31508001A5049FD052821D0B44235D970BD204B012255
S31508001A605A60204B5B6813F0020FFAD1CCE707F0F7
S31508001A70D5F907F0C0FBFFF71FFACAE745F000756E
S31508001A80CFE745F08075CCE70121204600F09EF8A7
S31508001A90CCE72046FEF708FED8E708F0F7FB124B1E
S31508001AA0D3F8843013F0100FF9D10F4BD3F8841004
S31508001AB0C1F38111C1F1020107F092FBFFF75CFF48
S31508001AC0FFF700FDC7E70121002000F07FF8C4E713
S31508001AD00090005040420F0080841E000000015014
S31508001AE000E0015000C001500040005010B5044607
S31508001AF0FFF7EAF90A4B4FF400225A6620F04070C5
S31508001B00084A944206D0084A944206D04FF0B44296
S31508001B10906010BD40F00070F8E740F08070F5E77F
S31508001B200090005040420F0080841E00034AD36E86
S31508001B3023F0300301790B43D36670470040005009
S31508001B40F8B50446204BD3F8843013F0100FF9D1BA
S31508001B501D4BD3F88430C3F381139C422DD008F073
S31508001B6075FB0646012C11D008F08BFE0546164F6C
S31508001B7007F500534FF000725A66204607F042FBFD
S31508001B80621E4FF4806393403B6706E0012107F02D
S31508001B9027FBE9E70C4BD3F884300B4B5B6E13F04D
S31508001BA0007F05D1084BD3F8843013F0200FF1D00D
S31508001BB0284608F061FE022C00D0F8BD0021304608
S31508001BC007F00EFBF9E700BF0040005010B50C46C1
S31508001BD0034650B1094A127812B1094A934208D904
S31508001BE021460220FFF7ACFF10BD08F02FFB034685
S31508001BF0F0E721460120FFF7A3FFF5E7380E00209E
S31508001C00005A620238B52F4B4FF000425A6603F568
S31508001C100B235C6C04F001044AF6CD321A64E8B969
S31508001C20294B5B6B13F00103FAD1274A556815F067
S31508001C30010539D002F50052012151601A462249A0
S31508001C40096B11F0010F04D120498A4201D80132EB
S31508001C50F5E71E498A422FD81D4625E000231A4A71
S31508001C60126B12F0080F04D0184A934201D80133B8
S31508001C70F5E7164A934221D8134B03F50052202163
S31508001C80916203F5805301225A60002300E0013374
S31508001C900D4A926A12F0200F02D10C4A9342F6D9E5
S31508001CA00A4A93420CD8002514B1074B084A1A640D
S31508001CB001F0D4FE284638BD0725F5E70725F3E7E2
S31508001CC00725F1E700900050004009503F420F00F9
S31508001CD03254FFFF10B51A4B4FF000425A6603F50F
S31508001CE00B235C6C04F001044AF6CD321A6443787F
S31508001CF05B0043F00103134AD363134B5B6B13F08A
S31508001D000B0FFAD1104A536823F4F873817843EA23
S31508001D1001135360C178437943EA0123936001793B
S31508001D20837943EA012313610078FFF76BFF14B147
S31508001D30054B064A1A6401F091FE012010BD00BF4A
S31508001D400090005000400050004009503254FFFFF8
S31508001D5010B50F2800D90F20124B5C6E03F580537F
S31508001D604FF000425A6603F50B235A6C02F0010243
S31508001D704AF6CD3119640C4B5B6B13F0800FFAD120
S31508001D8009490B6A23F00F0303430B620AB1074A9A
S31508001D900A64002C03DB064B4FF000425A6601F03A
S31508001DA05DFE10BD00800050004009503254FFFF10
S31508001DB000A0005010B5134B5C6E03F580534FF02E
S31508001DC000425A6603F50B235A6C02F001024AF6E2
S31508001DD0CD3119640C4B5B6B13F0800FFAD10A49AD
S31508001DE00B6A23F4F85343EA00230B620AB1074A45
S31508001DF00A64002C03DB064B4FF000425A6601F0DA
S31508001E002DFE10BD00800050004009503254FFFFDF
S31508001E1000A00050084B98420AD0084B984209D0B7
S31508001E2003F58043984201D0002070475820704738
S31508001E3056207047572070470000015B00000A5083
S31508001E4010B5044607F0DFF9042307E004F58053CC
S31508001E5004221A6104F500531A610B46591E002B19
S31508001E60F4D1202323610023E360A36041F2020238
S31508001E706261A3614FF4A0226262E3612362A362F6
S31508001E80E3626363236504F500520249D164236360
S31508001E9010BD00BFFF3F0D03F8B5044615460846BA
S31508001EA0E1B1A36813F0010F34D06668B0FBF5F012
S31508001EB0451E16F001062BD0636D13F0280FFBD1D3
S31508001EC0A36C13F0030F0FD1A36C13F0010F1BD1F2
S31508001ED0A36C13F0020F19D1002706E02046FFF77E
S31508001EE099FF06F0A2FFDCE70527204607F08BF9E5
S31508001EF0236923F07F4343EA0563236146B33946E2
S31508001F00204607F09FF923E00927EEE70627ECE7C6
S31508001F100027EDE76368A36803F0E003402B1DD0B4
S31508001F2017D9602B1ED0802B12D10123400105FB47
S31508001F3003F3B0FBF3F020380B4A02EAC002636DE4
S31508001F4013F0010FFBD12263636D13F0010FFBD170
S31508001F50F8BD2BB1202BFBD10823E7E70623E5E7DD
S31508001F601023E3E70423E1E7F8FF7F0070B5044692
S31508001F700D461646436823B1636DC3F30B03002B66
S31508001F80FAD12046FFF75CFF636923F44C5323F02C
S31508001F900F036A7B1343EA8913432A8A134363614F
S31508001FA0A36823F0804323F0E2032A7B13432A7EA7
S31508001FB013436A691343A360AB681BB9A36843F06C
S31508001FC00043A360EA69002A70D0A168694B0B40F8
S31508001FD0117A43EA8153917A43EA4143918801F49D
S31508001FE0C0410B43517843EA8103517B43EAC1035D
S31508001FF0917B43EA0113927843EA8223A360E2685D
S315080020005D4B1340EA6911690B4351690B4391799A
S3150800201043EA8123D27943EA4223E360EB691B78DA
S31508002020012B01D0032B03D1E36843F00403E360DB
S31508002030EB691B78023BDBB2012B51D94F4B9C4213
S315080020406BD04F4B9C426AD003F580439C4262D0CA
S315080020504FF0FF3303F593735B0103F1A04303F5D8
S31508002060703302225A60EB695A7A04F580539A62F1
S31508002070EB695B7A1BB1E36843F40063E360EB69E1
S31508002080DB7A63B1E36843F40043E3603B4B9C426D
S3150800209047D03B4B9C424BD03A4B9C424FD0636A4D
S315080020A023F00303EA69D27B134363623EB196F8D1
S315080020B02030002B4AD004F5805301221A6204F519
S315080020C0805301225A60AA68002A4ED129782046F0
S315080020D007F0B8F8A36CDB4313F4405FFAD170BD80
S315080020E0264B9C4213D0264B9C4212D003F58043C4
S315080020F09C420AD04FF0FF33A6335B0103F1A0439D
S3150800210003F5703302225A60ADE70223F4E7002391
S31508002110F2E70123F0E702239CE700239AE701236D
S3150800212098E7EB691B7B03F00F03174A5366B0E782
S31508002130EB691B7B03F00F03134A1367ACE7EB69E4
S315080021401B7B03F00F03104AD367A8E7E36923F064
S31508002150090396F82220134396F82120134343F0E7
S31508002160010304F58052D361A9E769682046FFF7A1
S3150800217093FEABE7E39BBDFFFFF9F0870000015B29
S3150800218000000A5000400A5000900350F8B5044673
S315080021900D461E4617463AB1FBB101228A4000EBAE
S315080021A0400109011D4B5A50072D1ED8A90004EB02
S315080021B044031B0107FA01F20F2000FA01F118483F
S315080021C0184407F076F83FB9FEB10122AA4004EB9D
S315080021D044042401114B1A51F8BD01228A4000EB30
S315080021E0400109010F4B5A50DEE7A5F108039B0091
S315080021F004EB440C4FEA0C1C07FA03F20F21994032
S315080022000948604407F055F8DDE70122AA4004EBC7
S3150800221044042401034B1A51DEE700BF40D00350A3
S3150800222034C0035040E003503CC0035010B516209C
S3150800223007F079F8074B00245C65FF229A625C6018
S3150800224021462020FFF720F921462120FFF71CF917
S3150800225010BD00BF0000045029B9044A012303FA3F
S3150800226000F010607047024AF8E700BF40100450BB
S315080022704020045010B5044601212020FFF704F938
S3150800228001212120FFF700F9114B01225A6022781B
S3150800229012069A606178A27842EA01429A61FF22A0
S315080022A09A6200229A631A644FF000425A6503F54F
S315080022B000534FF0FF321A65162000F07DFCE178D6
S315080022C0162007F038F8162007F031F810BD00BFC1
S315080022D00000045070B50C46C3B201259D40214943
S315080022E001F500531D65830003F1A04303F5882318
S315080022F026685E60637B00EB400C01EB0C1CCCF897
S31508002300603094F80AE0E37A1B0543EA0E4394F832
S315080023100CE043EA4E53CCF85C3022F00302CCF8CA
S31508002320702008F0B7FA104B5D65237A0BB10E4B97
S315080023301D64637A0BB10C4B9D632379A27942EA3B
S315080023400342084B03F500518A6194F805C0E27907
S3150800235042EA0C4203F58054A2614D639D6408F07D
S3150800236094FA70BD000004500010045010B5C0B2B5
S315080023700124844008F08EFA044B5A6D22EA0402BE
S315080023805A659C6208F081FA10BD00BF000004502F
S3150800239010B5C0B20124844008F07CFA084BDB6A09
S315080023A0234205D1064B5B6B9C4306D0002400E014
S315080023B0002408F06AFA204610BD0124F9E700BF98
S315080023C00000045070B50446C3B201259D4008F0CC
S315080023D061FA084B5E6B04EB440403EB04135C6E72
S315080023E008F053FA354203D1C4F30A10013070BD20
S315080023F00020FCE700000450074B4FF480325A6671
S3150800240003F5E6239B69C3F38512827003F03F0246
S3150800241042701B0B037070470090005070B504465D
S315080024200D461646037841782C4AD2F810236A1EC0
S315080024300E2A09D8DFE802F00A0A0A0A0A0A0A0A6C
S315080024400A0A0A0A0A0A0A00002200E02A463DB1D8
S3150800245016B30120884003EB43031B012049C850EB
S315080024606178072920D82378890003EB43031B01E9
S315080024708A400F2000FA01F11A48184406F027FF8F
S315080024804DB906B3237862780121914003EB4303E3
S315080024901B01134AD15070BD0120884003EB43034A
S315080024A01B011149C850DBE723780839890003EB7B
S315080024B043031B018A400F2000FA01F10B48184418
S315080024C006F005FFDCE7237862780121914003EBEB
S315080024D043031B01044AD150DDE700BF00C0035087
S315080024E040D0035034C0035040E003503CC0035072
S315080024F0074B9B6813F0020FFAD1054B5B6813F084
S31508002500020FF5D1024BDB69002BF1D1704700BFF2
S3150800251000800A50074B5B68064B5B6813F0010F97
S3150800252003D0044BDB69002BF6D1024B02221A6159
S31508002530704700BF00800A5008B5FFF7D9FF034B64
S3150800254003F5805101224A601A6108BD00800A50CD
S3150800255008B5054B5B68012B00D008BDFFF7DAFF0D
S31508002560024B01225A60F8E700800A5000A00A5080
S3150800257010B50446FFF7BCFF084B5B68012B05D076
S31508002580237843B10122054BDA6010BDFFF7E0FF5F
S31508002590FFF7AEFFF4E70022F5E700BF00800A5018
S315080025A038B505460C4607F04DFFDDB92378D3B19B
S315080025B00123626812B1127843EAC2036278A2B1B3
S315080025C002221343A26812B1127843EA8213E27810
S315080025D06AB104221343226912B1127843EA4223EC
S315080025E0044A936438BD0023E3E70022E9E70022A2
S315080025F0F0E700BF00800A5038B5044607F035FA00
S31508002600864658B9064DA446BCE80F000FC5BCE877
S315080026100F000FC59CE8030085E80300704638BD27
S315080026203C0E002047F6FF739A427DD009297DD8D3
S3150800263070B5414B13F801E0BEF1030F78D83F4B54
S3150800264003EBCE0191F802C0604613F83E30012B29
S3150800265026D03A4B03EBCE035C68002C6AD0B4F95B
S315080026600030934204DBB4F90230934200DC13468F
S31508002670A288FF2A2CD000212826C8221D46D21A55
S3150800268092FBF6F20A4412B22C4B03EBCE0393F8F4
S3150800269001E0964501DD002A2FDA0EF1FF322CE023
S315080026A0CB78A3EB0C0300249C420ED2191BA3EB98
S315080026B05101224800EBCE00406830F911009042E3
S315080026C001DC0C46F0E74B1EEEE76344D8B230E077
S315080026D0B4F90620B4F908600121CFE75C3318493C
S315080026E0A1FB03139B09013212B2164696450FDD6C
S315080026F004EBC201898899420AD304EBC2018B68AC
S31508002700B1F9061001FB0533002BE7DA0023E5E7EC
S31508002710013E04EBC604A2889A4200D31A469445A1
S3150800272000D81046C0B204E0FF207047002070476A
S31508002730002070BD0020FCE708B200083C0E00200F
S31508002740D34D621009296FD83A4B5B5C032B6DD8C1
S31508002750394911F8331001292AD010B4364901EB4A
S31508002760C3014C68002C63D0201D334901EBC3011B
S315080027708978914234D2304901EBC301C978914234
S3150800278033D92D4901EBC30393F801C00CF1FF3C83
S315080027905FFA8CFCA388FF2B2AD00023634529D235
S315080027A0591C30F83110914224D30133DBB2F5E7D6
S315080027B0214901EBC301C978914200D20A461E4855
S315080027C000EBC3008078121AD2B2091A8A4200DDD9
S315080027D00022194901EBC3035B6833F912007047FD
S315080027E0B4F902005DF8044B7047B4F90000F9E744
S315080027F00123D3E74FF47A7101FB02F200EBC30021
S315080028004368D31AB0F9022002EBD27103EB6103D5
S3150800281093FBF2F3B4F900009842E3DBB4F9020043
S315080028209842DFDC18B2DDE7044870470348704772
S315080028300248D7E708B200083C0E00200080FFFFD8
S3150800284008B50348FFF7D8FE012007F012F908BDBE
S3150800285014B2000830B583B00446694607F007F994
S3150800286000B1FEE79DF80030134A1278934217D05C
S315080028700C2B06D164251049204607F0E5F828B147
S31508002880FEE7204601F000F90546F4E7294620460A
S3150800289007F0C1F800B1FEE7074B1B780A2B01D0F9
S315080028A003B030BD6946204607F0E1F89DF80020E0
S315080028B0014B1A70F4E700BF5C13002008B5024804
S315080028C007F0F5FF08BD00BFA0B3000810B58AB031
S315080028D0EC46194C0FCCACE80F000FCCACE80F0057
S315080028E094E803008CE80300144BD3F84C3113F436
S315080028F0002F05D0124B1C88FF2C05D98C2403E029
S315080029000E4BD3F85041E4B28DF81940FEF7BAFFE2
S31508002910241803D4FF2C02DDFF2400E000248DF8E0
S3150800292018400848FDF7C6FE6846FEF7D1FE322075
S31508002930FEF7AEFF0AB010BD6CB300080080E00FCA
S315080029400001E00FC017530208B50248FFF74EF81A
S3150800295008BD00BF00B4C40408B50248FFF7C6F8AE
S3150800296008BD00BFC0EA210110B5FEF7F1FF4E4CC5
S31508002970236F23F0070343F0030323670020FFF7C1
S315080029800DF8236F23F474432367484BD3F8FC30C0
S3150800299013F0807F75D1464B0022C3F88020424C45
S315080029A0D4F8203123F0070343F00203C4F820319A
S315080029B0D4F8283123F0070343F00203C4F828317A
S315080029C0D4F8803123F0030343F00103C4F88031BF
S315080029D0D4F8903223F0030343F00103C4F890328D
S315080029E0D4F8403123F0030343F00103C4F840311F
S315080029F0D4F8603123F0030343F00103C4F86031CF
S31508002A00D4F8403223F0030343F00103C4F84032FC
S31508002A10D4F8003223F0070343F00103C4F8003268
S31508002A20D4F8083223F0070343F00103C4F8083248
S31508002A30D4F8503223F0030343F00103C4F85032AC
S31508002A40D4F8703223F0030343F00103C4F870325C
S31508002A50D4F8203223F0070343F00103C4F82032E8
S31508002A60FEF71CFE4FF0E022136943F004031361DE
S31508002A70D4F8603223F0070343F00103C4F8603248
S31508002A8010BD0A4BD3F8FC2022F08072C3F8FC2054
S31508002A90074A0021C2F88010D3F8FC2042F0807261
S31508002AA0C3F8FC207BE700BF0080005000ED00E083
S31508002AB00090005008B5074807F0F9FEFFF706FF33
S31508002AC0FFF742FFFFF748FFFFF7F8FEFFF74CFF57
S31508002AD0002008BD9CB3000800B583B0094B93E8F5
S31508002AE003000090ADF80410090C8DF8061068462E
S31508002AF0FFF7F0F80920FFF72BF9002003B05DF87F
S31508002B0004FB00BF94B3000810B582B0074A536FA0
S31508002B1043F001035367002400948DF80440684687
S31508002B20FFF704F8204602B010BD00BF0040005071
S31508002B30002808DB0901C9B200F1604000F56140D0
S31508002B4080F80013704700F00F000901C9B2014B65
S31508002B501954704714ED00E0002807DB00F01F0247
S31508002B60400901239340024A42F82030704700BFCB
S31508002B7000E100E000280CDB00F01F0240090123F9
S31508002B8093402030034A42F82030BFF34F8FBFF3FB
S31508002B906F8F704700E100E04211064B53F8223070
S31508002BA000F01F0023FA00F080F0010000F0010099
S31508002BB0704700BF00E100E0002808DB00F01F02B4
S31508002BC04009012393406030014A42F8203070479B
S31508002BD000E100E010B507F05DFE0B4B1B783BB932
S31508002BE0094B01221A7007F050FE6FF0040408E042
S31508002BF007F04BFE07E00521204606F09CFB013452
S31508002C0064B24B2CF7DD10BDB312002010B5044694
S31508002C1007F037FE024B1C6007F02EFE002010BDA1
S31508002C20640E002010B507F02CFE034B1C6807F055
S31508002C3023FE204610BD00BF640E00202DE9F0419A
S31508002C408EB007460E4614461D461368D3F8008014
S31508002C5091F83130002B48D00DF1180CDFF830E22E
S31508002C60BEE80F00ACE80F009EE80F008CE80F00E6
S31508002C700023009301930293039304930593A36897
S31508002C800893237B012B3DD0022B3ED14FF4407392
S31508002C90ADF82630607B06F065FBADF82800CDF868
S31508002CA034D001238DF80630A37B022B04D0032BE6
S31508002CB002D0012B00D000238DF80030B36B6E4A8A
S31508002CC01A60B36B6D4A5A60B36B00229A60B36B95
S31508002CD06B4ADA6032462946384600F0AFFA0746AC
S31508002CE0A8B138460EB0BDE8F0810DF1180CDFF832
S31508002CF0A4E1BEE80F00ACE80F009EE80F008CE8E0
S31508002D000F00B5E74FF40073C2E70023C0E7236955
S31508002D10C5F8A430237E85F8AB30E37D85F8AA3064
S31508002D20A37D85F8A930637D85F8A830A37E85F84C
S31508002D30AD30637E85F8AC30237F85F8AF30E37E0F
S31508002D4085F8AE302368C5F8A0304E4807F0AFFDC9
S31508002D5001230422A17D607DFFF718FA01230222D0
S31508002D60217EE07DFFF712FA002385F8B03020694E
S31508002D7007F09DFD96F83130002B5DD006A9404638
S31508002D8006F08BFA95F8B03043F0040385F8B030B6
S31508002D90227D3D4B263203EB421214215160617DA0
S31508002DA0A07D227D41EA004103EB4212C2F8DC1401
S31508002DB0E27D207E217D42EA004203EB4113C3F8FF
S31508002DC0D424A37B012B3CD0032B3AD0A37B023B14
S31508002DD0DBB2012B42D995F8B03013F0010F0CD0B5
S31508002DE0627EA17E237D42EA01425B0103F1A04394
S31508002DF003F5703341F2CC415A5095F8B03013F0D0
S31508002E00010F10D0237D204AA63302EB431302217B
S31508002E105960E37E207F217D43EA004302EB41129D
S31508002E2041F2D041535008F50053184ADA64052197
S31508002E30404606F007FA54E706A9404606F033FA74
S31508002E40A6E795F8B03043F0010385F8B0300023C3
S31508002E500222A17E607EFFF799F9B7E795F8B030B0
S31508002E6043F0020385F8B03000230422217FE07E78
S31508002E70FFF78CF9AFE700BF8D9300082D94000883
S31508002E80A7930008A4B3000800C00350FF3F0D0332
S31508002E90C4B30008E4B3000830B583B0007D104B16
S31508002EA000EB400203EB0212D56E00EB400203EB87
S31508002EB002131C6F0DF1070107F07CFA9DF8073025
S31508002EC04BB904F00204074B9D4201D0002003E0F1
S31508002ED024B1002000E0012003B030BD0120FBE74B
S31508002EE000000450B4120020037D0E4A03EB430190
S31508002EF002EB0111C96E03EB430302EB0312136FD6
S31508002F0003F00203084A914201D0002070470BB92A
S31508002F1000207047036A006D984214BF0020012004
S31508002F20704700BF00000450B412002030B583B0CB
S31508002F3003464169026902F1FF3CC5684C6F01F11D
S31508002F407C020020C86750609060D060B1F87C00B1
S31508002F506CF30E10A1F87C0091F87E0040F010008A
S31508002F6081F87E0091F87F0040F0300081F87F00FC
S31508002F70C1F88050C1F88440012081F88C0091F88E
S31508002F8078000093024B6431FDF746FE03B030BD6E
S31508002F908D9700082DE9F04184B0044600F1380603
S31508002FA000F11808002585637560B560F56090F82E
S31508002FB03A3043F0100380F83A3090F83B3043F04B
S31508002FC0030380F83B30494FC7630764007DFDF76C
S31508002FD04FFEA5637560B560F56094F83A3043F026
S31508002FE0100384F83A3094F83B3043F0030384F82E
S31508002FF03B30E7632764207D00EB40031B0103F1A8
S31508003000A04303F58023DB6EBB4219D00DF10F01F7
S3150800301007F0D0F99DF80F30ABB194F844306FF350
S31508003020410384F844300094314B32462146207DD2
S31508003030FDF7F2FD207DFDF73BFE04B0BDE8F0810B
S31508003040FDF736FEF9E7204606F0FFF9054602A920
S31508003050207D07F0D3F9029B591E20690023A3613E
S31508003060E36123626362228B61F30E122283A27EDE
S3150800307042F01002A276E27E42F00302E276E061B6
S315080030802562227D1B4902EB420001EB0010056F09
S31508003090C5F3400594F8247065F3410784F8247055
S315080030A0A57E63F30415A576056FF8B265F30000EF
S315080030B084F8240002EB420201EB02110A6F921017
S315080030C0616A62F39F01616294F8442042F0020249
S315080030D084F84420D2B263F3000284F844204FEA0D
S315080030E0A808636C68F39F0363649CE7B412002026
S315080030F0F595000800000450F0B589B004460E4660
S31508003100007DFDF7B5FD0DF11F01207D07F052F991
S31508003110204606F09AF90546236D83424AD2A26CE8
S31508003120934216D0238DC3F30A12324462F30E1368
S315080031302385236D1E442665A26CE36C13449E42C8
S315080031406FD0236DAB426ED0207DFDF7B1FD09B07F
S31508003150F0BD701E276904F128030021A162E1620F
S3150800316021636163B4F828C060F30E1CA4F828C074
S3150800317094F82A0040F0100084F82A0094F82B00EE
S3150800318040F0030084F82B00E762226394F82A20B3
S3150800319061F3041284F82A2023F00302237D42F007
S315080031A0020203EB43031B0103F1A04303F580234B
S315080031B01A67BEE79DF81F30B3B9227D1D4802EB9A
S315080031C0420300EB0313596EC1F30A1131445B6ED7
S315080031D023F4FF4323F0700343EA011302EB420290
S315080031E000EB02104366A4E70494134B03930023F1
S315080031F00293019601230093236902462168207DE4
S3150800320005F0BAFD237D0B4A03EB430102EB0111DE
S31508003210496E21F4801103EB430302EB0312516656
S3150800322087E722658DE7012384F854302046FFF7A7
S31508003230B1FE89E700000450F595000870B588B01E
S3150800324006460C461546A0220021204606F0B6FE84
S31508003250A446AE46BEE80F00ACE80F00DEF8003024
S31508003260CCF8003004F1640C05F1140EBEE80F002A
S31508003270ACE80F00DEF80030CCF80030AB6AA36487
S31508003280EA6AE264236595F8302084F8952095F873
S31508003290332084F89620C4F89830012384F89C30AB
S315080032A084F85430AB6B23663460374B7360374B06
S315080032B0B360374BF360374B7361374BB361374BAA
S315080032C03361FDF777FC10B1354A904253D100219E
S315080032D007A8FDF7EDFB00284FD19DF81C30237594
S315080032E0002107A8FDF7E4FB00283FD19DF81C3014
S315080032F084F87830207DFDF7BBFC002840D1E36CCC
S315080033000494284A0392002202920193012300930F
S315080033102369A26C2168207D05F02EFD90BB237DD4
S3150800332003EB43031B0103F1A04303F5802342F299
S3150800333064024FF480119950AB6B93F91000FFF7B4
S315080033403BFCAB6B93F9100005F0F1FF04F190001C
S3150800335005F0FEFC3046FFF759FC2046FFF71AFE3B
S31508003360207DFDF7A5FC48B1102007E0207DFDF77C
S31508003370F7FB102002E0102000E0102008B070BD16
S315080033801020FBE71020F9E79B950008AF95000889
S31508003390559700083F94000845940008D1970008FF
S315080033A0038000F0F59500080346064A10680344B2
S315080033B0054A934202D8034A136070474FF0FF301C
S315080033C0704700BF6413002000800020BFF34F8FB2
S315080033D00549CA6802F4E062044B1343CB60BFF3A5
S315080033E04F8F00BFFDE700BF00ED00E00400FA05BF
S315080033F0BFF35F8F074B5A6A22F480325A62D3F8BA
S31508003400942022F00102C3F89420BFF34F8FBFF334
S315080034106F8F704700ED00E070B5FFF7E9FFA02257
S315080034200021214806F003FA204B21498B4206D099
S3150800343021F01F02203AB2F1005F0FD300E01D4AC7
S315080034401D4D286842F001021C4CC4F898001C4E19
S31508003450C4F89C60C4F8A020013028608B4210D0C4
S315080034601F3323F01F0343F003031348026813496D
S31508003470C1F89820C1F89C30124BC1F8A03001322F
S315080034800260BFF35F8F0D4B0522C3F894205A6A7A
S3150800349042F480325A62BFF34F8FBFF36F8FBFF388
S315080034A04F8FBFF36F8F70BD90ED00E000130020C3
S315080034B0E012002000800020680E002000ED00E0E9
S315080034C003000020E17F002010B4194B5A6E02F465
S315080034D0803203F580514FF480304866586E4FF0BD
S315080034E000434B66134B596C01F001014AF6CD3483
S315080034F01C64104B5B6B13F0010FFAD10E4B0124C1
S315080035005C600C4B1B6B13F0010FFAD011B1094B21
S315080035100A491964002803DB094B4FF00041596634
S315080035201AB9074B4FF480325A665DF8044B704758
S315080035300080005000400950006009503254FFFFD7
S3150800354000A0005010B507F0A5F90446144B1B78E7
S31508003550DBB9144A1360144A1360144A136000F066
S315080035602DF8012007F0C6FA07F016F90246104BA7
S31508003570186078B100230F4840F2E73104F066FE80
S315080035800D4B1860064B01221A70204607F07DF98C
S31508003590002010BD204607F078F92320F9E700BF80
S315080035A0B7120020740E0020700E00207C0E00203A
S315080035B0780E002018FCFFFF6C0E002010B586B0B0
S315080035C000248DF814400094019402940394049402
S315080035D001238DF80030164807F069F9BFF34F8FBD
S315080035E005A8FEF7C5FF8DF8004069462046FEF798
S315080035F0D7FF0F21204606F039FF0F21204606F097
S315080036003BFFFEF799FF0B4B5B6813F0010F03D0E6
S31508003610084BDB69002BF6D1064B00229A6146203F
S31508003620FFF7CAFA462005F082FE06B010BD00BFB5
S315080036309CB3000800800A502DE9F843DFF8609033
S315080036400646D9F8008008461746B8F1000F03D099
S315080036500E242046BDE8F88306B3336801331DD12E
S31508003660E1B100F067F805460028F1D0C9F8000076
S3150800367000F086F8284606F048F9044640B1404668
S31508003680C9F8008000F07CF8284606F039F9E0E72A
S315080036903560002FDDD02846B847DAE72124D8E779
S315080036A0800E0020024B1868003818BF01207047AA
S315080036B0800E002038B505460C4601F0A9F838B149
S315080036C0204602F0F7FD40F26512412100F0FCF9B0
S315080036D044B1236833B11B68013303D0E3680BB1E7
S315080036E0A3684BB906F077FB00204FF4C17241215D
S315080036F000F0EAF9212038BD204601F0D9FB002365
S315080037000A4A85F83031C5E93743C2E900336369A7
S315080037104BB1074A422110684FF4D272C31A584275
S31508003720584100F0D1F90020E5E700BF001300205A
S31508003730C4100020F8B5044607F0A3F8002607468B
S315080037400E4B1B6893B19E68AEB196F82420D2073B
S3150800375011D435460FCC0FC50FCC0FC523682B6087
S3150800376096F8243043F0010386F82430384607F0EB
S3150800377083F83046F8BD1B68E4E700BF6C130020E9
S3150800378010B5044618B9054B054A136010BD00F07C
S31508003790FDF9D4F8E830002BF6D1F4E7ED980008E7
S315080037A068130020084B10B4002A14BF14461C46A0
S315080037B0064B1C6019B15DF8044B06F0EDB80846D7
S315080037C05DF8044B704700BFED98000868130020A9
S315080037D0D0F8E0302DE9F04105460C4613B1C38D0B
S315080037E08B424CD0D5F8DC30002B4BD09E68002E8F
S315080037F048D0D868002845D0013800B200281ADB1E
S31508003800002106E0128A591CA24217D209B2884240
S3150800381011DB0B1803EBD3735B1003EBC30206EB48
S315080038208202B2F80EC003F1FF3EA445EAD90FFAA8
S315080038308EF08842EDDA2120BDE8F0814FF6FF725E
S3150800384099B29142F7D09BB203EBC30306EB83060A
S315080038502846B6F9122095F82411D5F8F080FEF717
S31508003860E1FE0746B8F1000F04D000233246284689
S315080038701946C047EC85C5F8E06085F82D7100202B
S31508003880BDE8F0810E20BDE8F08100BF2DE9F047C4
S3150800389082B004460F46164600F0AEFF00286FD1E8
S315080038A0494D2B68D4F8DCA0D4F8E0800BB1534519
S315080038B06AD04FF00009AF6000F0B4FF0128074650
S315080038C004D001210022084600F0B0F92B68DAF886
S315080038D00010D8F8002013B1186888425FD0204637
S315080038E006F0ECF994F82530C5E900A813F0010FA5
S315080038F00CBF32460122D4F8F05062F3000384F874
S3150800390025308DF80760002D50D00022204611463C
S315080039100DF10703A847204600F06CFC0546B9F1EF
S31508003920000F10D07EB9D4F88C3013BB012F06D007
S31508003930002D47D0254B002103205B689847284671
S3150800394002B0BDE8F087B5FA85F040F2FA423321B5
S31508003950400900F0B9F83146204600F05FFD1C4BDF
S3150800396005461B68414620469847D4F88C30002BFC
S31508003970DCD000224FF40073204600F017F9D5E793
S315080039800023114D6B608CE76B68002B91D0434583
S315080039908FD1AB689F4215D04FF001098BE7696854
S315080039A011B1096891429DD0596898E794F82A1090
S315080039B094F82D313246994228BF1946204600F020
S315080039C06BFBA8E70025BAE7001300207413002054
S315080039D068130020F8B50E46054606F052FF314634
S315080039E007462846FFF7F4FE044620B1384606F097
S315080039F043FF2046F8BD00F0DFFE22463146284642
S31508003A00FFF744FF04460028F0D195F92430002B2F
S31508003A10ECDA284606F0A6F90028E7D0224628461A
S31508003A2095F82C1006F05CF90446DFE770B50446F5
S31508003A300E4606F026FF314605462046FFF7CAFF22
S31508003A40044620B9044B01465B680320984728467C
S31508003A5006F012FF204670BD7413002010B5FFF75C
S31508003A6021FE20B9054B1A68054B9A4204D1BDE8D8
S31508003A701040044B1B68184710BD00BFB013002048
S31508003A8000800040B413002013B50446694605F0CB
S31508003A90EEFF204606F076F8FF28024606D02046B6
S31508003AA09DF80010FEF74EFE02B010BD0048FBE779
S31508003AB00080FFFF08B50B460249194005F0DBFFF9
S31508003AC0002008BD0700110010B550B90548064B7F
S31508003AD00160064802601868054B1860186805F00A
S31508003AE010F910BD70130020800E002088100020E9
S31508003AF084100020D0F8E43013B11A68032A10D8CD
S31508003B00094BDB6BC3F3C20213F0380F03F007004F
S31508003B1018BF504313F4E07FC3F3821203D0504317
S31508003B207047986A400E7047008001B8431C07D05A
S31508003B306FF0FF02034B10405A62A3F58053586298
S31508003B40704700BF00E000B8F8B504460F461646B1
S31508003B5006F097FE0546A047044620B1284606F01B
S31508003B608BFE2046F8BD03F0BFFC04220549D1F8B8
S31508003B70003F23EA07033343C1F8003F024B5A6468
S31508003B80ECE700BF003000B0002002B838B1036887
S31508003B90044A002B08BF1346034A13607047014BBB
S31508003BA0FAE700BFC59A00088413002010B4D0E9CC
S31508003BB0544122400B4052EA030104D003495DF800
S31508003BC0044B096808475DF8044B704784130020C6
S31508003BD0024B986F00F00F00704700BF003F00B01F
S31508003BE00F2938B505460C460ED800F01BFE0128ED
S31508003BF00CD1074A2846936F23F00F032343936794
S31508003C0006F098F8002038BD2120FCE70220FAE7E4
S31508003C10003F00B0014BD86F704700BF003F00B0AF
S31508003C20014B0020D9677047003F00B003282DE9F3
S31508003C30F74F0C46914600F28780444B13F800A0D4
S31508003C40434B1E5C434B13F800B006F01AFE804641
S31508003C5003F0FCFB074640B100230022CDE9003300
S31508003C6001200023002103F0CFF903F0F7FB48B148
S31508003C7000230022CDE90033002000234FF4004141
S31508003C8003F0C2F9002E52D0334BDD6C05F008055F
S31508003C900AEB0600314B23305844DD64C0B201F00C
S31508003CA09BFD3146504603F081FC5A463146504644
S31508003CB003F020FD2A4BDD64DFB12A4B1868D0F8E3
S31508003CC09410F83002F068F927490868FFF72EFFC4
S31508003CD04FF0FF330B60254B1A68511C06D06FF066
S31508003CE07E402349C863A1F58051CA634FF0FF326D
S31508003CF01A60B9F1000F04D01E4B002103205B683F
S31508003D009847B4B14FF480621B4B1D6F03F50053FF
S31508003D10C5F380251A67404606F0AEFD00F082FD21
S31508003D20012808D15DB9002003B0BDE8F08F3546FB
S31508003D30AEE72546EFE7002CF0D10520F4E74FF46F
S31508003D4080620E4B1A67EEE72120EDE724B40008DF
S31508003D5020B400081CB40008004000B8006000B891
S31508003D60005000B8800E0020801300207C1300202D
S31508003D7000E000B87413002000C001B800D001B8F4
S31508003D8070B50D46064620B91A4B1B68A3B10E201E
S31508003D9011E000F047FD012829D1174B93F900409F
S31508003DA0C4F12704641BC4F11C03002BB8BF5B4293
S31508003DB0232B0CDD212070BDA1F10B03002BB8BF0E
S31508003DC05B42232BF6DC0C4B19700020F3E786F8D0
S31508003DD0275006F056FD094AE402136A04F4FF2444
S31508003DE023F4FF231C43146206F046FDEDE7022088
S31508003DF0E1E700BF800E0020B812002000C000B81E
S31508003E000B4B08461A6D92020FD4D3F84021D107FE
S31508003E100CD4D3F83823D20708D4D3F8803013F457
S31508003E20706F14BF0120002070470120704700BF43
S31508003E30004001B8F8B50D46D0F8943002EA0104FE
S31508003E4023EA01032343C0F894303B4A01F00B03ED
S31508003E5023EA0401D1642340A2F580526F0706467F
S31508003E60D36410D50121FFF7CBFF60B103F03CFB0B
S31508003E704FF4007314F0040F14BF304A304A136528
S31508003E800422304B5A64E90606D514F0100F14BF05
S31508003E9000221B222C4B5A652A0618D5230611D553
S31508003EA04FF40012254BDA6406F0EBFC0E210746A8
S31508003EB0032002F001F840F20122234B3846DA6269
S31508003EC006F0DAFC214606F1F80002F065F8EF057F
S31508003ED003D5E0052AD501F0DDFFA90503D5A2051E
S31508003EE027D501F0E3FF15F0600F0AD0D6F8E410E5
S31508003EF0304605F0E8FD8022144BC3F88800144BC1
S31508003F001A612B0510D503F0EFFA124A14F4006F64
S31508003F10D2F8003F14BF43F0006323F00063C2F8F1
S31508003F20003F0422074B5A640020F8BD01F0ACFF9D
S31508003F30D3E701F0B5FFD6E7006000B8005001B836
S31508003F40006001B8002002B8004000B8003F00B089
S31508003F50000002B8003000B00A78022A11D0101FFB
S31508003F604242424152004B781201022B0BD0191FD4
S31508003F704B424B415B000549054842EA8312FFF76D
S31508003F80E3BD0122EFE70123F5E700BFF0FFFF00DD
S31508003F906D4800080B78022B10D0181F4342434186
S31508003FA05B004A78022A0BD0111F4A424A41520046
S31508003FB00F21044843EA8202FFF7C6BD0123F0E752
S31508003FC00122F5E799480008F8B50D7804460A2D48
S31508003FD00E4690F8247108D10625284600F080FF81
S31508003FE018B90135EDB20A2DF7D1284600F078FF49
S31508003FF0002848D094F82431AB4209D1B288D4F8C5
S31508004000A4309A4204D17288B4F826319A4238D03C
S3150800401084F82451B3882846A4F82831738804F50F
S315080040209275A4F82631B388C4F8A430FF2384F81F
S315080040302B3005F0FBFE84F82A00284601F00CF820
S3150800404010BB284600F042FFF0B9D4F8E03053B16F
S3150800405094F82411B94206D02046B3F91220FEF787
S31508004060E1FA84F82D01204601F016F90849A4F86A
S3150800407028010123074AD1F8FC1004F1F80002F0E0
S315080040809FFD0020F8BD21200C2384F82431F9E790
S31508004090004F00B0983F00B070B5054690F824016F
S315080040A00C460C281FD0FF2901D1212070BD1AB15A
S315080040B04FF0FF320D4B1A6005F0B8FE064695F82C
S315080040C0240100F04BFF844228BF0446E4B2B44200
S315080040D038BF3446E0B285F82B0001F00DFAFF2808
S315080040E0E3D00020E2E70220E0E700BF88130020C3
S315080040F010B590F8243104460C2B44D0D0F8E030A3
S3150800410080F82A10DBB3D0F8F020D2B990F82D3118
S315080041108B421CD300222046FFF7BEFF48BB1B4B31
S315080041201B78063B032B23D8204601F0B5F818491F
S315080041300123184AD1F8FC1004F1F80002F040FDFA
S3150800414016E0B0F94220B3F912309A42E2DD0022B5
S31508004150204694F82D11FFF79FFF50B9C4F8E000E8
S31508004160204605F026FC4FF6FF739842014601D11A
S31508004170002010BD2046BDE81040FFF72BBCFF23EA
S3150800418080F82B30F4E70220F3E700BF4014002044
S31508004190004F00B0983F00B0F0B51D46144B0446DA
S315080041A01B780F46164685B05BB1D0F8E030E3B110
S315080041B002AAB3F912300092002205F096F805B06B
S315080041C0F0BD02A905F053FC9DF808103A462046B2
S315080041D0FEF728FA014626B92A462046FFF75CFF6D
S315080041E0EDE72046FFF784FFE9E71846E7E700BF53
S315080041F012B20008F0B5D0F89C3095B0012B03D167
S315080042000025284615B0F0BD04467C4905F046FE53
S31508004210D4F8E0600146E58DC4F8E4002EB13368B1
S315080042201BB15B68002B40F0A58006F02AFB01460F
S315080042302046FFF75FFC0746084606F01DFBD4F844
S31508004240E410B3898DF80E70EB1A9BB2D6E90120FB
S3150800425000FB03226A48ADF80C30036802929942C3
S3150800426008D0204605F02FFC80226649664BC1F827
S3150800427088001A61654D644E00F0D4FA0128FBD116
S315080042802B6CDA07F8D4736CDB01F5D494F8253077
S31508004290DF070CD5D6F878215D4BC6F8EC23D3F8A2
S315080042A0F830D6F8A0209D06C6F8F02369D494F80D
S315080042B02530D4F8E4106FF3000384F8253020463F
S315080042C012919DF80E20029908AB02F0E5F880B924
S315080042D000F0A8FA0128FBD14B4A4C49536CD80187
S315080042E0FCD40B6CDB07F9D408A901A802F01AFB69
S315080042F018B10225284615B0F0BDE28D454B5A6423
S3150800430000F036FE054600287FF47BAF94F824308B
S3150800431060F3410384F8243000F034FBD4F8E0302D
S31508004320411E5B69C9B21E68FD29024604962CD94E
S31508004330F71C3DD938490136096818BF0126C81C3B
S3150800434042D85B68FF2A0491059344D1DF1C27D81D
S31508004350204604A905F00FFD002E7FF451AFD4F8CE
S31508004360543198052AD494F8243043F0020384F88B
S31508004370243045E71A68032A7FF657AF9F6A7F0EEF
S315080043805FE7204600F088FF91E75B680128059300
S3150800439004D0204604A905F0EEFC31E70126D5E74E
S315080043A001331D4B5B6818D0D91C12D80593CFE78B
S315080043B05B68FF280593F1D02A46EAE720464FF4C2
S315080043C0803105F066FB1BE7FF2A5B680DD0059375
S315080043D0C2E7FF2AC0D10022BAE7DD1C08D820466A
S315080043E004A9059305F0C7FCB9E701220593ADE7D3
S315080043F0FF2AB4D10022204604A9F3E7FC4F00B0F7
S3150800440090100020003F00B0000002B800C002B8BB
S31508004410004F00B0008001B894130020F8B5044698
S315080044200E4619B990F824305A0647D43B4B3C4AF5
S315080044305B6A618EC3F3032313704FF6FF739942C9
S31508004440D4F8E47004D0374B1B680BB12046984764
S31508004450354D2B68BB4256D0344B1B683BB11FB158
S315080044603A68002A51D0BF68394620469847072738
S31508004470204600F011FF002E3BD006202C4B94F965
S31508004480272093F900302549C3F127039B1A0A6AA6
S31508004490DB0222F4FF2203F4FF2313430B62D4F852
S315080044A0E420244B2A60986701F0BEF80122224BCB
S315080044B020461A7005F03EFC0020F8BD4FF6FF7C3A
S315080044C066F38613154A80F82430536A164D144944
S315080044D0C3F30323D0F8E4700B702B68A0F832C03E
S315080044E0BB4217D0114B1B68002BB8D100F0D4FE85
S315080044F0072712493B46124AD1F8FC1004F1F80086
S3150800450002F05EFBB9E70127B2E7174620463946AF
S315080045109847ACE700F0C0FE0127EAE700C000B8FC
S31508004520BA12002098100020901000209410002045
S31508004530B8120020006000B8B9120020004F00B081
S31508004540983F00B0054A12681AB190F81E1119B9B9
S315080045501047084601F0C2BC014870478C1000207D
S3150800456000FEFFFF404B2DE9F7431D6801F4007973
S3150800457000F00103174653EA090206460C4640D0E6
S315080045804FF0000893B30023002201200021CDE953
S31508004590008802F039FD41462846FFF7D3FF01227D
S315080045A041462886104605F002FAD5F8941005F11A
S315080045B0F80001F0F1FC2D490868FFF7B7FA4FF04B
S315080045C0FF330B602A4B1A68511C06D06FF07E40E9
S315080045D02849C863A1F58051CA634FF0FF321A60B3
S315080045E095F8243043F0040385F82430B9F1000F18
S315080045F007D00121284605F04CFA24F40074064336
S315080046000C43324623462846FFF7D0FA22044FF0D9
S31508004610000308D5CDE900330022002300204FF41B
S31508004620004102F0F1FCFB070FD51349134A08684D
S315080046300021136811600121114A117003B19847CE
S31508004640104B002102205B68984717F00E0F08D020
S315080046504FF409723B21002003B0BDE8F043FFF791
S3150800466033BA03B0BDE8F083800E00208013002023
S315080046707C13002000E000B89C100020A010002049
S31508004680BB1200207413002008B5582200210648E2
S3150800469005F094FC1022FF21044805F08FFC03F076
S315080046A09BFD002008BD00BF043F00B0483F00B096
S315080046B073B581217A22A0F814118221C0F800214D
S315080046C0C0E9411264220C23C0E9432207224FF0B5
S315080046D0FF35002680F824314FF6FF730446C2875B
S315080046E000F14C0282641F4AC385A0F8403080F866
S315080046F02C3043864263038780F82760C0F8A450AD
S31508004700458502F0B3FE2046FFF7BEFF0122164B91
S315080047102046C3F8382294F92710FFF731FB6023A7
S31508004720124A41F6FF71D3644FF03A42116311679A
S315080047300F4A2946D36440220E4B20465A64D4F8C1
S315080047409420FFF777FB0E230022CDE9003340F2D1
S3150800475002231046194602F057FC00F0D9FB3046F2
S3150800476002B070BD4000FFFF005001B8004000B81D
S31508004770005000B8002002B838B506F082F84FF6A7
S31508004780FF710A4A13888B4203D106F075F80E208A
S3150800479038BD074C074D1B046567A4F5805463674D
S315080047A0118006F069F80020F2E700BF3E140020E9
S315080047B0006001B80000FFFF08B50C4BD3F84C2188
S315080047C0531C11D012F080420ED1094B1B681BB145
S315080047D011460320FFF72AFA4FF08062054B1A6547
S315080047E001225A6102229A6208BD00BF0080E00FCA
S315080047F0800E0020001002B84FF40022034B586CBC
S3150800480003F500535A64C0F3C0407047000002B86D
S31508004810034BDB6913F4401F0CBF012000207047CF
S315080048200080E00F0F4BDB68C3F30363013B0B2BE0
S315080048300FD8DFE803F006060C06060606080A087F
S315080048400808022070470420704705207047032097
S315080048507047054B5B6913F0060F0CBF0120042057
S31508004860704700BF000002B800C001B8094AD36803
S31508004870C3F303630B2B08D06FF49050184100F074
S31508004880010080F0010040007047506C10F4803041
S31508004890EDD17047000002B80C4AD368C3F303632E
S315080048A0062B07D8042BD8B20BD8C31E584258413A
S315080048B040007047072B06D1D2F868010028ECD1D2
S315080048C07047022070470020704700BF000002B8FA
S315080048D0094BDB68C3F303639A1E012A8CBF0022C7
S315080048E00122012B02701EBF4FF4026222FA03F363
S315080048F003F001030B707047000002B8FF28074B4E
S3150800490009BF0A6851F82020C3F878224A6818BFF8
S31508004910C3F87822C3F87C22704700BF004001B86C
S31508004920144BFF281870144A144B09D11821C2F8E1
S31508004930FC131022C3F8FC23114BD3F874320DE094
S31508004940C0431821C00000F00800C2F8FC13C3F8E1
S31508004950FC030028F0D10A4BD3F8783240F2FF3135
S31508004960054AC3F30903C2F80C11A2F58052C2F82E
S315080049700C317047BC120020002002B8001002B8A3
S315080049800080E00F014B1878704700BFBC1200206A
S315080049904FF03A43D3F81421D2031ED54FF4803290
S315080049A00E49C1F81421A1F58051C1F818215A6D94
S315080049B0D1B2C2F30722C3F8A410C3F8A420042274
S315080049C0C3F8A4200022C3F8A420C3F8A420C3F87F
S315080049D0A420C3F8A420C3F8A4207047002000BA76
S315080049E0F0220B4B01219A64A022A3F580539A6406
S315080049F04FF03A43826CC3F8F410FC21C3F8CC108C
S31508004A00C3F8D0204FF40052C3F8F020704700BF17
S31508004A10006000B8F8B50D464FF03A44174606460A
S31508004A2005F02FFF01230421074A6363E760266127
S31508004A306561C2F81411054AC2F8843105F01CFFF5
S31508004A400DB102236363F8BD002000BA00E100E05F
S31508004A502DE9F04105460124006800F007000630FC
S31508004A6004FA00F3A868EC685E1EA04262D000EA69
S31508004A70060E6C6810441E430640A3EB0E000EEBB0
S31508004A80040C8242644618D9D31A0EEB030298B175
S31508004A90431E052B04D94B1CACEB0303022B59D838
S31508004AA00B460844ACEB010E03EB0E0113F8014B61
S31508004AB083420C70F8D101466C688AB1531E052BE7
S31508004AC001F1010302D9E01A022812D80A44611E2C
S31508004AD000E0013313F8010C934201F8010FF8D1F5
S31508004AE005F0CFFE0223AE60AB62BDE8F04105F0EB
S31508004AF0C3BE0B46204622F0030E8E4453F804CB61
S31508004B00734540F804CBF9D122F00303D01A920773
S31508004B1001EB030C04EB0307E2D0CA5C0128E2545C
S31508004B20DED09CF8013002287B70D9D09CF8023080
S31508004B30BB70D5E7042A35D90878043AA8614878BD
S31508004B400431A86111F8020CA86111F8010CA861DA
S31508004B50A8688CE70B4620F003070F44ACEB010E60
S31508004B601C684EF803400433BB42F9D120F0030316
S31508004B7010F0030F01EB030EA0EB03040CEB030785
S31508004B8028D011F80380012C0CF8038022D09EF857
S31508004B900130022C7B7018BF9EF80230084418BFFB
S31508004BA0BB7088E7013A032A12D8DFE802F00F152E
S31508004BB007020B4613F8012B1946AA610A4612F892
S31508004BC0013BAB61114611F8013BAB610B78AB6158
S31508004BD0BDE8F08108446EE70A46F3E738B50B46A8
S31508004BE0154601464FF03A4468B101221048C4F808
S31508004BF0F4201A46FFF72CFF25B14FF03A4304225A
S31508004C00C3F8F42038BD73B1D4F8D8209A4284BFCB
S31508004C100122C4F8F4204FF03A42C2F8D4300223F5
S31508004C20C2F8F430E8E70123C4F8F430E4E700BF3B
S31508004C30CC0000BA38B5044605F023FE4FF03A42D8
S31508004C400121638F054651674BB3B3FA83F3C3F16A
S31508004C501903DBB2A069C2F8B410C2F88C30072376
S31508004C60C2F89000C2F8B0304FF4A02302F5005203
S31508004C70C2F81431A2F58052C2F8183100220C4B42
S31508004C801A600C4B5B6C5B0209D54FF480020A4B29
S31508004C9004F1F8005A64D4F8941001F07DF94FF441
S31508004CA0E0232846E363BDE8384005F0E5BD00BFCC
S31508004CB0A4100020000002B8002002B82DE9F8432D
S31508004CC005460C46B1B1D0F81880478F05F0D9FDD6
S31508004CD0B5F83CC0791E01EA0C0323F00702032C41
S31508004CE00646DFF8F8E042445ED1DEF8004024B913
S31508004CF005F0C2FD0E20BDE8F88324F00104DEF8B5
S31508004D00000020F00100A04253D10023CEF8003065
S31508004D10238894426FEA43436FEA534323803ED184
S31508004D20EB8F08EB07091846083880B202F1080429
S31508004D304C4528BF4446082804D9B4F800E0BEF517
S31508004D40804F40D263440F431B1A3B409BB2AB874C
S31508004D50E887947811884FF03A42C1F30C019165BF
S31508004D60C2F89830C2F8B0004FF48022174B04F00E
S31508004D700704C3F814210122154BC3F88421FFF751
S31508004D8007FE042C0BD14FF48002124B05F1F800F4
S31508004D905B6C114B5A64D5F8941001F0FDF8304657
S31508004DA005F06AFD0020A6E7601E012898BF144694
S31508004DB0A5E7E88F4344E31A48BFDB190838984249
S31508004DC0A6DC304694E72246AEE700BF002000BACC
S31508004DD000E100E0000002B8002002B8A41000209C
S31508004DE0154B10B51968CA8F8B8F488F1344013835
S31508004DF0073B8C69034023F007031C4402F10803B0
S31508004E004FF03A429BB2CB87C2F8B0304FF48022BB
S31508004E100A4BC3F814210122094BC3F88421A07850
S31508004E2000F00700042803D1064AD3681B03FCD404
S31508004E30054B1C6010BD00BF800E0020002000BA84
S31508004E4000E100E0000002B8A410002010B5064CEE
S31508004E50216839B1CB0703D4044B1868FFF72EFF36
S31508004E600023236010BD00BFA4100020800E002080
S31508004E704FF480320C4B0D49C3F818214FF03A43D2
S31508004E80C1F81421D3F8AC10D3F88C20012302F012
S31508004E90070206329340C1F30C01083B994201D838
S31508004EA0FFF776BD704700BF002000BA001000BAB1
S31508004EB0054BA822D3F84C013121431C0CBF012015
S31508004EC0C0F38070FEF700BE0080E00F034B1A683F
S31508004ED002609B8883800020704700BF4014002032
S31508004EE010B50446084B063C9B689847074B032CAD
S31508004EF0D3F8F80706D800F4C020B0F5C02018BFCC
S31508004F00012010BD0020FCE7B4130020000002B801
S31508004F100E4BD3F8FC37FF2B0ED0C3F3421103F028
S31508004F201F03013303EB4112FE2A88BFFE23084AFA
S31508004F3098BF03EB4113137041F66A02054B1B68D1
S31508004F40B3FBF2F3044A1360704700BF000002B8CF
S31508004F504B140020C4100020A8100020063803288F
S31508004F609ABF024B18780020704700BF4B140020E8
S31508004F70334BD3F8F827D3F8FC17324B1B68D3F812
S31508004F80E43013B11A68032A2BD82F4BDB6BC3F313
S31508004F90C20013F0380F03F0070218BF424313F498
S31508004FA0E07FC3F3821000D04243C1F34213022BC1
S31508004FB0234919D9062A37D9D1F8FC3313F0010346
S31508004FC035D14FF0E0702149092AC1F82C01204853
S31508004FD0C0F82C316FF0FF03C1F828311DD91D4BDD
S31508004FE01DE09A6A520EE0E70023D1F8FC13C907C0
S31508004FF0E7D5032A1CD84FF47C71144A43F44C7342
S31508005000C2F82C114FF0E071C2F82C111049C1F802
S315080050102C316FF0FF03C2F828314FF408530C4ABD
S315080050200020C2F8283170474FF40003DDE700235B
S315080050304FF47C70054943F43873C1F82C01C0E776
S31508005040000002B8800E0020008001B8002002B8D7
S31508005050001002B8002DB00BF8B5834D0446297828
S31508005060002950D12C22814804F0A8FF2378804FCC
S31508005070FF223B70638800247B807E4B4FF481506F
S31508005080C3F8DC407C4B1A7007227C4BD3F8F81720
S31508005090D3F8FC6703F50053C3F8FC234FF470728A
S315080050A0C3F82C21764A4903C3F830214FF0010290
S315080050B0C3F83421C3F86C014FF40060A3F580539C
S315080050C0C3F86C0126D4C3F8FC234FF4307216F0EB
S315080050D0E00FC3F82C2108BF4FF480524FF00800A8
S315080050E008BFC3F86C21FCF765FE4FF4780420224C
S315080050F06449C1F86C213A78063A032A2BD8DFE8C6
S3150800510002F0156B6E7300235F4AC2F8FC305F4AE3
S315080051101370ABE70421C3F8FC1380210920C3F8F8
S315080051202C11C3F83421FCF745FEE0E716F0E00F32
S31508005130C6F3421204D144F40C3444F440740AE031
S31508005140012A1BBF2020524A44F4C134C2F86C011C
S3150800515018BF44F48024C1F83041FFF709FF00283E
S3150800516039D14C4B1A68B2F1406F474A5BD3D3F832
S315080051707C1201313BD0D3F87C12C9B2C2F8DC10DC
S31508005180D3F88032404ADBB24249C2F8E430D1F85B
S315080051908432013343F63F7332D0D1F884421C403F
S315080051A0C2F8D840D1F888120B40C2F8E030394B23
S315080051B0D3F88C1201312CD0D3F88C1201F0FC01F3
S315080051C0C2F8F010D3F8903203F0FC032E4AC2F866
S315080051D0F43001232B70F8BD44F40834ADE744F4E9
S315080051E0A73444F48074B6E744F4FE44B3E723498D
S315080051F0D1F82831DBB2C2F8DC30D1F82831C1E762
S315080052001E4CD4F824111940C2F8D810D4F8241129
S31508005210CAE71A49D1F8343103F0FC03C2F8F03072
S31508005220D1F83431D0E71549D1F8F847D3F8301218
S31508005230C9B2C2F8DC10D3F83432DBB2C2F8E430B3
S31508005240630357BF43F62B3341F61B33C2F8D830F6
S31508005250C2F8E03049BFC2F8D830FC23C2F8E030C3
S31508005260DC23C2F8F030B1E7BE120020D43F00B00C
S3150800527040140020004001B84A140020000002B87B
S3150800528000FFFF00001002B8003F00B0BD1200206A
S31508005290002002B80080E00FD0F8A4104C220229A2
S315080052A038BF02212DE9F04F804690F824A18148A5
S315080052B00139C36CD0F8DC507F48C3F38213DA4057
S315080052C0036898F82B708B42DFF828B27B4B87B0BF
S315080052D002F0010219D11C78944216D1784C247830
S315080052E0544512D1D8F8A8407CB1AC420DD1754CC2
S315080052F0D4F8F840A60608D4734C2478BC4204D1E6
S31508005300BBF8040007B0BDE8F08F01609BF8000009
S315080053101A70FFF723FEFF2F81466A4840D1AAF18B
S315080053200603032BD0F8F800684B09D985064DD536
S3150800533040F2FF30C3F88800FB0843F4407309E0E5
S31508005340840642D540F2FF300127C3F88800BB081F
S3150800535043F438735E48C0F888305C4B0120C3F8C4
S31508005360E0005C4B1E6840F27123B6FBF3F6192386
S315080053704E43B6FBF3F65AB3D8F8E4502DB12B6872
S31508005380082B40F2948095F83850294605A80596CA
S3150800539004F028FD0602059C46F011062D043CE0A3
S315080053A009F1FF33BB4228BF3B46012B38BF012317
S315080053B0D0F8F800DFB2800608D540F2FF3443483B
S315080053C01B06C0F88840B7D4C1E70127404BC5E79C
S315080053D0414B9821A3FB062303A8039304F002FD7F
S315080053E0039C3E4A361BA2FB06120190342104A8F0
S315080053F0049204F0F7FC049D0090761B302105A862
S31508005400059604F0EFFC019B009A1E02059B2C44AE
S3150800541046EA0216324D06431C44324B40F69702C2
S3150800542018682B21003818BF0120FEF74DFBFA2219
S315080054302C4B02FB04F01B6840F6FF72B0FBF3F03E
S315080054400A235843214B00F57A74C3F8D820A3F5EC
S315080054508053C3F8D860A3F58053C3F8DC50224BB9
S31508005460224E1B78C6F8D4700BB9C6F8FC7086F8BD
S31508005470FB9000F58C50C8F8A8501D4D14302C60D0
S3150800548001F028FB4FF47A72C6F89800C6F8EC00CB
S315080054902B680D49B3FBF2F3ABF80430084BB4FBA9
S315080054A0F2F083F800A098F82B300B702AE7002555
S315080054B06BE700BF004001B888130020BF12002028
S315080054C049140020004F00B048140020006001B8BD
S315080054D0005001B8C410002069C2F568B97A146E84
S315080054E03064FC00A8100020BD120020003F00B068
S315080054F0AC1000204014002010B5104B0246187856
S315080055000F4C0C2802D1FF20207010BD831F042BDE
