S01B00004E6574416E616C797A65725F464732335F5630312E73333705
S3150800000000080020CD0D000831960008319600083A
S3150800001079A1000831960008319600083196000843
S315080000203196000831960008319600083196000886
S315080000303196000831960008319600083196000876
S315080000403196000831960008319600083196000866
S315080000503196000831960008319600083196000856
S31508000060319600083196000831960008950C00086C
S31508000070850C00083196000831960008319600086C
S315080000803196000831960008319600083196000826
S315080000903196000831960008E514000831960008E4
S315080000A03196000831960008BD1000089510000822
S315080000B03196000831960008257E0008E188000878
S315080000C0B5A80008B1A8000895800008CBA80008C4
S315080000D0B9A80008B1880008BDA800084589000825
S315080000E07D89000831960008319600083196000887
S315080000F031960008319600083196000831960008B6
S3150800010031960008319600083196000831960008A5
S315080001103196000831960008319600083196000895
S315080001203196000831960008319600083196000885
S315080001303196000831960008319600083196000875
S315080001403196000831960008319600083196000865
S31508000150319600083196000889B4000889680008B5
S31508000160319600083196000857A800085DA80008CF
S3150800018070470000000000000000000000000000AA
S315080001900000000000000000000000000000000051
S315080001A00348044B834202D0034B03B118477047F8
S315080001B0BC240020BC24002000000000064B074990
S315080001C0C91A891048BF0131491003D0044B0BB135
S315080001D001481847704700BFBC240020BC240020F3
S315080001E00000000010B5064C237843B9FFF7D8FF86
S315080001F0044B13B10448AFF300800123237010BDEC
S31508000200FE2200200000000034F3000808B5054B64
S315080002101BB105490548AFF30080BDE80840FFF764
S31508000220CDBF00BF00000000400A002034F30008DC
S31508000230A3F5803A704700BF174B002B08BF134B36
S315080002409D46FFF7F5FF00218B460F461348144AD3
S31508000250121A0AF081FB0E4B002B00D098470D4B63
S31508000260002B00D098470020002104000D000D48FF
S31508000270002802D00C48AFF3008008F091FD20005A
S31508000280290009F0F5F808F06BFD00BF000008002A
S315080002900000000000000000000800200008002000
S315080002A040230020000000000000000000B583B0D5
S315080002B00B4B4FF080625A66012304220921022063
S315080002C002F05EFB0023019302E0019B01330193D8
S315080002D0019A49F63F439A42F7D903B05DF804FB01
S315080002E00090005030B587B000F0D2F8042143489A
S315080002F009F0A6F80023ADF81030ADF8143005A9BA
S3150800030004A800F023FA002830D03D493D4809F0FA
S3150800031097F842F6B112BDF810103B4809F090F86C
S315080003204FF20852BDF81410384809F089F800232E
S31508000330ADF80E300493059305AA04A90DF10E0035
S3150800034000F004FBA0B12E494EF67D330193BDF8AB
S315080003500E3000934FF40C73049A2D4809F070F888
S31508000360059B0BB1049B2BB907B030BD2949CDE7D6
S315080003702849E9E7284809F063F80AF02FFE0546F8
S315080003800499059800F0B6F80AF028FE04462348B2
S3150800039009F056F80AF03CFE641B054660B3E20E07
S315080003A063011B1B62F10002520242EAD3525B024E
S315080003B01B1942F10002910141EA93619801C01AA2
S315080003C061EB020100192A464FF0000341F10001D2
S315080003D008F036FB034622461149124809F030F860
S315080003E000F0A0F8044600F097F80346224629468E
S315080003F00D4809F025F8B7E70346ECE710B50008FD
S3150800040000B5000860B500087CB50008A4B500086A
S31508000410CCB5000808B500080CB600081CB60008DC
S315080004202CB6000838B6000878B6000831B300B50F
S315080004308E46144B1B889BB2134A128892B29B1A9B
S31508000440C3F30A03C3F5FF6307338B4218D30D4B77
S315080004501B889BB2002208E010F802C00B4901F87D
S3150800046003C00133C3F30A0301327245F4D3BFF361
S315080004705F8F044A138001205DF804FB0120704752
S315080004800020F9E7E2220020E02200205C0A002092
S315080004900023034A1380034A1380034A13607047F4
S315080004A0E2220020E0220020580A00200CE00D4A33
S315080004B013889BB20C49C95C0C4B596413889BB2D0
S315080004C00133C3F30A031380064B1A8892B2084B0A
S315080004D01B889BB29A4204D0044B9B6C13F0400FC6
S315080004E0E5D17047E02200205C0A00200000015B8D
S315080004F0E222002060B110B50C4601B910BDFFF725
S3150800050095FF0028FAD1034A136823441360F5E7D8
S31508000510704700BF580A0020014B1868704700BF93
S31508000520580A0020044B188880B2044B1B889BB2DB
S31508000530C01AC0F30A007047E2220020E022002019
S31508000540F0B597B00023059305AB402206A92B48C2
S31508000550006809F06FFB10B90446059B8BB917B004
S31508000560F0BD9DF80850BDF80A60BDF8107000F09F
S31508000570EBFA00903B4632462946214808F060FFD0
S315080005800134059BA342EAD902A904F158036B4436
S3150800059013F8400C00F020FA01380428F0D801A31B
S315080005A053F820F063050008D3050008E1050008A4
S315080005B0B9050008EF050008BDF81050BDF812602F
S315080005C000F0C2FA0346324629460E4808F038FFBC
S315080005D0D6E700F0B9FA01460B4808F031FFCFE735
S315080005E000F0B2FA0146094808F02AFFC8E700F009
S315080005F0ABFA0146064808F023FFC1E7A42300200A
S31508000600ACB60008E4B6000818B7000854B70008E6
S3150800061084B7000838B5FFF749FF0AF0DFFC0F4B2F
S315080006201A685B68904271EB030302D2FFF788FFF2
S3150800063038BD05460C460A4B196801311960094848
S3150800064008F0FEFE4FF47A700AF0E8FC401944F10F
S315080006500004024B18605C60E8E700BF0008002051
S315080006605C120020A4B7000810B414460CE0094B2D
S31508000670A3FB01C3DB089C4603EB8303A1EB4303FF
S31508000680013C303303556146002CF0D110445DF827
S31508000690044B7047CDCCCCCC13467AB110B401F0DC
S315080006A00F0C013B064C14F80CC000F803C00909EE
S315080006B0002BF4D110445DF8044B70471044704782
S315080006C0D0B7000838B51D4A1368013313600124F2
S315080006D008E0012B18D9631C194AD35C542B13D094
S315080006E00134A4B2174B1D88A5420DD9144B1B5DC6
S315080006F0532BF5D12B1B9BB2052BEAD91048204466
S3150800070008F00CFF0028EBD0A54205D800230D4AB7
S3150800071013800D4A137038BD2D1BADB208482A4602
S3150800072001190AF0FFF8074B1D80012D03D9022293
S31508000730054B1A70EFE70122FAE700BF60120020A6
S3150800074064120020E4220020FF22002070B506462D
S315080007500D4609210C4808F006FF044603210B48FC
S3150800076008F001FF06B1348005B1288042F6B113BE
S315080007709C4201D0002070BD4FF20853984201D028
S315080007800020F8E70120F6E7C4B70008C0B700085C
S31508000790002800F0CC802DE9F04715460746002AC8
S315080007A000F0C780B1F50C7FC0F0C580B2F818A07C
S315080007B05369002B6AD0BAF1F30F6AD8B8465323A7
S315080007C008F8023B54237B70BE1D52237B710A2214
S315080007D029683046FFF748FF2C2400F8014B03220E
S315080007E0A988FFF741FF0470B5F90610002953DB05
S315080007F02B2343700029B8BF4942032289B202302D
S31508000800FFF732FF2C2400F8014B0322297AFFF761
S315080008102BFF00F8014B6B7A002B3FD04849042286
S3150800082008F030FE2C2400F8014B0222A97AFFF7C3
S3150800083033FF00F8014B0222E97AFFF72DFF00F893
S31508000840014B0222297BFFF727FF00F8014B022202
S31508000850697BFFF721FF00F8014B0422E989FFF7BE
S315080008601BFF00F8014B0222297CFFF715FF00F851
S31508000870014BD14603225146FFF7F6FE00F8014B1D
S31508000880831B352B5AD1044600231DE04FF0000A7E
S3150800089094E74FF0F30A91E72D23AAE72949BEE723
S315080008A06A69D25C1209DFF8A0C01CF80210224659
S315080008B002F8021B6969C95C01F00F011CF80110F6
S315080008C0617001339BB214469A45E9D802E02023A9
S315080008D004F8013B231AB3F5F37FF8D34FEA49012D
S315080008E0032235314046FFF7BFFE02E0202304F815
S315080008F0013BA31BB3F5077FF8D3002303E02022AF
S3150800090004F8012B0133072BF9D94FF40A71404635
S3150800091008F029FE014604222046FFF7BDFE0346DD
S31508000920452203F8022B44224270D81B04E000201B
S315080009307047002000E00020BDE8F0870020FBE7B4
S31508000940B4B7000808B50008D0B70008F0B589B0F4
S3150800095007460E4615460DF1040C1C4C0FCCACE8A8
S315080009600F0094E807008CE8070001AA4FF40C7101
S315080009701748FFF70DFFB0F50C7F1CD0002207B112
S315080009803A8006B130600DB1114B2B60B0F50C7F83
S3150800099014D0002009B0F0BD303B9BB243EA0212E6
S315080009A092B201310329EADC0A4B5B5C402BF3D98E
S315080009B0373B9BB2F2E700210A46F3E74EF67D3352
S315080009C09A4201D00020E5E70120E3E7E4B70008F2
S315080009D094140020BE1600200346574A107848B3E0
S315080009E070B582B00C4601282FD054490A88551C88
S315080009F0ADB20D8052498B54062D41D0B5F50C7F0A
S31508000A00C0F0978044B14E4B5A7922700633636022
S31508000A100023638023816381494B93F82E32452B4B
S31508000A2004D1474B93F82F32442B3BD0FFF74AFEAD
S31508000A30032013E0532B00D07047414A137001235B
S31508000A403E4A13803C4A13707047542B08D0532BE8
S31508000A500FD00020394B1880374B187002B070BD84
S31508000A60374A53700223354A1380334A13700020DD
S31508000A70F4E7334A1370314B01221A800020EDE760
S31508000A80084608F04BFD0028B8D13CB12C4B5B79E1
S31508000A90237000236380636023816381FFF712FE5E
S31508000AA00220DBE7274E4FF40A71304608F05BFD5B
S31508000AB005460023ADF806300DF1060106F50A7065
S31508000AC008F0FCFC1CB12581BDF80630638130B105
S31508000AD0BDF80630AB4202D1022200230CE0FFF734
S31508000AE0F1FD0420BAE703EB83035B009BB20344E2
S31508000AF09BB2303B9BB20132042A0ADC1049885C5F
S31508000B00A0F13001C9B20929EDD9FFF7DBFD0520AF
S31508000B10A4E7B3F5077F08D804B163800023074A22
S31508000B201380054A1370012098E7FFF7CBFD0520CF
S31508000B3094E7002092E700BFFF220020E42200206D
S31508000B406412002066120020014B1868704700BF27
S31508000B50601200200023062073B1704754B224B9EE
S31508000B60013353B15DF8044B70470228F8D0086882
S31508000B700A4908601046F3E710B4094A52F82310E8
S31508000B800A7A022AEAD9032AEAD1441EE4B2012CD7
S31508000B90E6D90868014908601046E1E7C41600204E
S31508000BA07C23002010B5A2B0202200211AA809F043
S31508000BB0D3FE2B4B1A934FF4E1331C9302238DF883
S31508000BC07530284A1E9201248DF87D408DF87E40A6
S31508000BD08DF87F408DF88030002115911691179178
S31508000BE0189119914FF4801315931F4B199310916F
S31508000BF011911291139114911C4B10931C4B149341
S31508000C003C2201A809F0A8FE0DF1040E0DF1540CC2
S31508000C10BCE80F00AEE80F00DCF80030CEF8003074
S31508000C200DF1180E0DF1400CBCE80F00AEE80F00F0
S31508000C30DCF80030CEF800300E4B0B934FF480638F
S31508000C400C938DF835408DF836400B4B0F930B4BB4
S31508000C501AAA01A90A4802F0EBFB22B010BD00BF90
S31508000C60D8BF0008C8BF00083C00015B010010009F
S31508000C704400015BC816002090230020C81A0020F3
S31508000C807C1B002008B5024809F061F808BD00BFC2
S31508000C907C1B002008B5024809F059F808BD00BFBA
S31508000CA07C1B002010B58EB02422002105A809F06F
S31508000CB053FE334B0593334B1B88ADF82430324B28
S31508000CC01B88ADF82630314B1B680B93304B1B68DD
S31508000CD00C93304A05A9304803F0A8F800B1FEE79E
S31508000CE02E4B1C682E4A21462B4B186803F054F9E4
S31508000CF000B1FEE74CB12146274B186809F0C9FA3E
S31508000D0001464FF6FF73984206D10021224B186818
S31508000D1008F06EFF38B1FEE71F4B186803F080FA3B
S31508000D200028F2D0FEE71F491B4B186803F0BCFAEF
S31508000D3000B1FEE76FF0C00240F2FF33CDE90023B1
S31508000D404FF0FF324FF0FF331349086809F0EAFA0B
S31508000D5000B1FEE7144B1B88ADF81030ADF80C3027
S31508000D6004A90D4B186809F0C5FA00B1FEE703A9F6
S31508000D70094B186809F0D4FA00B1FEE70EB010BDA9
S31508000D802196000832C0000830C0000838C00008A4
S31508000D9034C0000803960008A82300206C2300200E
S31508000DA00D9600080700110020BE000808B5044883
S31508000DB0044A121A9210044908F03BFC08BD00BF09
S31508000DC080010008A00100084023002008B5154B43
S31508000DD083F30A8800F030F8FFF7E8FF124A0AE0C2
S31508000DE01068516850F8230041F8230001339168D0
S31508000DF08B42F5D30C320D4B9A4201D20023F6E70B
S31508000E000B4A08E01168002041F8230001335168B5
S31508000E108B42F7D30832074B9A4201D20023F6E7F2
S31508000E20FFF70AFA000000203CF3000848F3000820
S31508000E3048F3000848F3000870B5134B134A9A6044
S31508000E40D3F8882042F47002C3F88820104A4FF479
S31508000E50804191660F4D05F500544FF0FF3222662A
S31508000E600D4A62660222C3F8D020BFF34F8FBFF344
S31508000E706F8F002002F09AFA4FF44036E6600020A1
S31508000E8008F0D0FE2E6170BD00ED00E000000008FD
S31508000E9000900050008000447FFF7F01014B1860DE
S31508000EA0704700BFB023002008B5064B1860064BF4
S31508000EB01B6F03F00703032B00D008BD09F09AFE49
S31508000EC0FBE700BFB82300200080005010B5044699
S31508000ED00FE00123834024EA03040F2814D800EB0B
S31508000EE040020E4B03EB82035A6812B19968C0B2EE
S31508000EF0904794B1234600201F28EAD813F0010F23
S31508000F00E7D101305B08F7E7103800EB40039B0098
S31508000F10B033024A13440433E6E710BD981B002099
S31508000F2008B50D480AF07DF91A2002F02FFA28B9FB
S31508000F301B2002F02BFA40B9002008BD1A2002F047
S31508000F4035FA1A2008F06EFEF2E71B2002F02EFA98
S31508000F501B2008F067FEEFE7C4BF00082DE9F04143
S31508000F6070B30C46174605460F292BD803784BB1A4
S31508000F70022B20D0032B21D0012B01D0002303E024
S31508000F800F2301E040F2FF736A78D34013F0010F94
S31508000F901AD00F4BD3F81063C6B90AF035F9804654
S31508000FA03A462146284601F033FE40460AF027F91C
S31508000FB03046BDE8F08140F2FF33E5E73F23E3E73B
S31508000FC02226F5E72126F3E72126F1E70226EFE7B1
S31508000FD000C0035040B310B5044603784BB1022B4A
S31508000FE01DD0032B1ED0012B01D0002303E00F23B5
S31508000FF001E040F2FF736278D34013F0010F15D079
S315080010000AF002F9237862780121914003EB430341
S315080010101B01074AD1500AF0F2F8002010BD40F231
S31508001020FF33E8E73F23E6E7222070472120F5E76C
S3150800103040D0035040B310B5044603784BB1022B99
S315080010401DD0032B1ED0012B01D0002303E00F2354
S3150800105001E040F2FF736278D34013F0010F15D018
S315080010600AF0D2F8237862780121914003EB430312
S315080010701B01074AD1500AF0C2F8002010BD40F201
S31508001080FF33E8E73F23E6E7222070472120F5E70C
S3150800109040E0035008B5084BD3F82404D3F82024BD
S315080010A0104000F0553020F0502003F50053C3F8E7
S315080010B02004FFF70BFF08BD00C0035008B5084B16
S315080010C0D3F82404D3F82024104000F0AA3020F0E6
S315080010D0A02003F50053C3F82004FFF7F7FE08BD68
S315080010E000C00350F0B585B00C4694469DF8341000
S315080010F0664A1278002A00F0BD800546BCF1070F43
S3150800110000F2BA800A9A002A00F0B8800B9A002AE0
S3150800111000F0B6800E9AB2F5006F00F3B38001288E
S315080011205BD05B4A02EB0C12127B002A00F0AC8003
S3150800113000220092019202920392564A02EB4C1E3A
S31508001140002C4FD14FEA4C1600209051CEF80400DF
S31508001150CEF80800CEF80C009EF8020040F0100009
S315080011608EF802009EF8030040F030008EF8030067
S3150800117021B9C1B241F003018EF8031000930E9B0A
S31508001180013B444A4FEA4C1002EB4C11165A63F3E2
S315080011900E1616520A9B8B600B9B4B60CB789DF8FC
S315080011A03C2062F38303CB70012D36D0109B002BB5
S315080011B056D0374A4FEA0C1102EB0C1310985050D0
S315080011C0119A5A6000249C605D73724669466046AF
S315080011D001F07AFC204605B0F0BD0C9A002AA0D191
S315080011E02D48F8E72B4F4FEA4C1607EB4C12002018
S315080011F0B85150609060D060907840F010009070C0
S31508001200D07840F00300D0700029B7D107EB4C1214
S31508001210C1B241F03001D170B0E70E460A7B42F008
S3150800122001020A73D2B242F002020A73CA680421A2
S3150800123061F39F02F26006F1100796E80F0087E84F
S315080012400F00F2696FF0030161F39F02F2610C9BD4
S315080012507361012CAAD10B9AB2610C9A7260A5E748
S31508001260002DA6D10B4B03EB4C139A786FF304129F
S315080012709A709EE70948AEE70748ACE70648AAE72A
S315080012800548A8E70448A6E70548A4E70023002080
S31508001290001E0020001D0020018000F0028000F0E2
S315080012A0078000F0134B1B78FBB110B50446F0B16C
S315080012B009F0AAFF0023072B13D80F4A02EB0312E3
S315080012C0127B0AB10133F6E723600B4A190102EBD8
S315080012D0031301241C730024545009F090FF204680
S315080012E002E009F08CFF054810BD0548704705481F
S315080012F0FAE700BF00230020001E0020048000F04B
S31508001300028000F0018000F038B509F07DFF044640
S315080013100023072B06DC0C4A02EB0312127B12B9D8
S315080013200133F6E7002222B1204609F068FF074894
S3150800133038BD01F075FB0025054B1D70204609F0E8
S315080013405EFF2846F4E700BF001E0020058000F077
S31508001350002300200F4B1B78BBB110B504460728A5
S3150800136015D809F051FF0C4B03EB04131B7B1BB973
S3150800137009F045FF09480BE0074B03EB041300246B
S315080013801C7309F03CFF204602E0054870470548F3
S3150800139010BD00BF00230020001E0020068000F0BC
S315080013A0028000F0018000F000B583B0134B1B6883
S315080013B0019300238DF8043009F026FF104B1B78A3
S315080013C033B90F4B01221A7009F019FF002309E0FF
S315080013D009F015FF0B480EE00B4A02EB0312002139
S315080013E011730133072BF7DD08238DF8073001A8A1
S315080013F001F03AFB002003B05DF804FB24BE0008A8
S3150800140000230020038000F0001E002010B5104CB9
S315080014102478BCB1072817DC0E4C04EB0014247B97
S31508001420A4B10C4C4FEA001E04EB001C44F80E3025
S31508001430029BCCF804300024CCF8084001F044FBA9
S31508001440204610BD0448FCE70448FAE70448F8E7D4
S3150800145000230020001E0020028000F0018000F01A
S31508001460078000F008B50A4B1B785BB107280BD834
S31508001470084B03EB00131B7B43B1002101F0E6FA8E
S31508001480002008BD0448FCE70448FAE70448F8E7E2
S3150800149000230020001E0020028000F0018000F0DA
S315080014A0078000F008B50A4B1B785BB107280BD8F4
S315080014B0084B03EB00131B7B43B1012101F0C6FA6D
S315080014C0002008BD0448FCE70448FAE70448F8E7A2
S315080014D000230020001E0020028000F0018000F09A
S315080014E0078000F0F8B5194B1F6D5B6D1F4002D4DD
S315080014F00125002402E0FEE701346D00072C24D8FC
S315080015003D42F9D0124B1D652301124AD358002BD0
S31508001510F2D002EB0416B1680131B1607268204658
S31508001520984780F00100C0B2737B012BE4D10028F4
S31508001530E2D0094B03EB44131A7B6FF341021A738B
S315080015401A7F6FF341021A77D6E7F8BD00000450F8
S3150800155000200450001E0020001D002038B5054656
S315080015600C46164BD3F8283103F00703013B052B2D
S3150800157020D8DFE803F003131B0F0B1709F014FB41
S31508001580052305B1286004B1236038BD09F00CFBBA
S315080015900623F6E709F052FB0723F2E709F044FBB6
S315080015A00323EEE709F040FB0423EAE709F038FBDA
S315080015B00223E6E700231846E3E700BF0080005051
S315080015C030B583B005460C4600230193154BD3F876
S315080015D0203203F00703042B21D8DFE803F0030BBE
S315080015E011161B0001230DB1019A2A6004B123606C
S315080015F003B030BD002101A8FFF7B0FF1123F2E7C1
S3150800160009F01CFB01900723EDE709F0E9FD0190BD
S315080016100A23E8E709F05CFB01900923E3E70023C6
S31508001620E1E700BF0080005038B505460C460F4B71
S31508001630D3F8503203F00303022B12D0032B08D041
S31508001640012B0AD00023184605B1286004B123608F
S3150800165038BD09F0C8FD0B23F6E709F0C1FD0A23DA
S31508001660F2E709F035FB0923EEE700BF00800050DA
S3150800167038B505460C460C4BD3F8903203F00303F5
S31508001680012B05D0022B07D109F0D8FA072305E06C
S3150800169009F0C6FA022301E00023184605B12860BE
S315080016A004B1236038BD00BF00800050024B4FF4E0
S315080016B080321A67704700BF00900050204B98424E
S315080016C036D009D91F4B984236D01F4B984222D1A3
S315080016D01E4BD3F8D0007047A3F5B703A3F558639C
S315080016E0984221D006D91A4B984212D1174BD3F8F3
S315080016F0BC007047174B984202D0174B984203D14B
S31508001700124BD3F8A0007047144B9842F8D000202B
S31508001710704700207047124B984203D10B4BD3F801
S31508001720C800704700207047084BD3F8B8007047C8
S31508001730064BD3F8C0007047044BD3F8CC0070476B
S31508001740C0EA21010048E801005A62020080E00F61
S315080017500024F40080841E0000093D0040420F006A
S3150800176080BA8C0138B505460C46104BD3F80001F3
S3150800177000F00300032815D8DFE800F002080C1073
S31508001780012305B1286004B1236038BD09F04CFA7D
S315080017900323F6E709F09CFA0923F2E709F04AFA67
S315080017A00823EEE700231846EBE700BF0080005049
S315080017B038B505460C46174BD3F8200100F007004C
S315080017C0062823D8DFE800F0040A0E16121A1E00AF
S315080017D0012305B1286004B1236038BD09F0E4F996
S315080017E00523F6E709F020FA0323F2E709F026FABB
S315080017F00723EEE709F014FA0223EAE709F0D4F919
S315080018000623E6E709F010FA0423E2E70023184660
S31508001810DFE700BF0080005038B505460C46104B80
S31508001820D3F8400100F00300032815D8DFE800F0DC
S3150800183002080C10012305B1286004B1236038BDE5
S3150800184009F0CEFC0A23F6E709F042FA0923F2E783
S3150800185009F0C9FC0B23EEE700231846EBE700BFA7
S315080018600080005030B583B005460C46002301932E
S31508001870144BD3F8603203F00703013B032B1FD840
S31508001880DFE803F0020E1914002101A8FFF790FF04
S315080018900F230DB1019A2A6004B1236003B030BD4D
S315080018A0002101A8FFF7B8FF1023F2E709F0C6F9EF
S315080018B001900723EDE709F0B3F901900223E8E761
S315080018C00023E6E70080005030B583B005460C4695
S315080018D0002301930C4BD3F8703203F00303012B5A
S315080018E009D0022B0DD114230DB1019A2A6004B137
S315080018F0236003B030BD002101A8FFF78DFF102338
S31508001900F2E70023F0E700BF0080005038B505462F
S315080019100C46104BD3F8600100F00300032815D8D5
S31508001920DFE800F002080C10012305B1286004B1B5
S31508001930236038BD09F054FC0A23F6E709F0C8F914
S315080019400923F2E709F04FFC0B23EEE700231846BC
S31508001950EBE700BF00800050324B984252D029D89E
S31508001960314B984248D009D9304B984247D0304B32
S3150800197098421DD12F4BD3F8800070472E4B9842C2
S3150800198037D005D92D4B984210D12A4B186F70477E
S315080019902B4B984202D02B4B984202D1254B986D7F
S315080019A07047294B9842F9D00020704700207047AD
S315080019B000207047254B98422CD00CD9244B9842CE
S315080019C02CD003F5740303F5105398420FD1194B25
S315080019D0D3F8980070471F4B984217D01E4B984271
S315080019E003D1144BD3F88C007047002070470020B1
S315080019F07047104B586E70470E4B586F70470D4B1B
S31508001A00986F70470B4BD3F884007047094BD3F88F
S31508001A1088007047074BD3F890007047054BD3F8FA
S31508001A20940070470048E8010024F400C0EA210148
S31508001A3080BA8C010080E00FC0CF6A00405DC60006
S31508001A4080841E0000093D0040420F00007E5603B8
S31508001A500090D00380D54302006CDC0270B582B0DA
S31508001A6006460D4600230193104BD3F8804104F037
S31508001A700304022C16D0032C0FD0012C07D0002407
S31508001A800EB1019B336005B12C6002B070BD002118
S31508001A9001A8FFF78DFE0F24F2E709F0CFF80190B1
S31508001AA00724EDE709F0BCF80190E9E7008000504B
S31508001AB038B505460C46104BD3F8400200F0030033
S31508001AC0032815D8DFE800F002080C10012305B139
S31508001AD0286004B1236038BD09F082FB0A23F6E7C3
S31508001AE009F0F6F80923F2E709F07DFB0B23EEE788
S31508001AF000231846EBE700BF0080005038B50546BE
S31508001B000C46134BD3F8000200F0070004281BD834
S31508001B10DFE800F003090D111500012305B128605F
S31508001B2004B1236038BD09F05BFB0A23F6E709F028
S31508001B30CFF80923F2E709F056FB0B23EEE709F085
S31508001B4059F8800A0E23E9E700231846E6E700BF9E
S31508001B500080005038B505460C46134BD3F80802EA
S31508001B6000F0070004281BD8DFE800F003090D1170
S31508001B701500012305B1286004B1236038BD09F0BA
S31508001B802FFB0A23F6E709F0A3F80923F2E709F081
S31508001B902AFB0B23EEE709F02DF8800A0E23E9E766
S31508001BA000231846E6E700BF00800050B0F5207F06
S31508001BB020D00ED8B0F5007F16D020D810B1B0F5D9
S31508001BC0C07F04D10F4B186FC0F3033018E0002014
S31508001BD016E0B0F5607F05D10A4BD3F88000C0F354
S31508001BE001100DE000200BE0064BD3F89000C0F37F
S31508001BF0046005E0034B186FC0F3802000E0002066
S31508001C00013070470080005038B505460C46174B22
S31508001C104FF480329A660020FFF7C8FF05FB00F0F4
S31508001C20134BDA6902F4803241F67131D9635B6885
S31508001C3023F440136CB90F49884207D800210B4397
S31508001C400B494B600AB10022CA6338BD4FF48011B4
S31508001C50F5E7002C07DD0849884201D80021EEE7A0
S31508001C604FF48011EBE74FF44011E8E7009000507D
S31508001C7000000350005A6202002D3101430905D0C5
S31508001C80012B0DD0022B0DD0002200E0002200F01F
S31508001C901F0049B102F58052012383401360704743
S31508001CA0034AF4E7034AF2E702F50052F4E700BFF5
S31508001CB0648000506880005008B5802007F030FD29
S31508001CC0034B984203D8034B4FF480321A6708BD7A
S31508001CD0005A620200A0005000B583B000230193A9
S31508001CE0B0F5807F00F0AF8011D9B0F5086F00F02D
S31508001CF0B48044D9B0F5286F00F0C38069D9B0F52F
S31508001D00306F79D101A90020FFF7B2FC75E0802871
S31508001D1073D8242871D324385C286ED8DFE800F0FD
S31508001D204C4C4C4C4C6D446D98546D6D6D6D6D6D91
S31508001D306D6D6D6D6D986D6D6D39A76D6D6D6D6D94
S31508001D406D6D6D6D6D6D6D6DAC4C6D6D6D676D6D9D
S31508001D505FB1A277776D6D6D6D6D6D6D6D6D6D6D26
S31508001D606D6D6D6D6D6D6D6D6D6D6D6D6D6D6D6D95
S31508001D706D6D6D6D6D6D6D6D6D6D6D6D7C00B0F518
S31508001D80C06F65D00AD9B0F5E06F70D0B0F5F06FC6
S31508001D9017D101A90020FFF7B9FD2EE0B0F5A06F15
S31508001DA060D0B0F5B06F04D101A90020FFF756FE48
S31508001DB023E0B0F5806F20D101A90020FFF7F8FCD9
S31508001DC01BE0B0F5D06F18D101A90020FFF796FEE9
S31508001DD013E0B0F5186F4FD0B0F5206F04D101A904
S31508001DE00020FFF73FFD08E0B0F5106F05D101A907
S31508001DF00020FFF7AFFE00E003D2019803B05DF8BC
S31508001E0004FBB0F5386F23D0B0F5406FF5D101A9C2
S31508001E100020FFF7A3FBF0E71C4B1B6F03F007033B
S31508001E20013B032BE9D8DFE803F00B02050805237D
S31508001E300193E2E703230193DFE708230193DCE735
S31508001E4002230193D9E701A9002007F044FCD4E74F
S31508001E5001A90020FFF7E0FCCFE701A90020FFF762
S31508001E6081FCCAE701A90020FFF7AAFBC5E701A97B
S31508001E700020FFF71DFEC0E701A90020FFF7D4FBED
S31508001E80BBE701A90020FFF71FFDB6E70080005059
S31508001E90094B596E03F580534FF480325A66074A48
S31508001EA0536A23F00103536211F4803F03D1044BB4
S31508001EB04FF480325A6670470080005000C00750C1
S31508001EC000A0005038B504468020FFF705FF032818
S31508001ED000F0B580604B4FF480125A665F4B45F6AA
S31508001EE00E02C3F8802003F580524FF0A06191627C
S31508001EF003F500534FF480329A62584B9B6D13F4E6
S31508001F00803FFAD1554B9B6D13F0804FFAD122686A
S31508001F1063681B0543EA0263227B43EA0243627B4A
S31508001F2043EA0233A27B43EA8213E27B13434B4D17
S31508001F302B61AB6903F00043226943EA8263626955
S31508001F4043EA0263227E43EA0243627E43EA0223AD
S31508001F50A27E1343AB614FF400624FF440614048E0
S31508001F6007F0A0FB2B6A23F00F03E269002A46D18B
S31508001F7011460B43E17E43EA81031A43374B1A6243
S31508001F80E369002B3DD1354A916A364B0B4094F8EC
S31508001F90201043EA411394F8211043EA011394F8F8
S31508001FA0241043EAC10343F4803393622B4B9A6DA2
S31508001FB02D4B9343FAD1294A02F580514FF080738D
S31508001FC08B62136923F47003A06843EA0053136114
S31508001FD04FF000438B6194F822301BB9234B4FF026
S31508001FE080729A6294F8233013BB204B4FF48032E8
S31508001FF09A621A4B9B6D13F0804FFAD118E00821AC
S31508002000B7E7022B1CD0154A916A164B0B4094F879
S31508002010201043EA411394F8221043EA016394F826
S31508002020241043EAC10394F8231043EA0143936258
S3150800203094F825301BB1094B0D4AC3F8802038BDEA
S31508002040064B00221A619A614FF408524FF47F41F9
S31508002050084807F027FBD6E7009000500040005AD2
S315080020603840005AC7FFFEFE030001000060005A10
S31508002070F1A7FFFF3440005A014B93F9000070475F
S31508002080A6240020014B1880704700BF9C2400201E
S31508002090B0F5207F48D02DD8B0F5007F39D04CD880
S315080020A010B1B0F5C07F24D110B54C1E07F031FB36
S315080020B007F01CFDFFF7FAFA204A136F23F4704362
S315080020C043EA0433136708F095FD1D4BD3F88430B3
S315080020D013F0100FF9D11A4BD3F88410C1F38111FC
S315080020E0C1F1020107F0F7FC00F040F8FFF7E4FD44
S315080020F010BD7047B0F5607F0AD101390F4AD2F892
S31508002100803023F0300343EA0113C2F88030704769
S3150800211070470139094AD2F8903023F0F85343EA58
S315080021200163C2F8903070470139044A136F23F4EB
S31508002130806343EA81231367704770470080005025
S315080021400040005008B50121022000F0F3F84FF4D2
S315080021502070FFF72BFD044B187007F0DAFA07F02A
S31508002160C5FCFFF7A3FA08BD0123002008B54FF404
S31508002170C07007F0D5FA054B984205D902214FF4ED
S315080021802070FFF785FF08BD0121F8E780F0FA0205
S3150800219010B5044608F02EFD0F4BD3F8843013F023
S315080021A0100FF9D10C4BD3F88410C1F38111C1F18A
S315080021B0020107F090FC0121002000F001F924B18A
S315080021C0FFF7D4FFFFF778FD10BD044B19784FF4DD
S315080021D02070FFF75DFFF5E700400050012300205F
S315080021E070B50446FFF7B8FB0546364B4FF4C022D8
S315080021F05A6603F598335B68012B29D08020FFF7D0
S315080022006BFD05282DD025F040752F4B9C422FD00D
S315080022102E4B9C422FD008F0C7FC064684422DD888
S315080022202B4BDB6813F0060FFAD1294B9A689D6091
S315080022309B686B4013F4F81F25D0254B9A603446EB
S315080022408020FFF749FD052821D0B44235D970BD55
S31508002250204B01225A60204B5B6813F0020FFAD11B
S31508002260CCE707F056FA07F041FCFFF71FFACAE772
S3150800227045F00075CFE745F08075CCE7012120468B
S3150800228000F09EF8CCE72046FEF708FED8E708F0EF
S31508002290B1FC124BD3F8843013F0100FF9D10F4B61
S315080022A0D3F88410C1F38111C1F1020107F013FCC0
S315080022B0FFF75CFFFFF700FDC7E70121002000F0EC
S315080022C07FF8C4E70090005040420F0080841E004B
S315080022D00000015000E0015000C0015000400050CD
S315080022E010B50446FFF7EAF90A4B4FF400225A667E
S315080022F020F04070084A944206D0084A944206D014
S315080023004FF0B442906010BD40F00070F8E740F01E
S315080023108070F5E70090005040420F0080841E0050
S31508002320034AD36E23F0300301790B43D366704713
S3150800233000400050F8B50446204BD3F8843013F01B
S31508002340100FF9D11D4BD3F88430C3F381139C4287
S315080023502DD008F02FFC0646012C11D008F04BFFB3
S315080023600546164F07F500534FF000725A66204689
S3150800237007F0C3FB621E4FF4806393403B6706E099
S31508002380012107F0A8FBE9E70C4BD3F884300B4B87
S315080023905B6E13F0007F05D1084BD3F8843013F039
S315080023A0200FF1D0284608F021FF022C00D0F8BDF6
S315080023B00021304607F08FFBF9E700BF00400050C8
S315080023C010B50C46034650B1094A127812B1094AAB
S315080023D0934208D921460220FFF7ACFF10BD08F04A
S315080023E0E9FB0346F0E721460120FFF7A3FFF5E7DF
S315080023F0801E0020005A620238B52F4B4FF000426B
S315080024005A6603F50B235C6C04F001044AF6CD32D8
S315080024101A64E8B9294B5B6B13F00103FAD1274A12
S31508002420556815F0010539D002F5005201215160B1
S315080024301A462249096B11F0010F04D120498A4234
S3150800244001D80132F5E71E498A422FD81D4625E0F4
S3150800245000231A4A126B12F0080F04D0184A934246
S3150800246001D80133F5E7164A934221D8134B03F5F1
S3150800247000522021916203F5805301225A600023FD
S3150800248000E001330D4A926A12F0200F02D10C4A7D
S315080024909342F6D90A4A93420CD8002514B1074B41
S315080024A0084A1A6401F0D4FE284638BD0725F5E720
S315080024B00725F3E70725F1E700900050004009508B
S315080024C03F420F003254FFFF10B51A4B4FF000423F
S315080024D05A6603F50B235C6C04F001044AF6CD3208
S315080024E01A6443785B0043F00103134AD363134B22
S315080024F05B6B13F00B0FFAD1104A536823F4F87389
S31508002500817843EA01135360C178437943EA01238A
S3150800251093600179837943EA012313610078FFF711
S315080025206BFF14B1054B064A1A6401F091FE0120AF
S3150800253010BD00BF009000500040005000400950F8
S315080025403254FFFF10B50F2800D90F20124B5C6ECE
S3150800255003F580534FF000425A6603F50B235A6C75
S3150800256002F001024AF6CD3119640C4B5B6B13F08D
S31508002570800FFAD109490B6A23F00F0303430B6254
S315080025800AB1074A0A64002C03DB064B4FF00042E7
S315080025905A6601F05DFE10BD0080005000400950EB
S315080025A03254FFFF00A0005010B5134B5C6E03F5C4
S315080025B080534FF000425A6603F50B235A6C02F01B
S315080025C001024AF6CD3119640C4B5B6B13F0800F90
S315080025D0FAD10A490B6A23F4F85343EA00230B623B
S315080025E00AB1074A0A64002C03DB064B4FF0004287
S315080025F05A6601F02DFE10BD0080005000400950BB
S315080026003254FFFF00A00050084B98420AD0084BEE
S31508002610984209D003F58043984201D000207047BC
S315080026205820704756207047572070470000015BB6
S3150800263000000A5010B5044607F060FA042307E0C4
S3150800264004F5805304221A6104F500531A610B46F7
S31508002650591E002BF4D1202323610023E360A360D5
S3150800266041F202026261A3614FF4A0226262E36151
S315080026702362A362E3626363236504F50052024999
S31508002680D164236310BD00BFFF3F0D03F8B50446B0
S3150800269015460846E1B1A36813F0010F34D0666801
S315080026A0B0FBF5F0451E16F001062BD0636D13F04E
S315080026B0280FFBD1A36C13F0030F0FD1A36C13F0F3
S315080026C0010F1BD1A36C13F0020F19D1002706E0E6
S315080026D02046FFF799FF07F023F8DCE70527204691
S315080026E007F00CFA236923F07F4343EA0563236165
S315080026F046B33946204607F020FA23E00927EEE7D5
S315080027000627ECE70027EDE76368A36803F0E00314
S31508002710402B1DD017D9602B1ED0802B12D1012338
S31508002720400105FB03F3B0FBF3F020380B4A02EA3D
S31508002730C002636D13F0010FFBD12263636D13F0C2
S31508002740010FFBD1F8BD2BB1202BFBD10823E7E7FE
S315080027500623E5E71023E3E70423E1E7F8FF7F0014
S3150800276070B504460D461646436823B1636DC3F338
S315080027700B03002BFAD12046FFF75CFF636923F4AD
S315080027804C5323F00F036A7B1343EA8913432A8ABF
S3150800279013436361A36823F0804323F0E2032A7B93
S315080027A013432A7E13436A691343A360AB681BB9B4
S315080027B0A36843F00043A360EA69002A70D0A168C1
S315080027C0694B0B40117A43EA8153917A43EA4143B4
S315080027D0918801F4C0410B43517843EA8103517B48
S315080027E043EAC103917B43EA0113927843EA8223C1
S315080027F0A360E2685D4B1340EA6911690B435169AE
S315080028000B43917943EA8123D27943EA4223E36071
S31508002810EB691B78012B01D0032B03D1E36843F046
S315080028200403E360EB691B78023BDBB2012B51D949
S315080028304F4B9C426BD04F4B9C426AD003F580436A
S315080028409C4262D04FF0FF3303F593735B0103F1AB
S31508002850A04303F5703302225A60EB695A7A04F5ED
S3150800286080539A62EB695B7A1BB1E36843F40063B1
S31508002870E360EB69DB7A63B1E36843F40043E36042
S315080028803B4B9C4247D03B4B9C424BD03A4B9C42DD
S315080028904FD0636A23F00303EA69D27B134363626A
S315080028A03EB196F82030002B4AD004F58053012219
S315080028B01A6204F5805301225A60AA68002A4ED18A
S315080028C02978204607F039F9A36CDB4313F4405FF7
S315080028D0FAD170BD264B9C4213D0264B9C4212D08F
S315080028E003F580439C420AD04FF0FF33A6335B01C1
S315080028F003F1A04303F5703302225A60ADE70223C1
S31508002900F4E70023F2E70123F0E702239CE700231C
S315080029109AE7012398E7EB691B7B03F00F03174A35
S315080029205366B0E7EB691B7B03F00F03134A136783
S31508002930ACE7EB691B7B03F00F03104AD367A8E7E4
S31508002940E36923F0090396F82220134396F8212019
S31508002950134343F0010304F58052D361A9E769687C
S315080029602046FFF793FEABE7E39BBDFFFFF9F08731
S315080029700000015B00000A5000400A500090035016
S31508002980F8B504460D461E4617463AB1FBB1012274
S315080029908A4000EB400109011D4B5A50072D1ED8ED
S315080029A0A90004EB44031B0107FA01F20F2000FA01
S315080029B001F11848184407F0F7F83FB9FEB10122AB
S315080029C0AA4004EB44042401114B1A51F8BD012214
S315080029D08A4000EB400109010F4B5A50DEE7A5F18A
S315080029E008039B0004EB440C4FEA0C1C07FA03F29D
S315080029F00F2199400948604407F0D6F8DDE701221F
S31508002A00AA4004EB44042401034B1A51DEE700BF35
S31508002A1040D0035034C0035040E003503CC003503C
S31508002A2010B5162007F0FAF8074B00245C65FF225C
S31508002A309A625C6021462020FFF720F92146212072
S31508002A40FFF71CF910BD00BF0000045029B9044A5D
S31508002A50012303FA00F010607047024AF8E700BF46
S31508002A60401004504020045010B50446012120208F
S31508002A70FFF704F901212120FFF700F9114B012284
S31508002A805A60227812069A606178A27842EA014270
S31508002A909A61FF229A6200229A631A644FF00042F2
S31508002AA05A6503F500534FF0FF321A65162000F0F9
S31508002AB07DFCE178162007F0B9F8162007F0B2F881
S31508002AC010BD00BF0000045070B50C46C3B2012506
S31508002AD09D40214901F500531D65830003F1A0437C
S31508002AE003F5882326685E60637B00EB400C01EBE8
S31508002AF00C1CCCF8603094F80AE0E37A1B0543EA2C
S31508002B000E4394F80CE043EA4E53CCF85C3022F0BE
S31508002B100302CCF8702008F077FB104B5D65237A2A
S31508002B200BB10E4B1D64637A0BB10C4B9D63237975
S31508002B30A27942EA0342084B03F500518A6194F8E8
S31508002B4005C0E27942EA0C4203F58054A2614D635E
S31508002B509D6408F054FB70BD00000450001004503A
S31508002B6010B5C0B20124844008F04EFB044B5A6DE0
S31508002B7022EA04025A659C6208F041FB10BD00BFB8
S31508002B800000045010B5C0B20124844008F03CFB94
S31508002B90084BDB6A234205D1064B5B6B9C4306D088
S31508002BA0002400E0002408F02AFB204610BD01247A
S31508002BB0F9E700BF0000045070B50446C3B201250A
S31508002BC09D4008F021FB084B5E6B04EB440403EBC5
S31508002BD004135C6E08F013FB354203D1C4F30A10E4
S31508002BE0013070BD0020FCE700000450074B4FF48D
S31508002BF080325A6603F5E6239B69C3F38512827011
S31508002C0003F03F0242701B0B0370704700900050A0
S31508002C1070B504460D461646037841782C4AD2F814
S31508002C2010236A1E0E2A09D8DFE802F00A0A0A0AE1
S31508002C300A0A0A0A0A0A0A0A0A0A0A00002200E016
S31508002C402A463DB116B30120884003EB43031B0116
S31508002C502049C8506178072920D82378890003EBD2
S31508002C6043031B018A400F2000FA01F11A48184451
S31508002C7006F0A8FF4DB906B3237862780121914082
S31508002C8003EB43031B01134AD15070BD0120884052
S31508002C9003EB43031B011149C850DBE723780839C6
S31508002CA0890003EB43031B018A400F2000FA01F158
S31508002CB00B48184406F086FFDCE723786278012182
S31508002CC0914003EB43031B01044AD150DDE700BFE3
S31508002CD000C0035040D0035034C0035040E00350B6
S31508002CE03CC00350074B9B6813F0020FFAD1054B03
S31508002CF05B6813F0020FF5D1024BDB69002BF1D1AB
S31508002D00704700BF00800A50074B5B68064B5B683C
S31508002D1013F0010F03D0044BDB69002BF6D1024BED
S31508002D2002221A61704700BF00800A5008B5FFF7F3
S31508002D30D9FF034B03F5805101224A601A6108BD89
S31508002D4000800A5008B5054B5B68012B00D008BD0A
S31508002D50FFF7DAFF024B01225A60F8E700800A50B3
S31508002D6000A00A5010B50446FFF7BCFF084B5B6885
S31508002D70012B05D0237843B10122054BDA6010BD3B
S31508002D80FFF7E0FFFFF7AEFFF4E70022F5E700BF25
S31508002D9000800A5038B505460C4608F007F8DDB934
S31508002DA02378D3B10123626812B1127843EAC203C9
S31508002DB06278A2B102221343A26812B1127843EADA
S31508002DC08213E2786AB104221343226912B1127897
S31508002DD043EA4223044A936438BD0023E3E700220A
S31508002DE0E9E70022F0E700BF00800A5038B504463C
S31508002DF007F0C4FA864658B9064DA446BCE80F0043
S31508002E000FC5BCE80F000FC59CE8030085E8030062
S31508002E10704638BD841E002047F6FF739A427DD05F
S31508002E2009297DD870B5414B13F801E0BEF1030FAF
S31508002E3078D83F4B03EBCE0191F802C0604613F8F1
S31508002E403E30012B26D03A4B03EBCE035C68002CB0
S31508002E506AD0B4F90030934204DBB4F902309342E5
S31508002E6000DC1346A288FF2A2CD000212826C82277
S31508002E701D46D21A92FBF6F20A4412B22C4B03EB09
S31508002E80CE0393F801E0964501DD002A2FDA0EF10C
S31508002E90FF322CE0CB78A3EB0C0300249C420ED225
S31508002EA0191BA3EB5101224800EBCE00406830F90C
S31508002EB01100904201DC0C46F0E74B1EEEE7634436
S31508002EC0D8B230E0B4F90620B4F908600121CFE79A
S31508002ED05C331849A1FB03139B09013212B216464B
S31508002EE096450FDD04EBC201898899420AD304EBA3
S31508002EF0C2018B68B1F9061001FB0533002BE7DA2E
S31508002F000023E5E7013E04EBC604A2889A4200D3F3
S31508002F101A46944500D81046C0B204E0FF20704710
S31508002F2000207047002070BD0020FCE728BE00087E
S31508002F30841E0020D34D621009296FD83A4B5B5C7A
S31508002F40032B6DD8394911F8331001292AD010B44A
S31508002F50364901EBC3014C68002C63D0201D334968
S31508002F6001EBC3018978914234D2304901EBC301A0
S31508002F70C978914233D92D4901EBC30393F801C0AF
S31508002F800CF1FF3C5FFA8CFCA388FF2B2AD00023A8
S31508002F90634529D2591C30F83110914224D30133A4
S31508002FA0DBB2F5E7214901EBC301C978914200D2AA
S31508002FB00A461E4800EBC3008078121AD2B2091AD4
S31508002FC08A4200DD0022194901EBC3035B6833F925
S31508002FD012007047B4F902005DF8044B7047B4F963
S31508002FE00000F9E70123D3E74FF47A7101FB02F2F7
S31508002FF000EBC3004368D31AB0F9022002EBD27182
S3150800300003EB610393FBF2F3B4F900009842E3DBA8
S31508003010B4F902009842DFDC18B2DDE704487047CD
S31508003020034870470248D7E728BE0008841E0020D8
S315080030300080FFFF08B50348FFF7D8FE012007F018
S31508003040A1F908BD34BE000830B583B00446694608
S3150800305007F096F900B1FEE79DF80030134A12789A
S31508003060934217D00C2B06D164251049204607F049
S3150800307074F928B1FEE7204601F000F90546F4E7A1
S315080030802946204607F050F900B1FEE7074B1B78A2
S315080030900A2B01D003B030BD6946204607F070F907
S315080030A09DF80020014B1A70F4E700BFBC230020EE
S315080030B008B5024808F0B5F808BD00BFC0BF00084B
S315080030C010B58AB0EC46194C0FCCACE80F000FCC03
S315080030D0ACE80F0094E803008CE80300144BD3F81F
S315080030E04C3113F4002F05D0124B1C88FF2C05D940
S315080030F08C2403E00E4BD3F85041E4B28DF8194006
S31508003100FEF7BAFF241803D4FF2C02DDFF2400E0E3
S3150800311000248DF818400848FDF7C6FE6846FEF7F5
S31508003120D1FE3220FEF7AEFF0AB010BD8CBF0008F4
S315080031300080E00F0001E00FC017530208B50248EF
S31508003140FFF74EF808BD00BF00B4C40408B502482E
S31508003150FFF7C6F808BD00BFC0EA210110B5FEF7A3
S31508003160F1FF4E4C236F23F0070343F00303236755
S315080031700020FFF70DF8236F23F474432367484BA9
S31508003180D3F8FC3013F0807F75D1464B0022C3F884
S315080031908020424CD4F8203123F0070343F0020381
S315080031A0C4F82031D4F8283123F0070343F002038A
S315080031B0C4F82831D4F8803123F0030343F001031F
S315080031C0C4F88031D4F8903223F0030343F00103A6
S315080031D0C4F89032D4F8403123F0030343F00103D6
S315080031E0C4F84031D4F8603123F0030343F00103F7
S315080031F0C4F86031D4F8403223F0030343F00103E6
S31508003200C4F84032D4F8003223F0070343F0010330
S31508003210C4F80032D4F8083223F0070343F0010358
S31508003220C4F80832D4F8503223F0030343F00103FC
S31508003230C4F85032D4F8703223F0030343F0010384
S31508003240C4F87032D4F8203223F0070343F00103A0
S31508003250C4F82032FEF71CFE4FF0E022136943F053
S3150800326004031361D4F8603223F0070343F0010323
S31508003270C4F8603210BD0A4BD3F8FC2022F08072E5
S31508003280C3F8FC20074A0021C2F88010D3F8FC20B6
S3150800329042F08072C3F8FC207BE700BF0080005034
S315080032A000ED00E00090005008B5074807F0B9FFA8
S315080032B0FFF706FFFFF742FFFFF748FFFFF7F8FEA5
S315080032C0FFF74CFF002008BDBCBF000800B583B05F
S315080032D0094B93E803000090ADF80410090C8DF82B
S315080032E006106846FFF7F0F80920FFF72BF90020CB
S315080032F003B05DF804FB00BFB4BF000810B582B088
S31508003300074A536F43F001035367002400948DF86E
S3150800331004406846FFF704F8204602B010BD00BF17
S3150800332000400050002808DB0901C9B200F16040DE
S3150800333000F5614080F80013704700F00F0009019E
S31508003340C9B2014B1954704714ED00E0002807DB99
S3150800335000F01F02400901239340024A42F8203038
S31508003360704700BF00E100E000280CDB00F01F02F8
S315080033704009012393402030034A42F82030BFF326
S315080033804F8FBFF36F8F704700E100E04211064B85
S3150800339053F8223000F01F0023FA00F080F00100F5
S315080033A000F00100704700BF00E100E0002808DBDC
S315080033B000F01F024009012393406030014A42F899
S315080033C02030704700E100E010B507F01DFF0B4BF9
S315080033D01B783BB9094B01221A7007F010FF6FF0F2
S315080033E0040408E007F00BFF07E00521204606F075
S315080033F01DFC013464B24B2CF7DD10BD02230020FE
S3150800340010B5044607F0F7FE024B1C6007F0EEFE07
S31508003410002010BDAC1E002010B507F0ECFE034BD3
S315080034201C6807F0E3FE204610BD00BFAC1E002056
S315080034302DE9F0418EB007460E4614461D46136820
S31508003440D3F8008091F83130002B48D00DF1180CD4
S31508003450DFF830E2BEE80F00ACE80F009EE80F0088
S315080034608CE80F00002300930193029303930493BF
S315080034700593A3680893237B012B3DD0022B3ED1ED
S315080034804FF44073ADF82630607B06F0F4FBADF8D8
S315080034902800CDF834D001238DF80630A37B022B03
S315080034A004D0032B02D0012B00D000238DF8003066
S315080034B0B36B6E4A1A60B36B6D4A5A60B36B0022DF
S315080034C09A60B36B6B4ADA6032462946384600F092
S315080034D0AFFA0746A8B138460EB0BDE8F0810DF13F
S315080034E0180CDFF8A4E1BEE80F00ACE80F009EE870
S315080034F00F008CE80F00B5E74FF40073C2E700230E
S31508003500C0E72369C5F8A430237E85F8AB30E37D90
S3150800351085F8AA30A37D85F8A930637D85F8A8309B
S31508003520A37E85F8AD30637E85F8AC30237F85F8B9
S31508003530AF30E37E85F8AE302368C5F8A0304E4834
S3150800354007F06FFE01230422A17D607DFFF718FABC
S3150800355001230222217EE07DFFF712FA002385F877
S31508003560B030206907F05DFE96F83130002B5DD04B
S3150800357006A9404606F00CFB95F8B03043F0040364
S3150800358085F8B030227D3D4B263203EB42121421DA
S315080035905160617DA07D227D41EA004103EB421224
S315080035A0C2F8DC14E27D207E217D42EA004203EB6C
S315080035B04113C3F8D424A37B012B3CD0032B3AD068
S315080035C0A37B023BDBB2012B42D995F8B03013F04E
S315080035D0010F0CD0627EA17E237D42EA01425B0187
S315080035E003F1A04303F5703341F2CC415A5095F8E4
S315080035F0B03013F0010F10D0237D204AA63302EB1A
S31508003600431302215960E37E207F217D43EA00436C
S3150800361002EB411241F2D041535008F50053184AC3
S31508003620DA640521404606F088FA54E706A94046BA
S3150800363006F0B4FAA6E795F8B03043F0010385F82A
S31508003640B03000230222A17E607EFFF799F9B7E722
S3150800365095F8B03043F0020385F8B0300023042211
S31508003660217FE07EFFF78CF9AFE700BF9F9C00083B
S315080036703F9D0008B99C0008C4BF000800C003505D
S31508003680FF3F0D03E4BF000804C0000830B583B04F
S31508003690007D104B00EB400203EB0212D56E00EBE7
S315080036A0400203EB02131C6F0DF1070107F036FB0E
S315080036B09DF807304BB904F00204074B9D4201D030
S315080036C0002003E024B1002000E0012003B030BD53
S315080036D00120FBE70000045003230020037D0E4A67
S315080036E003EB430102EB0111C96E03EB430302EB43
S315080036F00312136F03F00203084A914201D0002017
S3150800370070470BB900207047036A006D984214BFD2
S3150800371000200120704700BF00000450032300204A
S3150800372030B583B003464169026902F1FF3CC568BA
S315080037304C6F01F17C020020C86750609060D06031
S31508003740B1F87C006CF30E10A1F87C0091F87E00AD
S3150800375040F0100081F87E0091F87F0040F03000BC
S3150800376081F87F00C1F88050C1F88440012081F8B3
S315080037708C0091F878000093024B6431FDF746FE01
S3150800378003B030BD9FA000082DE9F04184B004467F
S3150800379000F1380600F11808002585637560B560E4
S315080037A0F56090F83A3043F0100380F83A3090F814
S315080037B03B3043F0030380F83B30494FC763076447
S315080037C0007DFDF74FFEA5637560B560F56094F85A
S315080037D03A3043F0100384F83A3094F83B3043F01B
S315080037E0030384F83B30E7632764207D00EB40033E
S315080037F01B0103F1A04303F58023DB6EBB4219D0FE
S315080038000DF10F0107F08AFA9DF80F30ABB194F865
S3150800381044306FF3410384F844300094314B324608
S315080038202146207DFDF7F2FD207DFDF73BFE04B025
S31508003830BDE8F081FDF736FEF9E7204606F08EFA78
S31508003840054602A9207D07F08DFA029B591E2069BC
S315080038500023A361E36123626362228B61F30E1284
S315080038602283A27E42F01002A276E27E42F0030292
S31508003870E276E0612562227D1B4902EB420001EBFC
S315080038800010056FC5F3400594F8247065F34107E9
S3150800389084F82470A57E63F30415A576056FF8B23F
S315080038A065F3000084F8240002EB420201EB0211E2
S315080038B00A6F9210616A62F39F01616294F844206C
S315080038C042F0020284F84420D2B263F3000284F87C
S315080038D044204FEAA808636C68F39F0363649CE777
S315080038E003230020079F000800000450F0B589B0A4
S315080038F004460E46007DFDF7B5FD0DF11F01207D3E
S3150800390007F00CFA204606F029FA0546236D83428D
S315080039104AD2A26C934216D0238DC3F30A123244BC
S3150800392062F30E132385236D1E442665A26CE36C91
S3150800393013449E426FD0236DAB426ED0207DFDF7B7
S31508003940B1FD09B0F0BD701E276904F128030021F6
S31508003950A162E16221636163B4F828C060F30E1CBA
S31508003960A4F828C094F82A0040F0100084F82A0029
S3150800397094F82B0040F0030084F82B00E7622263DA
S3150800398094F82A2061F3041284F82A2023F003020B
S31508003990237D42F0020203EB43031B0103F1A0431C
S315080039A003F580231A67BEE79DF81F30B3B9227D59
S315080039B01D4802EB420300EB0313596EC1F30A11CB
S315080039C031445B6E23F4FF4323F0700343EA01138B
S315080039D002EB420200EB02104366A4E70494134B81
S315080039E00393002302930196012300932369024659
S315080039F02168207D05F03BFE237D0B4A03EB43013E
S31508003A0002EB0111496E21F4801103EB430302EB2B
S31508003A100312516687E722658DE7012384F854303F
S31508003A202046FFF7B1FE89E700000450079F00080B
S31508003A3070B588B006460C461546A02200212046D9
S31508003A4006F08AFFA446AE46BEE80F00ACE80F00B3
S31508003A50DEF80030CCF8003004F1640C05F1140EE1
S31508003A60BEE80F00ACE80F00DEF80030CCF80030F6
S31508003A70AB6AA364EA6AE264236595F8302084F8A1
S31508003A80952095F8332084F89620C4F898300123B9
S31508003A9084F89C3084F85430AB6B23663460374B1B
S31508003AA07360374BB360374BF360374B7361374BF3
S31508003AB0B361374B3361FDF777FC10B1354A904255
S31508003AC053D1002107A8FDF7EDFB00284FD19DF83B
S31508003AD01C302375002107A8FDF7E4FB00283FD119
S31508003AE09DF81C3084F87830207DFDF7BBFC002853
S31508003AF040D1E36C0494284A03920022029201936F
S31508003B00012300932369A26C2168207D05F0AFFD8F
S31508003B1090BB237D03EB43031B0103F1A04303F58D
S31508003B20802342F264024FF480119950AB6B93F9EB
S31508003B301000FFF73BFCAB6B93F9100006F072F828
S31508003B4004F1900005F07FFD3046FFF759FC20464A
S31508003B50FFF71AFE207DFDF7A5FC48B1102007E007
S31508003B60207DFDF7F7FB102002E0102000E0102072
S31508003B7008B070BD1020FBE71020F9E7AD9E0008DD
S31508003B80C19E000867A00008519D0008579D0008BF
S31508003B90E3A00008038000F0079F00080346064AD2
S31508003BA010680344054A934202D8034A13607047D3
S31508003BB04FF0FF30704700BFC4230020008000206C
S31508003BC0BFF34F8F0549CA6802F4E062044B1343FA
S31508003BD0CB60BFF34F8F00BFFDE700BF00ED00E0ED
S31508003BE00400FA05BFF35F8F074B5A6A22F4803246
S31508003BF05A62D3F8942022F00102C3F89420BFF346
S31508003C004F8FBFF36F8F704700ED00E070B5FFF779
S31508003C10E9FFA0220021214806F092FA204B21490B
S31508003C208B4206D021F01F02203AB2F1005F0FD373
S31508003C3000E01D4A1D4D286842F001021C4CC4F8DC
S31508003C4098001C4EC4F89C60C4F8A0200130286077
S31508003C508B4210D01F3323F01F0343F0030313488E
S31508003C6002681349C1F89820C1F89C30124BC1F874
S31508003C70A03001320260BFF35F8F0D4B0522C3F8F7
S31508003C8094205A6A42F480325A62BFF34F8FBFF3C8
S31508003C906F8FBFF34F8FBFF36F8F70BD90ED00E04E
S31508003CA0602300204023002000800020B01E002052
S31508003CB000ED00E003000020E17F002010B4194B5E
S31508003CC05A6E02F4803203F580514FF4803048660C
S31508003CD0586E4FF000434B66134B596C01F00101C7
S31508003CE04AF6CD341C64104B5B6B13F0010FFAD106
S31508003CF00E4B01245C600C4B1B6B13F0010FFAD0C2
S31508003D0011B1094B0A491964002803DB094B4FF026
S31508003D10004159661AB9074B4FF480325A665DF866
S31508003D20044B70470080005000400950006009505D
S31508003D303254FFFF00A0005010B507F065FA04469C
S31508003D40144B1B78DBB9144A1360144A1360144ADF
S31508003D50136000F02DF8012007F086FB07F0D6F96E
S31508003D600246104B186078B100230F4840F2E7313D
S31508003D7004F066FE0D4B1860064B01221A702046A9
S31508003D8007F03DFA002010BD204607F038FA232038
S31508003D90F9E700BF06230020BC1E0020B81E00203D
S31508003DA0C41E0020C01E002018FCFFFFB41E002001
S31508003DB010B586B000248DF814400094019402943E
S31508003DC00394049401238DF80030164807F029FA65
S31508003DD0BFF34F8F05A8FEF7C5FF8DF8004069466B
S31508003DE02046FEF7D7FF0F21204606F0F3FF0F21E6
S31508003DF0204606F0F5FFFEF799FF0B4B5B6813F0BC
S31508003E00010F03D0084BDB69002BF6D1064B0022C5
S31508003E109A614620FFF7CAFA462005F003FF06B066
S31508003E2010BD00BFBCBF000800800A502DE9F8434A
S31508003E30DFF860900646D9F8008008461746B8F1BC
S31508003E40000F03D00E242046BDE8F88306B3336876
S31508003E5001331DD1E1B100F067F805460028F1D01D
S31508003E60C9F8000000F086F8284606F0D7F9044697
S31508003E7040B14046C9F8008000F07CF8284606F0B4
S31508003E80C8F9E0E73560002FDDD02846B847DAE7FD
S31508003E902124D8E7C81E0020024B1868003818BF2E
S31508003EA001207047C81E002038B505460C4601F0AB
S31508003EB0A9F838B1204602F0F7FD40F26512412113
S31508003EC000F0FCF944B1236833B11B68013303D011
S31508003ED0E3680BB1A3684BB906F006FC00204FF463
S31508003EE0C172412100F0EAF9212038BD204601F0CF
S31508003EF0D9FB00230A4A85F83031C5E93743C2E9B8
S31508003F00003363694BB1074A422110684FF4D272F5
S31508003F10C31A5842584100F0D1F90020E5E700BF1E
S31508003F20602300200C210020F8B5044607F063F949
S31508003F30002607460E4B1B6893B19E68AEB196F8ED
S31508003F402420D20711D435460FCC0FC50FCC0FC588
S31508003F5023682B6096F8243043F0010386F8243052
S31508003F60384607F043F93046F8BD1B68E4E700BF5A
S31508003F70CC23002010B5044618B9054B054A136032
S31508003F8010BD00F0FDF9D4F8E830002BF6D1F4E7BF
S31508003F90FFA10008C8230020084B10B4002A14BF4C
S31508003FA014461C46064B1C6019B15DF8044B06F016
S31508003FB07CB908465DF8044B704700BFFFA10008AE
S31508003FC0C8230020D0F8E0302DE9F04105460C461C
S31508003FD013B1C38D8B424CD0D5F8DC30002B4BD0B7
S31508003FE09E68002E48D0D868002845D0013800B20F
S31508003FF000281ADB002106E0128A591CA24217D2B1
S3150800400009B2884211DB0B1803EBD3735B1003EB81
S31508004010C30206EB8202B2F80EC003F1FF3EA445C6
S31508004020EAD90FFA8EF08842EDDA2120BDE8F08150
S315080040304FF6FF7299B29142F7D09BB203EBC303D6
S3150800404006EB83062846B6F9122095F82411D5F80A
S31508004050F080FEF7E1FE0746B8F1000F04D0002312
S31508004060324628461946C047EC85C5F8E06085F80B
S315080040702D710020BDE8F0810E20BDE8F08100BF5B
S315080040802DE9F04782B004460F46164600F0AEFF0B
S3150800409000286FD1494D2B68D4F8DCA0D4F8E0800D
S315080040A00BB153456AD04FF00009AF6000F0B4FF7A
S315080040B00128074604D001210022084600F0B0F97D
S315080040C02B68DAF80010D8F8002013B1186888426F
S315080040D05FD0204606F07BFA94F82530C5E900A89B
S315080040E013F0010F0CBF32460122D4F8F05062F3E8
S315080040F0000384F825308DF80760002D50D0002283
S31508004100204611460DF10703A847204600F06CFC2F
S315080041100546B9F1000F10D07EB9D4F88C3013BB20
S31508004120012F06D0002D47D0254B002103205B68C0
S315080041309847284602B0BDE8F087B5FA85F040F200
S31508004140FA423321400900F0B9F83146204600F01A
S315080041505FFD1C4B05461B68414620469847D4F828
S315080041608C30002BDCD000224FF40073204600F080
S3150800417017F9D5E70023114D6B608CE76B68002BA8
S3150800418091D043458FD1AB689F4215D04FF00109B6
S315080041908BE7696811B1096891429DD0596898E71B
S315080041A094F82A1094F82D313246994228BF1946B8
S315080041B0204600F06BFBA8E70025BAE7602300203D
S315080041C0D4230020C8230020F8B50E46054607F07C
S315080041D012F8314607462846FFF7F4FE044620B192
S315080041E0384607F003F82046F8BD00F0DFFE224601
S315080041F031462846FFF744FF04460028F0D195F9D2
S315080042002430002BECDA284606F035FA0028E7D0E9
S315080042102246284695F82C1006F0EBF90446DFE707
S3150800422070B504460E4606F0E6FF314605462046BA
S31508004230FFF7CAFF044620B9044B01465B68032012
S315080042409847284606F0D2FF204670BDD4230020A2
S3150800425010B5FFF721FE20B9054B1A68054B9A429F
S3150800426004D1BDE81040044B1B68184710BD00BFB9
S3150800427010240020008000401424002013B50446B2
S31508004280694606F07DF8204606F005F9FF2802463D
S3150800429006D020469DF80010FEF74EFE02B010BD6F
S315080042A00048FBE70080FFFF08B50B4602491940A6
S315080042B006F06AF8002008BD0700110010B550B9CD
S315080042C00548064B0160064802601868054B1860E9
S315080042D0186805F091F910BDD0230020C81E0020EB
S315080042E0D0200020CC200020D0F8E43013B11A6882
S315080042F0032A10D8094BDB6BC3F3C20213F0380F3D
S3150800430003F0070018BF504313F4E07FC3F382128B
S3150800431003D050437047986A400E7047008001B832
S31508004320431C07D06FF0FF02034B10405A62A3F5F7
S3150800433080535862704700BF00E000B8F8B50446DD
S315080043400F46164606F057FF0546A047044620B115
S31508004350284606F04BFF2046F8BD03F0BFFC0422B2
S315080043600549D1F8003F23EA07033343C1F8003F64
S31508004370024B5A64ECE700BF003000B0002002B8D8
S3150800438038B10368044A002B08BF1346034A136072
S315080043907047014BFAE700BFD7A30008E4230020C3
S315080043A010B4D0E9544122400B4052EA030104D02C
S315080043B003495DF8044B096808475DF8044B7047E4
S315080043C0E4230020024B986F00F00F00704700BFEF
S315080043D0003F00B00F2938B505460C460ED800F048
S315080043E01BFE01280CD1074A2846936F23F00F03BA
S315080043F02343936706F027F9002038BD2120FCE700
S315080044000220FAE7003F00B0014BD86F704700BFA3
S31508004410003F00B0014B0020D9677047003F00B04D
S3150800442003282DE9F74F0C46914600F28780444B46
S3150800443013F800A0434B1E5C434B13F800B006F07C
S31508004440DAFE804603F0FCFB074640B10023002253
S31508004450CDE9003301200023002103F0CFF903F052
S31508004460F7FB48B100230022CDE9003300200023E2
S315080044704FF4004103F0C2F9002E52D0334BDD6CE5
S3150800448005F008050AEB0600314B23305844DD6475
S31508004490C0B201F09BFD3146504603F081FC5A46F6
S315080044A03146504603F020FD2A4BDD64DFB12A4B26
S315080044B01868D0F89410F83002F068F927490868A7
S315080044C0FFF72EFF4FF0FF330B60254B1A68511C80
S315080044D006D06FF07E402349C863A1F58051CA63B0
S315080044E04FF0FF321A60B9F1000F04D01E4B0021BD
S315080044F003205B689847B4B14FF480621B4B1D6F6D
S3150800450003F50053C5F380251A67404606F06EFE8C
S3150800451000F082FD012808D15DB9002003B0BDE88E
S31508004520F08F3546AEE72546EFE7002CF0D105209B
S31508004530F4E74FF480620E4B1A67EEE72120EDE7A9
S3150800454044C0000840C000083CC00008004000B84D
S31508004550006000B8005000B8C81E0020E023002004
S31508004560DC23002000E000B8D423002000C001B8F6
S3150800457000D001B870B50D46064620B91A4B1B681F
S31508004580A3B10E2011E000F047FD012829D1174BF1
S3150800459093F90040C4F12704641BC4F11C03002BE3
S315080045A0B8BF5B42232B0CDD212070BDA1F10B03A4
S315080045B0002BB8BF5B42232BF6DC0C4B197000208E
S315080045C0F3E786F8275006F016FE094AE402136A4E
S315080045D004F4FF2423F4FF231C43146206F006FEAA
S315080045E0EDE70220E1E700BFC81E002007230020F0
S315080045F000C000B80B4B08461A6D92020FD4D3F8C8
S315080046004021D1070CD4D3F83823D20708D4D3F8DD
S31508004610803013F4706F14BF01200020704701200A
S31508004620704700BF004001B8F8B50D46D0F8943081
S3150800463002EA010423EA01032343C0F894303B4A03
S3150800464001F00B0323EA0401D1642340A2F580524A
S315080046506F070646D36410D50121FFF7CBFF60B17B
S3150800466003F03CFB4FF4007314F0040F14BF304AF8
S31508004670304A13650422304B5A64E90606D514F00D
S31508004680100F14BF00221B222C4B5A652A0618D578
S31508004690230611D54FF40012254BDA6406F0ABFD5C
S315080046A00E210746032002F001F840F20122234BAF
S315080046B03846DA6206F09AFD214606F1F80002F05D
S315080046C065F8EF0503D5E0052AD501F0DDFFA90554
S315080046D003D5A20527D501F0E3FF15F0600F0AD030
S315080046E0D6F8E410304605F077FE8022144BC3F85E
S315080046F08800144B1A612B0510D503F0EFFA124AFD
S3150800470014F4006FD2F8003F14BF43F0006323F09F
S315080047100063C2F8003F0422074B5A640020F8BD24
S3150800472001F0ACFFD3E701F0B5FFD6E7006000B8AB
S31508004730005001B8006001B8002002B8004000B877
S31508004740003F00B0000002B8003000B00A78022A24
S3150800475011D0101F4242424152004B781201022BDF
S315080047600BD0191F4B424B415B000549054842EAED
S315080047708312FFF7E3BD0122EFE70123F5E700BF48
S31508004780F0FFFF00615000080B78022B10D0181FAD
S31508004790434243415B004A78022A0BD0111F4A4222
S315080047A04A4152000F21044843EA8202FFF7C6BD78
S315080047B00123F0E70122F5E78D500008F8B50D78DA
S315080047C004460A2D0E4690F8247108D10625284677
S315080047D000F080FF18B90135EDB20A2DF7D1284649
S315080047E000F078FF002848D094F82431AB4209D16C
S315080047F0B288D4F8A4309A4204D17288B4F8263123
S315080048009A4238D084F82451B3882846A4F8283127
S31508004810738804F59275A4F82631B388C4F8A430D1
S31508004820FF2384F82B3005F08AFF84F82A002846EF
S3150800483001F00CF810BB284600F042FFF0B9D4F896
S31508004840E03053B194F82411B94206D02046B3F9A2
S315080048501220FEF7E1FA84F82D01204601F016F938
S315080048600849A4F828010123074AD1F8FC1004F1E5
S31508004870F80002F09FFD0020F8BD21200C2384F8E3
S315080048802431F9E7004F00B0983F00B070B50546EF
S3150800489090F824010C460C281FD0FF2901D12120AD
S315080048A070BD1AB14FF0FF320D4B1A6005F047FF85
S315080048B0064695F8240100F04BFF844228BF0446BB
S315080048C0E4B2B44238BF3446E0B285F82B0001F0B2
S315080048D00DFAFF28E3D00020E2E70220E0E700BF58
S315080048E0E823002010B590F8243104460C2B44D058
S315080048F0D0F8E03080F82A10DBB3D0F8F020D2B92F
S3150800490090F82D318B421CD300222046FFF7BEFFBC
S3150800491048BB1B4B1B78063B032B23D8204601F0CC
S31508004920B5F818490123184AD1F8FC1004F1F80023
S3150800493002F040FD16E0B0F94220B3F912309A426F
S31508004940E2DD0022204694F82D11FFF79FFF50B9AB
S31508004950C4F8E000204605F0B5FC4FF6FF73984210
S31508004960014601D1002010BD2046BDE81040FFF7E2
S315080049702BBCFF2380F82B30F4E70220F3E700BFB7
S31508004980A0240020004F00B0983F00B0F0B51D46A7
S31508004990144B04461B780F46164685B05BB1D0F813
S315080049A0E030E3B102AAB3F912300092002205F012
S315080049B017F905B0F0BD02A905F0E2FC9DF808104C
S315080049C03A462046FEF728FA014626B92A462046E0
S315080049D0FFF75CFFEDE72046FFF784FFE9E7184697
S315080049E0E7E700BF32BE0008F0B5D0F89C3095B0B6
S315080049F0012B03D10025284615B0F0BD04467C4995
S31508004A0005F0D5FED4F8E0600146E58DC4F8E4006B
S31508004A102EB133681BB15B68002B40F0A58006F009
S31508004A20EAFB01462046FFF75FFC0746084606F004
S31508004A30DDFBD4F8E410B3898DF80E70EB1A9BB23F
S31508004A40D6E9012000FB03226A48ADF80C3003685A
S31508004A500292994208D0204605F0BEFC802266499B
S31508004A60664BC1F888001A61654D644E00F0D4FAA9
S31508004A700128FBD12B6CDA07F8D4736CDB01F5D46B
S31508004A8094F82530DF070CD5D6F878215D4BC6F8A3
S31508004A90EC23D3F8F830D6F8A0209D06C6F8F02304
S31508004AA069D494F82530D4F8E4106FF3000384F839
S31508004AB02530204612919DF80E20029908AB02F087
S31508004AC0E5F880B900F0A8FA0128FBD14B4A4C4911
S31508004AD0536CD801FCD40B6CDB07F9D408A901A8E0
S31508004AE002F01AFB18B10225284615B0F0BDE28D72
S31508004AF0454B5A6400F036FE054600287FF47BAF26
S31508004B0094F8243060F3410384F8243000F034FB31
S31508004B10D4F8E030411E5B69C9B21E68FD29024619
S31508004B2004962CD9F71C3DD938490136096818BFAF
S31508004B300126C81C42D85B68FF2A0491059344D114
S31508004B40DF1C27D8204604A905F09EFD002E7FF419
S31508004B5051AFD4F8543198052AD494F8243043F048
S31508004B60020384F8243045E71A68032A7FF657AF0C
S31508004B709F6A7F0E5FE7204600F088FF91E75B6833
S31508004B800128059304D0204604A905F07DFD31E7E8
S31508004B900126D5E701331D4B5B6818D0D91C12D8FE
S31508004BA00593CFE75B68FF280593F1D02A46EAE725
S31508004BB020464FF4803105F0F5FB1BE7FF2A5B68BA
S31508004BC00DD00593C2E7FF2AC0D10022BAE7DD1C43
S31508004BD008D8204604A9059305F056FDB9E7012231
S31508004BE00593ADE7FF2AB4D10022204604A9F3E7CE
S31508004BF0FC4F00B0D8200020003F00B0000002B8EB
S31508004C0000C002B8004F00B0008001B8F4230020AD
S31508004C10F8B504460E4619B990F824305A0647D412
S31508004C203B4B3C4A5B6A618EC3F3032313704FF612
S31508004C30FF739942D4F8E47004D0374B1B680BB164
S31508004C4020469847354D2B68BB4256D0344B1B68D7
S31508004C503BB11FB13A68002A51D0BF683946204691
S31508004C6098470727204600F011FF002E3BD0062064
S31508004C702C4B94F9272093F900302549C3F12703D3
S31508004C809B1A0A6ADB0222F4FF2203F4FF2313436A
S31508004C900B62D4F8E420244B2A60986701F0BEF82A
S31508004CA00122224B20461A7005F0CDFC0020F8BDE3
S31508004CB04FF6FF7C66F38613154A80F82430536A4C
S31508004CC0164D1449C3F30323D0F8E4700B702B6810
S31508004CD0A0F832C0BB4217D0114B1B68002BB8D1C5
S31508004CE000F0D4FE072712493B46124AD1F8FC10B9
S31508004CF004F1F80002F05EFBB9E70127B2E71746B0
S31508004D00204639469847ACE700F0C0FE0127EAE797
S31508004D1000C000B809230020E0200020D820002089
S31508004D20DC20002007230020006000B808230020AC
S31508004D30004F00B0983F00B0054A12681AB190F8C3
S31508004D401E1119B91047084601F0C2BC0148704740
S31508004D50D420002000FEFFFF404B2DE9F7431D68D5
S31508004D6001F4007900F00103174653EA09020646E2
S31508004D700C4640D04FF0000893B3002300220120D0
S31508004D800021CDE9008802F039FD41462846FFF7A3
S31508004D90D3FF012241462886104605F091FAD5F838
S31508004DA0941005F1F80001F0F1FC2D490868FFF7A9
S31508004DB0B7FA4FF0FF330B602A4B1A68511C06D01E
S31508004DC06FF07E402849C863A1F58051CA634FF049
S31508004DD0FF321A6095F8243043F0040385F824302E
S31508004DE0B9F1000F07D00121284605F0DBFA24F4B3
S31508004DF0007406430C43324623462846FFF7D0FA8A
S31508004E0022044FF0000308D5CDE900330022002321
S31508004E1000204FF4004102F0F1FCFB070FD51349BF
S31508004E20134A08680021136811600121114A11709C
S31508004E3003B19847104B002102205B68984717F08A
S31508004E400E0F08D04FF409723B21002003B0BDE8CD
S31508004E50F043FFF733BA03B0BDE8F083C81E00205D
S31508004E60E0230020DC23002000E000B8E420002036
S31508004E70E82000200A230020D423002008B5582261
S31508004E800021064805F068FD1022FF21044805F0B8
S31508004E9063FD03F09BFD002008BD00BF043F00B082
S31508004EA0483F00B073B581217A22A0F814118221F7
S31508004EB0C0F80021C0E9411264220C23C0E943224C
S31508004EC007224FF0FF35002680F824314FF6FF738E
S31508004ED00446C28700F14C0282641F4AC385A0F8C3
S31508004EE0403080F82C3043864263038780F8276079
S31508004EF0C0F8A450458502F0B3FE2046FFF7BEFF72
S31508004F000122164B2046C3F8382294F92710FFF7DA
S31508004F1031FB6023124A41F6FF71D3644FF03A42DF
S31508004F20116311670F4A2946D36440220E4B204667
S31508004F305A64D4F89420FFF777FB0E230022CDE9B4
S31508004F40003340F202231046194602F057FC00F0DF
S31508004F50D9FB304602B070BD4000FFFF005001B8D3
S31508004F60004000B8005000B8002002B838B506F076
S31508004F7042F94FF6FF710A4A13888B4203D106F0AD
S31508004F8035F90E2038BD074C074D1B046567A4F597
S31508004F9080546367118006F029F90020F2E700BF04
S31508004FA09E240020006001B80000FFFF08B50C4BE6
S31508004FB0D3F84C21531C11D012F080420ED1094B64
S31508004FC01B681BB111460320FFF72AFA4FF08062CF
S31508004FD0054B1A6501225A6102229A6208BD00BF72
S31508004FE00080E00FC81E0020001002B84FF400220F
S31508004FF0034B586C03F500535A64C0F3C04070471E
S31508005000000002B8034BDB6913F4401F0CBF0120F4
S31508005010002070470080E00F0F4BDB68C3F3036383
S31508005020013B0B2B0FD8DFE803F006060C06060635
S3150800503006080A0808080220704704207047052059
S31508005040704703207047054B5B6913F0060F0CBFCA
S3150800505001200420704700BF000002B800C001B854
S31508005060094AD368C3F303630B2B08D06FF4905037
S31508005070184100F0010080F0010040007047506CB4
S3150800508010F48030EDD17047000002B80C4AD3689E
S31508005090C3F30363062B07D8042BD8B20BD8C31E59
S315080050A05842584140007047072B06D1D2F868018C
S315080050B00028ECD17047022070470020704700BFD7
S315080050C0000002B8094BDB68C3F303639A1E012A82
S315080050D08CBF00220122012B02701EBF4FF4026210
S315080050E022FA03F303F001030B707047000002B8BD
S315080050F0FF28074B09BF0A6851F82020C3F8782211
S315080051004A6818BFC3F87822C3F87C22704700BFE4
S31508005110004001B8144BFF281870144A144B09D1E3
S315080051201821C2F8FC131022C3F8FC23114BD3F83C
S3150800513074320DE0C0431821C00000F00800C2F820
S31508005140FC13C3F8FC030028F0D10A4BD3F87832D5
S3150800515040F2FF31054AC3F30903C2F80C11A2F560
S315080051608052C2F80C3170470B230020002002B889
S31508005170001002B80080E00F014B1878704700BF96
S315080051800B2300204FF03A43D3F81421D2031ED53F
S315080051904FF480320E49C1F81421A1F58051C1F8A7
S315080051A018215A6DD1B2C2F30722C3F8A410C3F866
S315080051B0A4200422C3F8A4200022C3F8A420C3F81C
S315080051C0A420C3F8A420C3F8A420C3F8A4207047D9
S315080051D0002000BAF0220B4B01219A64A022A3F505
S315080051E080539A644FF03A43826CC3F8F410FC215A
S315080051F0C3F8CC10C3F8D0204FF40052C3F8F020FF
S31508005200704700BF006000B8F8B50D464FF03A4445
S315080052101746064605F0EFFF01230421074A636394
S31508005220E76026616561C2F81411054AC2F884313F
S3150800523005F0DCFF0DB102236363F8BD002000BA58
S3150800524000E100E02DE9F04105460124006800F080
S315080052500700063004FA00F3A868EC685E1EA04250
S3150800526062D000EA060E6C6810441E430640A3EBA3
S315080052700E000EEB040C8242644618D9D31A0EEBC4
S31508005280030298B1431E052B04D94B1CACEB030350
S31508005290022B59D80B460844ACEB010E03EB0E0162
S315080052A013F8014B83420C70F8D101466C688AB139
S315080052B0531E052B01F1010302D9E01A022812D860
S315080052C00A44611E00E0013313F8010C934201F809
S315080052D0010FF8D105F08FFF0223AE60AB62BDE87F
S315080052E0F04105F083BF0B46204622F0030E8E449C
S315080052F053F804CB734540F804CBF9D122F00303E5
S31508005300D01A920701EB030C04EB0307E2D0CA5C40
S315080053100128E254DED09CF8013002287B70D9D0EF
S315080053209CF80230BB70D5E7042A35D90878043AC8
S31508005330A86148780431A86111F8020CA86111F82F
S31508005340010CA861A8688CE70B4620F003070F44F8
S31508005350ACEB010E1C684EF803400433BB42F9D18E
S3150800536020F0030310F0030F01EB030EA0EB030478
S315080053700CEB030728D011F80380012C0CF80380E6
S3150800538022D09EF80130022C7B7018BF9EF802309E
S31508005390084418BFBB7088E7013A032A12D8DFE829
S315080053A002F00F1507020B4613F8012B1946AA61DE
S315080053B00A4612F8013BAB61114611F8013BAB6195
S315080053C00B78AB61BDE8F08108446EE70A46F3E75F
S315080053D038B50B46154601464FF03A4468B10122E6
S315080053E01048C4F8F4201A46FFF72CFF25B14FF0F1
S315080053F03A430422C3F8F42038BD73B1D4F8D82050
S315080054009A4284BF0122C4F8F4204FF03A42C2F807
S31508005410D4300223C2F8F430E8E70123C4F8F430A4
S31508005420E4E700BFCC0000BA38B5044605F0E3FE51
S315080054304FF03A420121638F054651674BB3B3FAE1
S3150800544083F3C3F11903DBB2A069C2F8B410C2F83A
S315080054508C300723C2F89000C2F8B0304FF4A0236E
S3150800546002F50052C2F81431A2F58052C2F818317A
S3150800547000220C4B1A600C4B5B6C5B0209D54FF48F
S3150800548080020A4B04F1F8005A64D4F8941001F02B
S315080054907DF94FF4E0232846E363BDE8384005F07C
S315080054A0A5BE00BFEC200020000002B8002002B80C
S315080054B02DE9F84305460C46B1B1D0F81880478F58
S315080054C005F099FEB5F83CC0791E01EA0C0323F0F5
S315080054D00702032C0646DFF8F8E042445ED1DEF800
S315080054E0004024B905F082FE0E20BDE8F88324F0BA
S315080054F00104DEF8000020F00100A04253D1002389
S31508005500CEF80030238894426FEA43436FEA534348
