S01B00004E6574416E616C797A65725F464732335F5630312E73333705
S3150800000000080020591000086B9900086B99000831
S31508000010B3A400086B9900086B9900086B9900084F
S315080000206B9900086B9900086B9900086B99000892
S315080000306B9900086B9900086B9900086B99000882
S315080000406B9900086B9900086B9900086B99000872
S315080000506B9900086B9900086B9900086B99000862
S315080000606B9900086B9900086B990008210F000826
S31508000070110F00086B9900086B9900086B99000826
S315080000806B9900086B9900086B9900086B99000832
S315080000906B9900086B990008711700086B9900089E
S315080000A06B9900086B99000849130008211300088A
S315080000B06B9900086B990008B18000086D8B0008E1
S315080000C0EFAB0008EBAB00082183000805AC00087D
S315080000D0F3AB00083D8B0008F7AB0008D18B00088E
S315080000E0098C00086B9900086B9900086B99000841
S315080000F06B9900086B9900086B9900086B990008C2
S315080001006B9900086B9900086B9900086B990008B1
S315080001106B9900086B9900086B9900086B990008A1
S315080001206B9900086B9900086B9900086B99000891
S315080001306B9900086B9900086B9900086B99000881
S315080001406B9900086B9900086B9900086B99000871
S315080001506B9900086B990008E9B70008156B000849
S315080001606B9900086B99000891AB000897AB0008DB
S3150800018070470000000000000000000000000000AA
S315080001900000000000000000000000000000000051
S315080001A00348044B834202D0034B03B118477047F8
S315080001B0FC260020FC26002000000000064B07490C
S315080001C0C91A891048BF0131491003D0044B0BB135
S315080001D001481847704700BFFC260020FC2600206F
S315080001E00000000010B5064C237843B9FFF7D8FF86
S315080001F0044B13B10448AFF300800123237010BDEC
S315080002003A250020000000006CF7000808B5054BE9
S315080002101BB105490548AFF30080BDE80840FFF764
S31508000220CDBF00BF00000000400A00206CF70008A0
S31508000230A3F5803A704700BF174B002B08BF134B36
S315080002409D46FFF7F5FF00218B460F461348144AD3
S31508000250121A0AF01EFD0E4B002B00D098470D4BC4
S31508000260002B00D098470020002104000D000D48FF
S31508000270002802D00C48AFF3008008F00BFF2000DE
S31508000280290009F092FA08F0B1FE00BF0000080044
S315080002900000000000000000000800200008002000
S315080002A080250020000000000000000000B583B093
S315080002B00B4B4FF080625A66012304220921022063
S315080002C002F0A4FC0023019302E0019B0133019391
S315080002D0019A49F63F439A42F7D903B05DF804FB01
S315080002E00090005030B587B000F0D2F8042143489A
S315080002F009F020FA0023ADF81030ADF8143005A93E
S3150800030004A800F0EFFA002830D03D493D4809F02E
S3150800031011FA42F6B112BDF810103B4809F00AFA74
S315080003204FF20852BDF81410384809F003FA0023B2
S31508000330ADF80E300493059305AA04A90DF10E0035
S3150800034000F0D0FBA0B12E494EF67D330193BDF8DF
S315080003500E3000934FF40C73049A2D4809F0EAF90D
S31508000360059B0BB1049B2BB907B030BD2949CDE7D6
S315080003702849E9E7284809F0DDF90AF0DFFF0546CC
S315080003800499059800F0B6F80AF0D8FF0446234801
S3150800039009F0D0F90AF0ECFF641B054660B3E20EDB
S315080003A063011B1B62F10002520242EAD3525B024E
S315080003B01B1942F10002910141EA93619801C01AA2
S315080003C061EB020100192A464FF0000341F10001D2
S315080003D008F07CFC034622461149124809F0AAF99E
S315080003E000F0A0F8044600F097F80346224629468E
S315080003F00D4809F09FF9B7E70346ECE770B800081F
S3150800040060B80008C0B80008DCB8000804B90008DD
S315080004102CB9000868B800086CB900087CB900084F
S315080004208CB9000898B90008D8B9000831B300B5E6
S315080004308E46144B1B889BB2134A128892B29B1A9B
S31508000440C3F30A03C3F5FF6307338B4218D30D4B77
S315080004501B889BB2002208E010F802C00B4901F87D
S3150800046003C00133C3F30A0301327245F4D3BFF361
S315080004705F8F044A138001205DF804FB0120704752
S315080004800020F9E71E2500201C2500205C0A002014
S315080004900023034A1380034A1380034A13607047F4
S315080004A01E2500201C250020580A00200CE00D4AB5
S315080004B013889BB20C49C95C0C4B596413889BB2D0
S315080004C00133C3F30A031380064B1A8892B2084B0A
S315080004D01B889BB29A4204D0044B9B6C13F0400FC6
S315080004E0E5D170471C2500205C0A00200000015B4E
S315080004F01E25002060B110B50C4601B910BDFFF7E6
S3150800050095FF0028FAD1034A136823441360F5E7D8
S31508000510704700BF580A0020014B1868704700BF93
S31508000520580A0020044B188880B2044B1B889BB2DB
S31508000530C01AC0F30A0070471E2500201C2500209B
S31508000540F0B597B00023059305AB402206A93048BD
S31508000550006809F00CFD10B90446059B3BBB17B0B3
S31508000560F0BD9DF80850BDF80A60BDF8107000F09F
S31508000570B7FB00903B4632462946264809F0DAF88A
S315080005809DF80830432B11D1BDF80A10039800F0E6
S315080005908DF80BE0BDF81050BDF8126000F0A0FB16
S315080005A00346324629461C4809F0C4F80134059B1F
S315080005B0A342D4D902A904F158036B4413F8400C9A
S315080005C000F0D6FA01380428F0D801A353F820F031
S315080005D063050008E5050008F30500089505000809
S315080005E00106000800F07CFB01460C4809F0A2F859
S315080005F0DCE700F075FB0146094809F09BF8D5E7EA
S3150800060000F06EFB0146074809F094F8CEE700BFF4
S31508000610E42500200CBA000844BA000878BA000895
S31508000620B4BA0008E4BA000838B5FFF73FFF0AF085
S3150800063085FE0F4B1A685B68904271EB030302D282
S31508000640FFF77EFF38BD05460C460A4B196801318F
S315080006501960094809F06EF84FF47A700AF08EFEB0
S31508000660401944F10004024B18605C60E8E700BFDB
S31508000670000800205C12002004BB000800B583B007
S315080006800B46009202464FF40C71074800F02EFB09
S31508000690B0F50C7F02D003B05DF804FB01460248B2
S315080006A0FFF728FFF7E700BF6012002000B5A3B0E8
S315080006B000283BD08446002938D0B1F5077F01D9F8
S315080006C04FF4077111231DAA604609F04BF800285C
S315080006D034D038491DA80AF0FBFA002834D0364928
S315080006E01DA80AF0F5FA002834D034491DA80AF0E6
S315080006F0EFFA002851D032491DA80AF0E9FA78B174
S3150800070030491DA80AF0E4FA50B12F491DA80AF08D
S31508000710DFFA28B12D491DA80AF0DAFA002842D1D5
S315080007202B4A00211DA8FFF7A9FF04E0294A00214A
S315080007302948FFF7A3FF23B05DF804FB254A0021EB
S315080007402548FFF79BFFF6E7244A01211DA8FFF776
S3150800075095FFF0E7224A13889278B2B1214A2049D8
S31508000760C978A1B120491E48007A029001910092E9
S315080007701E4A602105A808F04BFC002809DB05AADB
S3150800078001211DA8FFF77AFFD5E7194AE7E71949B6
S31508000790E9E700238DF81430F1E7174A00211DA870
S315080007A0FFF76CFFC7E7154A00211DA8FFF766FF8C
S315080007B0C1E700BF40BB000860BB00088CBB00084F
S315080007C0B4BB0008B8BB0008BCBB0008C4BB000823
S315080007D0CCBB000834BB00083CBB000844BB00087F
S315080007E09014002014BB000824BB000868BB00084E
S315080007F01CBB00082CBB000890BB0008DCBB00082B
S3150800080010B414460CE0094BA3FB01C3DB089C4655
S3150800081003EB8303A1EB4303013C303303556146E5
S31508000820002CF0D110445DF8044B7047CDCCCCCCED
S3150800083013467AB110B401F00F0C013B064C14F8BC
S315080008400CC000F803C00909002BF4D110445DF868
S31508000850044B70471044704708BC000838B51D4A59
S31508000860136801331360012408E0012B18D9631CAF
S31508000870194AD35C542B13D00134A4B2174B1D88E4
S31508000880A5420DD9144B1B5D532BF5D12B1B9BB2DF
S31508000890052BEAD91048204408F0DDFF0028EBD0E4
S315080008A0A54205D800230D4A13800D4A137038BD9A
S315080008B02D1BADB208482A4601190AF0D0F9074B94
S315080008C01D80012D03D90222054B1A70EFE701227C
S315080008D0FAE700BF9C140020A01400202025002061
S315080008E03B25002070B506460D4609210C4808F040
S315080008F0D7FF044603210B4808F0D2FF06B134801F
S3150800090005B1288042F6B1139C4201D0002070BD83
S315080009104FF20853984201D00020F8E70120F6E785
S31508000920FCBB0008F8BB0008002800F0CC802DE9C5
S31508000930F04715460746002A00F0C780B1F50C7F38
S31508000940C0F0C580B2F818A05369002B6AD0BAF176
S31508000950F30F6AD8B846532308F8023B54237B7032
S31508000960BE1D52237B710A2229683046FFF748FFCD
S315080009702C2400F8014B0322A988FFF741FF0470D5
S31508000980B5F90610002953DB2B2343700029B8BF9D
S315080009904942032289B20230FFF732FF2C2400F8BD
S315080009A0014B0322297AFFF72BFF00F8014B6B7ADC
S315080009B0002B3FD04849042208F001FF2C2400F8F8
S315080009C0014B0222A97AFFF733FF00F8014B0222F6
S315080009D0E97AFFF72DFF00F8014B0222297BFFF782
S315080009E027FF00F8014B0222697BFFF721FF00F879
S315080009F0014B0422E989FFF71BFF00F8014B02228D
S31508000A00297CFFF715FF00F8014BD1460322514612
S31508000A10FFF7F6FE00F8014B831B352B5AD1044627
S31508000A2000231DE04FF0000A94E74FF0F30A91E720
S31508000A302D23AAE72949BEE76A69D25C1209DFF8BD
S31508000A40A0C01CF80210224602F8021B6969C95C9C
S31508000A5001F00F011CF80110617001339BB21446B6
S31508000A609A45E9D802E0202304F8013B231AB3F596
S31508000A70F37FF8D34FEA4901032235314046FFF7A1
S31508000A80BFFE02E0202304F8013BA31BB3F5077F52
S31508000A90F8D3002303E0202204F8012B0133072BA7
S31508000AA0F9D94FF40A71404608F0FAFE01460422C5
S31508000AB02046FFF7BDFE0346452203F8022B4422D3
S31508000AC04270D81B04E000207047002000E0002098
S31508000AD0BDE8F0870020FBE7E8BB000868B8000817
S31508000AE008BC0008F0B589B007460E4615460DF154
S31508000AF0040C1C4C0FCCACE80F0094E807008CE8FB
S31508000B00070001AA4FF40C711748FFF70DFFB0F55F
S31508000B100C7F1CD0002207B13A8006B130600DB1B7
S31508000B20114B2B60B0F50C7F14D0002009B0F0BD36
S31508000B30303B9BB243EA021292B201310329EADC46
S31508000B400A4B5B5C402BF3D9373B9BB2F2E700219B
S31508000B500A46F3E74EF67D339A4201D00020E5E7D0
S31508000B600120E3E71CBC0008D0160020FA18002074
S31508000B700346574A107848B370B582B00C46012828
S31508000B802FD054490A88551CADB20D8052498B5452
S31508000B90062D41D0B5F50C7FC0F0978044B14E4B79
S31508000BA05A79227006336360002363802381638148
S31508000BB0494B93F82E32452B04D1474B93F82F32E5
S31508000BC0442B3BD0FFF74AFE032013E0532B00D0FB
S31508000BD07047414A137001233E4A13803C4A1370FA
S31508000BE07047542B08D0532B0FD00020394B188050
S31508000BF0374B187002B070BD374A53700223354A16
S31508000C001380334A13700020F4E7334A1370314BCC
S31508000C1001221A800020EDE7084608F01CFE00288D
S31508000C20B8D13CB12C4B5B79237000236380636099
S31508000C3023816381FFF712FE0220DBE7274E4FF47C
S31508000C400A71304608F02CFE05460023ADF806303A
S31508000C500DF1060106F50A7008F0CDFD1CB12581D7
S31508000C60BDF80630638130B1BDF80630AB4202D11B
S31508000C70022200230CE0FFF7F1FD0420BAE703EB9C
S31508000C8083035B009BB203449BB2303B9BB20132A9
S31508000C90042A0ADC1049885CA0F13001C9B2092986
S31508000CA0EDD9FFF7DBFD0520A4E7B3F5077F08D8E4
S31508000CB004B163800023074A1380054A1370012094
S31508000CC098E7FFF7CBFD052094E7002092E700BFE1
S31508000CD03B25002020250020A0140020A214002077
S31508000CE0014B1868704700BF9C1400202DE9F04797
S31508000CF0DDF82090002866D014469A460546002A54
S31508000D0063D0B1F50C7F62D3B9F1000F26D04846FF
S31508000D1009F0D6FF804640F20623984200D9984645
S31508000D202E46532306F8023B54236B70AF1D41230E
S31508000D306B7110222146384608F041FD2C2300F835
S31508000D40013BBAF1000F0CD02249042208F037FD06
S31508000D5004462C2304F8013B002309E0DFF87C90C5
S31508000D60D5E71D49F1E719F8032004F8012B0133EB
S31508000D709845F8D8032208F116013046FFF740FDDA
S31508000D8002E0202304F8013BE31BB3F5077FF8D301
S31508000D90002303E0202204F8012B0133072BF9D99D
S31508000DA04FF40A71304608F07BFD014604222046BE
S31508000DB0FFF73EFD0346452203F8022B4422427004
S31508000DC0581BBDE8F0870020FBE70020F9E7002064
S31508000DD0F7E700BFE8BB0008ECBB000828B9000825
S31508000DE00023062073B1704754B224B9013353B1B6
S31508000DF05DF8044B70470228F8D008680A4908606D
S31508000E001046F3E710B4094A52F823100A7A022A60
S31508000E10EAD9032AEAD1441EE4B2012CE6D90868C5
S31508000E20014908601046E1E700190020BC250020AA
S31508000E3010B5A2B0202200211AA809F02AFF2B4BD0
S31508000E401A934FF4E1331C9302238DF87530284A20
S31508000E501E9201248DF87D408DF87E408DF87F40E6
S31508000E608DF88030002115911691179118911991D6
S31508000E704FF4801315931F4B1993109111911291EA
S31508000E80139114911C4B10931C4B14933C2201A8EC
S31508000E9009F0FFFE0DF1040E0DF1540CBCE80F002D
S31508000EA0AEE80F00DCF80030CEF800300DF1180E71
S31508000EB00DF1400CBCE80F00AEE80F00DCF800307E
S31508000EC0CEF800300E4B0B934FF480630C938DF8DD
S31508000ED035408DF836400B4B0F930B4B1AAA01A9D8
S31508000EE00A4802F0EBFB22B010BD00BF10C4000890
S31508000EF000C400083C00015B010010004400015BCF
S31508000F0004190020D0250020041D0020B81D00204B
S31508000F1008B5024809F0B8F808BD00BFB81D00209A
S31508000F2008B5024809F0B0F808BD00BFB81D002092
S31508000F3010B58EB02422002105A809F0AAFE334B6D
S31508000F400593334B1B88ADF82430324B1B88ADF81C
S31508000F502630314B1B680B93304B1B680C93304A79
S31508000F6005A9304803F0A8F800B1FEE72E4B1C6827
S31508000F702E4A21462B4B186803F054F900B1FEE7B8
S31508000F804CB12146274B186809F020FB01464FF65D
S31508000F90FF73984206D10021224B186808F0C5FF56
S31508000FA038B1FEE71F4B186803F080FA0028F2D024
S31508000FB0FEE71F491B4B186803F0BCFA00B1FEE7B1
S31508000FC06FF0C00240F2FF33CDE900234FF0FF3245
S31508000FD04FF0FF331349086809F041FB00B1FEE7FB
S31508000FE0144B1B88ADF81030ADF80C3004A90D4B26
S31508000FF0186809F01CFB00B1FEE703A9094B18683D
S3150800100009F02BFB00B1FEE70EB010BD5B99000896
S315080010106AC4000868C4000870C400086CC40008E4
S315080010203D990008E8250020AC25002047990008CE
S315080010300700110058C2000808B50448044A121AE5
S315080010409210044908F092FC08BD00BF8001000810
S31508001050A00100088025002008B5154B83F30A88EF
S3150800106000F030F8FFF7E8FF124A0AE01068516806
S3150800107050F8230041F82300013391688B42F5D3D9
S315080010800C320D4B9A4201D20023F6E70B4A08E0D0
S315080010901168002041F82300013351688B42F7D3C9
S315080010A00832074B9A4201D20023F6E7FFF7C4F845
S315080010B00000002074F7000880F7000880F7000891
S315080010C080F7000870B5134B134A9A60D3F8882046
S315080010D042F47002C3F88820104A4FF480419166A2
S315080010E00F4D05F500544FF0FF3222660D4A626631
S315080010F00222C3F8D020BFF34F8FBFF36F8F0020B3
S3150800110002F09AFA4FF44036E660002008F027FF0E
S315080011102E6170BD00ED00E0000000080090005050
S31508001120008000447FFF7F01014B1860704700BFB5
S31508001130F025002008B5064B1860064B1B6F03F018
S315080011400703032B00D008BD09F004FFFBE700BF27
S31508001150F82500200080005010B504460FE0012352
S31508001160834024EA03040F2814D800EB40020E4BF0
S3150800117003EB82035A6812B19968C0B2904794B1DA
S31508001180234600201F28EAD813F0010FE7D10130C3
S315080011905B08F7E7103800EB40039B00B033024AC0
S315080011A013440433E6E710BDD41D002008B50D48E6
S315080011B00AF0E7F91A2002F02FFA28B91B2002F0E4
S315080011C02BFA40B9002008BD1A2002F035FA1A2079
S315080011D008F0C5FEF2E71B2002F02EFA1B2008F0E5
S315080011E0BEFEEFE7FCC300082DE9F04170B30C46DC
S315080011F0174605460F292BD803784BB1022B20D06A
S31508001200032B21D0012B01D0002303E00F2301E09B
S3150800121040F2FF736A78D34013F0010F1AD00F4BD0
S31508001220D3F81063C6B90AF09FF980463A462146B4
S31508001230284601F033FE40460AF091F93046BDE8EB
S31508001240F08140F2FF33E5E73F23E3E72226F5E79F
S315080012502126F3E72126F1E70226EFE700C003502F
S3150800126040B310B5044603784BB1022B1DD0032BAF
S315080012701ED0012B01D0002303E00F2301E040F22A
S31508001280FF736278D34013F0010F15D00AF06CF99A
S31508001290237862780121914003EB43031B01074A37
S315080012A0D1500AF05CF9002010BD40F2FF33E8E7A0
S315080012B03F23E6E7222070472120F5E740D0035078
S315080012C040B310B5044603784BB1022B1DD0032B4F
S315080012D01ED0012B01D0002303E00F2301E040F2CA
S315080012E0FF736278D34013F0010F15D00AF03CF96A
S315080012F0237862780121914003EB43031B01074AD7
S31508001300D1500AF02CF9002010BD40F2FF33E8E76F
S315080013103F23E6E7222070472120F5E740E0035007
S3150800132008B5084BD3F82404D3F82024104000F05D
S31508001330553020F0502003F50053C3F82004FFF77A
S315080013400BFF08BD00C0035008B5084BD3F82404AA
S31508001350D3F82024104000F0AA3020F0A02003F58E
S315080013600053C3F82004FFF7F7FE08BD00C003507A
S31508001370F0B585B00C4694469DF83410664A127846
S31508001380002A00F0BD800546BCF1070F00F2BA80BE
S315080013900A9A002A00F0B8800B9A002A00F0B68054
S315080013A00E9AB2F5006F00F3B38001285BD05B4A52
S315080013B002EB0C12127B002A00F0AC80002200928D
S315080013C0019202920392564A02EB4C1E002C4FD110
S315080013D04FEA4C1600209051CEF80400CEF80800CB
S315080013E0CEF80C009EF8020040F010008EF80200BD
S315080013F09EF8030040F030008EF8030021B9C1B210
S3150800140041F003018EF8031000930E9B013B444AFA
S315080014104FEA4C1002EB4C11165A63F30E1616528D
S315080014200A9B8B600B9B4B60CB789DF83C2062F344
S315080014308303CB70012D36D0109B002B56D0374A2C
S315080014404FEA0C1102EB0C1310985050119A5A607F
S3150800145000249C605D7372466946604601F07AFC1A
S31508001460204605B0F0BD0C9A002AA0D12D48F8E711
S315080014702B4F4FEA4C1607EB4C120020B851506020
S315080014809060D060907840F010009070D07840F06E
S315080014900300D0700029B7D107EB4C12C1B241F056
S315080014A03001D170B0E70E460A7B42F001020A739A
S315080014B0D2B242F002020A73CA68042161F39F029B
S315080014C0F26006F1100796E80F0087E80F00F26948
S315080014D06FF0030161F39F02F2610C9B7361012CAB
S315080014E0AAD10B9AB2610C9A7260A5E7002DA6D113
S315080014F00B4B03EB4C139A786FF304129A709EE722
S315080015000948AEE70748ACE70648AAE70548A8E74A
S315080015100448A6E70548A4E73C2500203C2000200F
S315080015203C1F0020018000F0028000F0078000F0D8
S31508001530134B1B78FBB110B50446F0B10AF014F84A
S315080015400023072B13D80F4A02EB0312127B0AB1AA
S315080015500133F6E723600B4A190102EB0313012452
S315080015601C730024545009F0FAFF204602E009F0E3
S31508001570F6FF054810BD054870470548FAE700BF5D
S315080015803C2500203C200020048000F0028000F06A
S31508001590018000F038B509F0E7FF04460023072B61
S315080015A006DC0C4A02EB0312127B12B90133F6E78A
S315080015B0002222B1204609F0D2FF074838BD01F0C3
S315080015C075FB0025054B1D70204609F0C8FF284607
S315080015D0F4E700BF3C200020058000F03C250020F1
S315080015E00F4B1B78BBB110B50446072815D809F070
S315080015F0BBFF0C4B03EB04131B7B1BB909F0AFFFB6
S3150800160009480BE0074B03EB041300241C7309F08D
S31508001610A6FF204602E005487047054810BD00BFF2
S315080016203C2500203C200020068000F0028000F0C7
S31508001630018000F000B583B0134B1B6801930023AB
S315080016408DF8043009F090FF104B1B7833B90F4B17
S3150800165001221A7009F083FF002309E009F07FFFD1
S315080016600B480EE00B4A02EB0312002111730133FB
S31508001670072BF7DD08238DF8073001A801F03AFBA0
S31508001680002003B05DF804FB5CC200083C2500207E
S31508001690038000F03C20002010B5104C2478BCB123
S315080016A0072817DC0E4C04EB0014247BA4B10C4C61
S315080016B04FEA001E04EB001C44F80E30029BCCF8DF
S315080016C004300024CCF8084001F044FB204610BD45
S315080016D00448FCE70448FAE70448F8E73C250020F4
S315080016E03C200020028000F0018000F0078000F016
S315080016F008B50A4B1B785BB107280BD8084B03EBD8
S3150800170000131B7B43B1002101F0E6FA002008BD57
S315080017100448FCE70448FAE70448F8E73C250020B3
S315080017203C200020028000F0018000F0078000F0D5
S3150800173008B50A4B1B785BB107280BD8084B03EB97
S3150800174000131B7B43B1012101F0C6FA002008BD36
S315080017500448FCE70448FAE70448F8E73C25002073
S315080017603C200020028000F0018000F0078000F095
S31508001770F8B5194B1F6D5B6D1F4002D40125002477
S3150800178002E0FEE701346D00072C24D83D42F9D06B
S31508001790124B1D652301124AD358002BF2D002EBD7
S315080017A00416B1680131B16072682046984780F026
S315080017B00100C0B2737B012BE4D10028E2D0094BAB
S315080017C003EB44131A7B6FF341021A731A7F6FF304
S315080017D041021A77D6E7F8BD0000045000200450ED
S315080017E03C2000203C1F002038B505460C46164B09
S315080017F0D3F8283103F00703013B052B20D8DFE88F
S3150800180003F003131B0F0B1709F07EFB052305B125
S31508001810286004B1236038BD09F076FB0623F6E795
S3150800182009F0BCFB0723F2E709F0AEFB0323EEE75A
S3150800183009F0AAFB0423EAE709F0A2FB0223E6E77C
S3150800184000231846E3E700BF0080005030B583B098
S3150800185005460C4600230193154BD3F8203203F0B6
S315080018600703042B21D8DFE803F0030B11161B002E
S3150800187001230DB1019A2A6004B1236003B030BD7B
S31508001880002101A8FFF7B0FF1123F2E709F086FB54
S3150800189001900723EDE709F053FE01900A23E8E7D4
S315080018A009F0C6FB01900923E3E70023E1E700BF3F
S315080018B00080005038B505460C460F4BD3F8503219
S315080018C003F00303022B12D0032B08D0012B0AD0F6
S315080018D00023184605B1286004B1236038BD09F015
S315080018E032FE0B23F6E709F02BFE0A23F2E709F08E
S315080018F09FFB0923EEE700BF0080005038B5054678
S315080019000C460C4BD3F8903203F00303012B05D099
S31508001910022B07D109F042FB072305E009F030FB4B
S31508001920022301E00023184605B1286004B12360AC
S3150800193038BD00BF00800050024B4FF480321A6752
S31508001940704700BF00900050204B984236D009D906
S315080019501F4B984236D01F4B984222D11E4BD3F8C4
S31508001960D0007047A3F5B703A3F55863984221D072
S3150800197006D91A4B984212D1174BD3F8BC007047B8
S31508001980174B984202D0174B984203D1124BD3F803
S31508001990A0007047144B9842F8D0002070470020EA
S315080019A07047124B984203D10B4BD3F8C8007047C7
S315080019B000207047084BD3F8B8007047064BD3F899
S315080019C0C0007047044BD3F8CC007047C0EA210129
S315080019D00048E801005A62020080E00F0024F40083
S315080019E080841E0000093D0040420F0080BA8C0129
S315080019F038B505460C46104BD3F8000100F0030035
S31508001A00032815D8DFE800F002080C10012305B1F9
S31508001A10286004B1236038BD09F0B6FA0323F6E757
S31508001A2009F006FB0923F2E709F0B4FA0823EEE702
S31508001A3000231846EBE700BF0080005038B505467E
S31508001A400C46174BD3F8200100F00700062823D8C8
S31508001A50DFE800F0040A0E16121A1E00012305B16B
S31508001A60286004B1236038BD09F04EFA0523F6E76D
S31508001A7009F08AFA0323F2E709F090FA0723EEE75A
S31508001A8009F07EFA0223EAE709F03EFA0623E6E7BA
S31508001A9009F07AFA0423E2E700231846DFE700BFD5
S31508001AA00080005038B505460C46104BD3F8400167
S31508001AB000F00300032815D8DFE800F002080C1030
S31508001AC0012305B1286004B1236038BD09F038FD4B
S31508001AD00A23F6E709F0ACFA0923F2E709F033FD21
S31508001AE00B23EEE700231846EBE700BF0080005003
S31508001AF030B583B005460C4600230193144BD3F842
S31508001B00603203F00703013B032B1FD8DFE803F01D
S31508001B10020E1914002101A8FFF790FF0F230DB13B
S31508001B20019A2A6004B1236003B030BD002101A8E0
S31508001B30FFF7B8FF1023F2E709F030FA0190072300
S31508001B40EDE709F01DFA01900223E8E70023E6E72E
S31508001B500080005030B583B005460C46002301933B
S31508001B600C4BD3F8703203F00303012B09D0022B78
S31508001B700DD114230DB1019A2A6004B1236003B074
S31508001B8030BD002101A8FFF78DFF1023F2E70023DF
S31508001B90F0E700BF0080005038B505460C46104BEC
S31508001BA0D3F8600100F00300032815D8DFE800F039
S31508001BB002080C10012305B1286004B1236038BD62
S31508001BC009F0BEFC0A23F6E709F032FA0923F2E720
S31508001BD009F0B9FC0B23EEE700231846EBE700BF34
S31508001BE000800050324B984252D029D8314B984247
S31508001BF048D009D9304B984247D0304B98421DD12E
S31508001C002F4BD3F8800070472E4B984237D005D912
S31508001C102D4B984210D12A4B186F70472B4B984280
S31508001C2002D02B4B984202D1254B986D7047294B11
S31508001C309842F9D00020704700207047002070476E
S31508001C40254B98422CD00CD9244B98422CD003F51E
S31508001C50740303F5105398420FD1194BD3F8980023
S31508001C6070471F4B984217D01E4B984203D1144B0E
S31508001C70D3F88C0070470020704700207047104B3F
S31508001C80586E70470E4B586F70470D4B986F7047DC
S31508001C900B4BD3F884007047094BD3F8880070477C
S31508001CA0074BD3F890007047054BD3F8940070475C
S31508001CB00048E8010024F400C0EA210180BA8C013A
S31508001CC00080E00FC0CF6A00405DC60080841E0019
S31508001CD000093D0040420F00007E56030090D003E5
S31508001CE080D54302006CDC0270B582B006460D460C
S31508001CF000230193104BD3F8804104F00304022C0F
S31508001D0016D0032C0FD0012C07D000240EB1019B4E
S31508001D10336005B12C6002B070BD002101A8FFF741
S31508001D208DFE0F24F2E709F039F901900724EDE753
S31508001D3009F026F90190E9E70080005038B5054614
S31508001D400C46104BD3F8400200F00300032815D8C0
S31508001D50DFE800F002080C10012305B1286004B181
S31508001D60236038BD09F0ECFB0A23F6E709F060F9B1
S31508001D700923F2E709F0E7FB0B23EEE700231846F1
S31508001D80EBE700BF0080005038B505460C46134BFC
S31508001D90D3F8000200F0070004281BD8DFE800F09B
S31508001DA003090D111500012305B1286004B123604C
S31508001DB038BD09F0C5FB0A23F6E709F039F9092306
S31508001DC0F2E709F0C0FB0B23EEE709F0C3F8800A37
S31508001DD00E23E9E700231846E6E700BF0080005017
S31508001DE038B505460C46134BD3F8080200F0070031
S31508001DF004281BD8DFE800F003090D11150001239C
S31508001E0005B1286004B1236038BD09F099FB0A239F
S31508001E10F6E709F00DF90923F2E709F094FB0B231D
S31508001E20EEE709F097F8800A0E23E9E7002318463B
S31508001E30E6E700BF00800050B0F5207F20D00ED81E
S31508001E40B0F5007F16D020D810B1B0F5C07F04D108
S31508001E500F4B186FC0F3033018E0002016E0B0F5FA
S31508001E60607F05D10A4BD3F88000C0F301100DE05E
S31508001E7000200BE0064BD3F89000C0F3046005E0A1
S31508001E80034B186FC0F3802000E000200130704734
S31508001E900080005038B505460C46174B4FF4803283
S31508001EA09A660020FFF7C8FF05FB00F0134BDA69B6
S31508001EB002F4803241F67131D9635B6823F440132A
S31508001EC06CB90F49884207D800210B430B494B6070
S31508001ED00AB10022CA6338BD4FF48011F5E7002C19
S31508001EE007DD0849884201D80021EEE74FF4801142
S31508001EF0EBE74FF44011E8E700900050000003506C
S31508001F00005A6202002D3101430905D0012B0DD07C
S31508001F10022B0DD0002200E0002200F01F0049B17C
S31508001F2002F580520123834013607047034AF4E7A1
S31508001F30034AF2E702F50052F4E700BF6480005056
S31508001F406880005008B5802007F087FD034B98424B
S31508001F5003D8034B4FF480321A6708BD005A620251
S31508001F6000A0005000B583B000230193B0F5807F30
S31508001F7000F0AF8011D9B0F5086F00F0B48044D9ED
S31508001F80B0F5286F00F0C38069D9B0F5306F79D104
S31508001F9001A90020FFF7B2FC75E0802873D8242831
S31508001FA071D324385C286ED8DFE800F04C4C4C4CD2
S31508001FB04C6D446D98546D6D6D6D6D6D6D6D6D6D7B
S31508001FC06D986D6D6D39A76D6D6D6D6D6D6D6D6D02
S31508001FD06D6D6D6DAC4C6D6D6D676D6D5FB1A27796
S31508001FE0776D6D6D6D6D6D6D6D6D6D6D6D6D6D6D09
S31508001FF06D6D6D6D6D6D6D6D6D6D6D6D6D6D6D6D03
S315080020006D6D6D6D6D6D6D6D7C00B0F5C06F65D0D5
S315080020100AD9B0F5E06F70D0B0F5F06F17D101A905
S315080020200020FFF7B9FD2EE0B0F5A06F60D0B0F53F
S31508002030B06F04D101A90020FFF756FE23E0B0F5E2
S31508002040806F20D101A90020FFF7F8FC1BE0B0F54E
S31508002050D06F18D101A90020FFF796FE13E0B0F55E
S31508002060186F4FD0B0F5206F04D101A90020FFF7F3
S315080020703FFD08E0B0F5106F05D101A90020FFF774
S31508002080AFFE00E003D2019803B05DF804FBB0F59B
S31508002090386F23D0B0F5406FF5D101A90020FFF7BE
S315080020A0A3FBF0E71C4B1B6F03F00703013B032B55
S315080020B0E9D8DFE803F00B02050805230193E2E7F8
S315080020C003230193DFE708230193DCE70223019347
S315080020D0D9E701A9002007F09BFCD4E701A9002055
S315080020E0FFF7E0FCCFE701A90020FFF781FCCAE76C
S315080020F001A90020FFF7AAFBC5E701A90020FFF701
S315080021001DFEC0E701A90020FFF7D4FBBBE701A924
S315080021100020FFF71FFDB6E700800050094B596EF7
S3150800212003F580534FF480325A66074A536A23F000
S315080021300103536211F4803F03D1044B4FF48032FC
S315080021405A6670470080005000C0075000A0005033
S3150800215038B504468020FFF705FF032800F0B58050
S31508002160604B4FF480125A665F4B45F60E02C3F871
S31508002170802003F580524FF0A061916203F5005369
S315080021804FF480329A62584B9B6D13F4803FFAD114
S31508002190554B9B6D13F0804FFAD1226863681B0577
S315080021A043EA0263227B43EA0243627B43EA023341
S315080021B0A27B43EA8213E27B13434B4D2B61AB6947
S315080021C003F00043226943EA8263626943EA0263D1
S315080021D0227E43EA0243627E43EA0223A27E134337
S315080021E0AB614FF400624FF44061404807F0F7FBDB
S315080021F02B6A23F00F03E269002A46D111460B43E6
S31508002200E17E43EA81031A43374B1A62E369002BDE
S315080022103DD1354A916A364B0B4094F8201043EA73
S31508002220411394F8211043EA011394F8241043EA61
S31508002230C10343F4803393622B4B9A6D2D4B934322
S31508002240FAD1294A02F580514FF080738B621369DF
S3150800225023F47003A06843EA005313614FF0004368
S315080022608B6194F822301BB9234B4FF080729A6227
S3150800227094F8233013BB204B4FF480329A621A4BE2
S315080022809B6D13F0804FFAD118E00821B7E7022BAF
S315080022901CD0154A916A164B0B4094F8201043EA55
S315080022A0411394F8221043EA016394F8241043EA90
S315080022B0C10394F8231043EA0143936294F8253046
S315080022C01BB1094B0D4AC3F8802038BD064B0022C6
S315080022D01A619A614FF408524FF47F41084807F093
S315080022E07EFBD6E7009000500040005A3840005A5E
S315080022F0C7FFFEFE030001000060005AF1A7FFFFBA
S315080023003440005A014B93F900007047E626002036
S31508002310014B1880704700BFDC260020B0F5207FEF
S3150800232048D02DD8B0F5007F39D04CD810B1B0F5CB
S31508002330C07F24D110B54C1E07F088FB07F073FD4B
S31508002340FFF7FAFA204A136F23F4704343EA04337B
S31508002350136708F0FFFD1D4BD3F8843013F0100FF8
S31508002360F9D11A4BD3F88410C1F38111C1F10201D6
S3150800237007F04EFD00F040F8FFF7E4FD10BD70478A
S31508002380B0F5607F0AD101390F4AD2F8803023F0C0
S31508002390300343EA0113C2F88030704770470139A9
S315080023A0094AD2F8903023F0F85343EA0163C2F899
S315080023B0903070470139044A136F23F4806343EA67
S315080023C08123136770477047008000500040005013
S315080023D008B50121022000F0F3F84FF42070FFF74A
S315080023E02BFD044B187007F031FB07F01CFDFFF7B7
S315080023F0A3FA08BD3D25002008B54FF4C07007F0C4
S315080024002CFB054B984205D902214FF42070FFF7A3
S3150800241085FF08BD0121F8E780F0FA0210B50446E9
S3150800242008F098FD0F4BD3F8843013F0100FF9D14C
S315080024300C4BD3F88410C1F38111C1F1020107F0E6
S31508002440E7FC0121002000F001F924B1FFF7D4FFD1
S31508002450FFF778FD10BD044B19784FF42070FFF78D
S315080024605DFFF5E7004000503D25002070B50446A5
S31508002470FFF7B8FB0546364B4FF4C0225A6603F5FC
S3150800248098335B68012B29D08020FFF76BFD052860
S315080024902DD025F040752F4B9C422FD02E4B9C42B9
S315080024A02FD008F031FD064684422DD82B4BDB6829
S315080024B013F0060FFAD1294B9A689D609B686B400A
S315080024C013F4F81F25D0254B9A6034468020FFF771
S315080024D049FD052821D0B44235D970BD204B0122CB
S315080024E05A60204B5B6813F0020FFAD1CCE707F06D
S315080024F0ADFA07F098FCFFF71FFACAE745F0007532
S31508002500CFE745F08075CCE70121204600F09EF81C
S31508002510CCE72046FEF708FED8E708F01BFD124B6D
S31508002520D3F8843013F0100FF9D10F4BD3F8841079
S31508002530C1F38111C1F1020107F06AFCFFF75CFFE4
S31508002540FFF700FDC7E70121002000F07FF8C4E788
S315080025500090005040420F0080841E000000015089
S3150800256000E0015000C001500040005010B504467C
S31508002570FFF7EAF90A4B4FF400225A6620F040703A
S31508002580084A944206D0084A944206D04FF0B4420C
S31508002590906010BD40F00070F8E740F08070F5E7F5
S315080025A00090005040420F0080841E00034AD36EFC
S315080025B023F0300301790B43D3667047004000507F
S315080025C0F8B50446204BD3F8843013F0100FF9D130
S315080025D01D4BD3F88430C3F381139C422DD008F0E9
S315080025E099FC0646012C11D008F0B5FF0546164F92
S315080025F007F500534FF000725A66204607F01AFC9A
S31508002600621E4FF4806393403B6706E0012107F0A2
S31508002610FFFBE9E70C4BD3F884300B4B5B6E13F0EA
S31508002620007F05D1084BD3F8843013F0200FF1D082
S31508002630284608F08BFF022C00D0F8BD0021304652
S3150800264007F0E6FBF9E700BF0040005010B50C465E
S31508002650034650B1094A127812B1094A934208D979
S3150800266021460220FFF7ACFF10BD08F053FC0346D5
S31508002670F0E721460120FFF7A3FFF5E7BC2000207D
S31508002680005A620238B52F4B4FF000425A6603F5DE
S315080026900B235C6C04F001044AF6CD321A64E8B9DF
S315080026A0294B5B6B13F00103FAD1274A556815F0DD
S315080026B0010539D002F50052012151601A46224916
S315080026C0096B11F0010F04D120498A4201D8013261
S315080026D0F5E71E498A422FD81D4625E000231A4AE7
S315080026E0126B12F0080F04D0184A934201D801332E
S315080026F0F5E7164A934221D8134B03F500522021D9
S31508002700916203F5805301225A60002300E00133E9
S315080027100D4A926A12F0200F02D10C4A9342F6D95A
S315080027200A4A93420CD8002514B1074B084A1A6482
S3150800273001F0D4FE284638BD0725F5E70725F3E757
S315080027400725F1E700900050004009503F420F006E
S315080027503254FFFF10B51A4B4FF000425A6603F584
S315080027600B235C6C04F001044AF6CD321A644378F4
S315080027705B0043F00103134AD363134B5B6B13F0FF
S315080027800B0FFAD1104A536823F4F873817843EA99
S3150800279001135360C178437943EA012393600179B1
S315080027A0837943EA012313610078FFF76BFF14B1BD
S315080027B0054B064A1A6401F091FE012010BD00BFC0
S315080027C00090005000400050004009503254FFFF6E
S315080027D010B50F2800D90F20124B5C6E03F58053F5
S315080027E04FF000425A6603F50B235A6C02F00102B9
S315080027F04AF6CD3119640C4B5B6B13F0800FFAD196
S3150800280009490B6A23F00F0303430B620AB1074A0F
S315080028100A64002C03DB064B4FF000425A6601F0AF
S315080028205DFE10BD00800050004009503254FFFF85
S3150800283000A0005010B5134B5C6E03F580534FF0A3
S3150800284000425A6603F50B235A6C02F001024AF657
S31508002850CD3119640C4B5B6B13F0800FFAD10A4922
S315080028600B6A23F4F85343EA00230B620AB1074ABA
S315080028700A64002C03DB064B4FF000425A6601F04F
S315080028802DFE10BD00800050004009503254FFFF55
S3150800289000A00050084B98420AD0084B984209D02D
S315080028A003F58043984201D00020704758207047AE
S315080028B056207047572070470000015B00000A50F9
S315080028C010B5044607F0B7FA042307E004F5805369
S315080028D004221A6104F500531A610B46591E002B8F
S315080028E0F4D1202323610023E360A36041F20202AE
S315080028F06261A3614FF4A0226262E3612362A3626C
S31508002900E3626363236504F500520249D1642363D5
S3150800291010BD00BFFF3F0D03F8B50446154608462F
S31508002920E1B1A36813F0010F34D06668B0FBF5F087
S31508002930451E16F001062BD0636D13F0280FFBD148
S31508002940A36C13F0030F0FD1A36C13F0010F1BD167
S31508002950A36C13F0020F19D1002706E02046FFF7F3
S3150800296099FF07F07AF8DCE70527204607F063FAAF
S31508002970236923F07F4343EA0563236146B3394657
S31508002980204607F077FA23E00927EEE70627ECE763
S315080029900027EDE76368A36803F0E003402B1DD02A
S315080029A017D9602B1ED0802B12D10123400105FBBD
S315080029B003F3B0FBF3F020380B4A02EAC002636D5A
S315080029C013F0010FFBD12263636D13F0010FFBD1E6
S315080029D0F8BD2BB1202BFBD10823E7E70623E5E753
S315080029E01023E3E70423E1E7F8FF7F0070B5044608
S315080029F00D461646436823B1636DC3F30B03002BDC
S31508002A00FAD12046FFF75CFF636923F44C5323F0A1
S31508002A100F036A7B1343EA8913432A8A13436361C4
S31508002A20A36823F0804323F0E2032A7B13432A7E1C
S31508002A3013436A691343A360AB681BB9A36843F0E1
S31508002A400043A360EA69002A70D0A168694B0B406D
S31508002A50117A43EA8153917A43EA4143918801F412
S31508002A60C0410B43517843EA8103517B43EAC103D2
S31508002A70917B43EA0113927843EA8223A360E268D2
S31508002A805D4B1340EA6911690B4351690B43917910
S31508002A9043EA8123D27943EA4223E360EB691B7850
S31508002AA0012B01D0032B03D1E36843F00403E36051
S31508002AB0EB691B78023BDBB2012B51D94F4B9C4289
S31508002AC06BD04F4B9C426AD003F580439C4262D040
S31508002AD04FF0FF3303F593735B0103F1A04303F54E
S31508002AE0703302225A60EB695A7A04F580539A6267
S31508002AF0EB695B7A1BB1E36843F40063E360EB6957
S31508002B00DB7A63B1E36843F40043E3603B4B9C42E2
S31508002B1047D03B4B9C424BD03A4B9C424FD0636AC2
S31508002B2023F00303EA69D27B134363623EB196F846
S31508002B302030002B4AD004F5805301221A6204F58E
S31508002B40805301225A60AA68002A4ED12978204665
S31508002B5007F090F9A36CDB4313F4405FFAD170BD1C
S31508002B60264B9C4213D0264B9C4212D003F5804339
S31508002B709C420AD04FF0FF33A6335B0103F1A04312
S31508002B8003F5703302225A60ADE70223F4E7002307
S31508002B90F2E70123F0E702239CE700239AE70123E3
S31508002BA098E7EB691B7B03F00F03174A5366B0E7F8
S31508002BB0EB691B7B03F00F03134A1367ACE7EB695A
S31508002BC01B7B03F00F03104AD367A8E7E36923F0DA
S31508002BD0090396F82220134396F82120134343F05D
S31508002BE0010304F58052D361A9E769682046FFF717
S31508002BF093FEABE7E39BBDFFFFF9F0870000015B9F
S31508002C0000000A5000400A5000900350F8B50446E8
S31508002C100D461E4617463AB1FBB101228A4000EB23
S31508002C20400109011D4B5A50072D1ED8A90004EB77
S31508002C3044031B0107FA01F20F2000FA01F11848B4
S31508002C40184407F04EF93FB9FEB10122AA4004EB39
S31508002C5044042401114B1A51F8BD01228A4000EBA5
S31508002C60400109010F4B5A50DEE7A5F108039B0006
S31508002C7004EB440C4FEA0C1C07FA03F20F219940A7
S31508002C800948604407F02DF9DDE70122AA4004EB64
S31508002C9044042401034B1A51DEE700BF40D0035019
S31508002CA034C0035040E003503CC0035010B5162012
S31508002CB007F051F9074B00245C65FF229A625C60B5
S31508002CC021462020FFF720F921462120FFF71CF98D
S31508002CD010BD00BF0000045029B9044A012303FAB5
S31508002CE000F010607047024AF8E700BF4010045031
S31508002CF04020045010B5044601212020FFF704F9AE
S31508002D0001212120FFF700F9114B01225A60227890
S31508002D1012069A606178A27842EA01429A61FF2215
S31508002D209A6200229A631A644FF000425A6503F5C4
S31508002D3000534FF0FF321A65162000F07DFCE1784B
S31508002D40162007F010F9162007F009F910BD00BF84
S31508002D500000045070B50C46C3B201259D402149B8
S31508002D6001F500531D65830003F1A04303F588238D
S31508002D7026685E60637B00EB400C01EB0C1CCCF80C
S31508002D80603094F80AE0E37A1B0543EA0E4394F8A8
S31508002D900CE043EA4E53CCF85C3022F00302CCF840
S31508002DA0702008F0E1FB104B5D65237A0BB10E4BE2
S31508002DB01D64637A0BB10C4B9D632379A27942EAB1
S31508002DC00342084B03F500518A6194F805C0E2797D
S31508002DD042EA0C4203F58054A2614D639D6408F0F3
S31508002DE0BEFB70BD000004500010045010B5C0B200
S31508002DF00124844008F0B8FB044B5A6D22EA040209
S31508002E005A659C6208F0ABFB10BD00BF0000045079
S31508002E1010B5C0B20124844008F0A6FB084BDB6A53
S31508002E20234205D1064B5B6B9C4306D0002400E089
S31508002E30002408F094FB204610BD0124F9E700BFE2
S31508002E400000045070B50446C3B201259D4008F041
S31508002E508BFB084B5E6B04EB440403EB04135C6EBC
S31508002E6008F07DFB354203D1C4F30A10013070BD6A
S31508002E700020FCE700000450074B4FF480325A66E6
S31508002E8003F5E6239B69C3F38512827003F03F02BC
S31508002E9042701B0B037070470090005070B50446D3
S31508002EA00D461646037841782C4AD2F810236A1E36
S31508002EB00E2A09D8DFE802F00A0A0A0A0A0A0A0AE2
S31508002EC00A0A0A0A0A0A0A00002200E02A463DB14E
S31508002ED016B30120884003EB43031B012049C85061
S31508002EE06178072920D82378890003EB43031B015F
S31508002EF08A400F2000FA01F11A48184406F0FFFF2D
S31508002F004DB906B3237862780121914003EB430358
S31508002F101B01134AD15070BD0120884003EB4303BF
S31508002F201B011149C850DBE723780839890003EBF0
S31508002F3043031B018A400F2000FA01F10B4818448D
S31508002F4006F0DDFFDCE7237862780121914003EB88
S31508002F5043031B01044AD150DDE700BF00C00350FC
S31508002F6040D0035034C0035040E003503CC00350E7
S31508002F70074B9B6813F0020FFAD1054B5B6813F0F9
S31508002F80020FF5D1024BDB69002BF1D1704700BF68
S31508002F9000800A50074B5B68064B5B6813F0010F0D
S31508002FA003D0044BDB69002BF6D1024B02221A61CF
S31508002FB0704700BF00800A5008B5FFF7D9FF034BDA
S31508002FC003F5805101224A601A6108BD00800A5043
S31508002FD008B5054B5B68012B00D008BDFFF7DAFF83
S31508002FE0024B01225A60F8E700800A5000A00A50F6
S31508002FF010B50446FFF7BCFF084B5B68012B05D0EC
S31508003000237843B10122054BDA6010BDFFF7E0FFD4
S31508003010FFF7AEFFF4E70022F5E700BF00800A508D
S3150800302038B505460C4608F071F8DDB92378D3B1F2
S315080030300123626812B1127843EAC2036278A2B128
S3150800304002221343A26812B1127843EA8213E27885
S315080030506AB104221343226912B1127843EA422361
S31508003060044A936438BD0023E3E70022E9E7002217
S31508003070F0E700BF00800A5038B5044607F01BFB8E
S31508003080864658B9064DA446BCE80F000FC5BCE8ED
S315080030900F000FC59CE8030085E80300704638BD9D
S315080030A0C020002047F6FF739A427DD009297DD8B3
S315080030B070B5414B13F801E0BEF1030F78D83F4BCA
S315080030C003EBCE0191F802C0604613F83E30012B9F
S315080030D026D03A4B03EBCE035C68002C6AD0B4F9D1
S315080030E00030934204DBB4F90230934200DC134605
S315080030F0A288FF2A2CD000212826C8221D46D21ACB
S3150800310092FBF6F20A4412B22C4B03EBCE0393F869
S3150800311001E0964501DD002A2FDA0EF1FF322CE098
S31508003120CB78A3EB0C0300249C420ED2191BA3EB0D
S315080031305101224800EBCE00406830F91100904258
S3150800314001DC0C46F0E74B1EEEE76344D8B230E0EC
S31508003150B4F90620B4F908600121CFE75C331849B1
S31508003160A1FB03139B09013212B2164696450FDDE1
S3150800317004EBC201898899420AD304EBC2018B6821
S31508003180B1F9061001FB0533002BE7DA0023E5E762
S31508003190013E04EBC604A2889A4200D31A46944517
S315080031A000D81046C0B204E0FF20704700207047E0
S315080031B0002070BD0020FCE760C20008C020002087
S315080031C0D34D621009296FD83A4B5B5C032B6DD837
S315080031D0394911F8331001292AD010B4364901EBC0
S315080031E0C3014C68002C63D0201D334901EBC30191
S315080031F08978914234D2304901EBC301C9789142AA
S3150800320033D92D4901EBC30393F801C00CF1FF3CF8
S315080032105FFA8CFCA388FF2B2AD00023634529D2AA
S31508003220591C30F83110914224D30133DBB2F5E74B
S31508003230214901EBC301C978914200D20A461E48CA
S3150800324000EBC3008078121AD2B2091A8A4200DD4E
S315080032500022194901EBC3035B6833F91200704772
S31508003260B4F902005DF8044B7047B4F90000F9E7B9
S315080032700123D3E74FF47A7101FB02F200EBC30096
S315080032804368D31AB0F9022002EBD27103EB61034B
S3150800329093FBF2F3B4F900009842E3DBB4F90200B9
S315080032A09842DFDC18B2DDE70448704703487047E8
S315080032B00248D7E760C20008C02000200080FFFF50
S315080032C008B50348FFF7D8FE012007F0F8F908BD4E
S315080032D06CC2000830B583B00446694607F0EDF9BC
S315080032E000B1FEE79DF80030134A1278934217D0D2
S315080032F00C2B06D164251049204607F0CBF928B1D6
S31508003300FEE7204601F000F90546F4E7294620467F
S3150800331007F0A7F900B1FEE7074B1B780A2B01D087
S3150800332003B030BD6946204607F0C7F99DF800206E
S31508003330014B1A70F4E700BFFC25002008B50248C7
S3150800334008F01FF908BD00BFF8C3000810B58AB019
S31508003350EC46194C0FCCACE80F000FCCACE80F00CC
S3150800336094E803008CE80300144BD3F84C3113F4AB
S31508003370002F05D0124B1C88FF2C05D98C2403E09E
S315080033800E4BD3F85041E4B28DF81940FEF7BAFF58
S31508003390241803D4FF2C02DDFF2400E000248DF856
S315080033A018400848FDF7C6FE6846FEF7D1FE3220EB
S315080033B0FEF7AEFF0AB010BDC4C300080080E00FD8
S315080033C00001E00FC017530208B50248FFF74EF890
S315080033D008BD00BF00B4C40408B50248FFF7C6F824
S315080033E008BD00BFC0EA210110B5FEF7F1FF4E4C3B
S315080033F0236F23F0070343F0030323670020FFF737
S315080034000DF8236F23F474432367484BD3F8FC3035
S3150800341013F0807F75D1464B0022C3F88020424CBA
S31508003420D4F8203123F0070343F00203C4F820310F
S31508003430D4F8283123F0070343F00203C4F82831EF
S31508003440D4F8803123F0030343F00103C4F8803134
S31508003450D4F8903223F0030343F00103C4F8903202
S31508003460D4F8403123F0030343F00103C4F8403194
S31508003470D4F8603123F0030343F00103C4F8603144
S31508003480D4F8403223F0030343F00103C4F8403272
S31508003490D4F8003223F0070343F00103C4F80032DE
S315080034A0D4F8083223F0070343F00103C4F80832BE
S315080034B0D4F8503223F0030343F00103C4F8503222
S315080034C0D4F8703223F0030343F00103C4F87032D2
S315080034D0D4F8203223F0070343F00103C4F820325E
S315080034E0FEF71CFE4FF0E022136943F00403136154
S315080034F0D4F8603223F0070343F00103C4F86032BE
S3150800350010BD0A4BD3F8FC2022F08072C3F8FC20C9
S31508003510074A0021C2F88010D3F8FC2042F08072D6
S31508003520C3F8FC207BE700BF0080005000ED00E0F8
S315080035300090005008B5074808F023F8FFF706FF83
S31508003540FFF742FFFFF748FFFFF7F8FEFFF74CFFCC
S31508003550002008BDF4C3000800B583B0094B93E802
S3150800356003000090ADF80410090C8DF806106846A3
S31508003570FFF7F0F80920FFF72BF9002003B05DF8F4
S3150800358004FB00BFECC3000810B582B0074A536FAE
S3150800359043F001035367002400948DF804406846FD
S315080035A0FFF704F8204602B010BD00BF00400050E7
S315080035B0002808DB0901C9B200F1604000F5614046
S315080035C080F80013704700F00F000901C9B2014BDB
S315080035D01954704714ED00E0002807DB00F01F02BD
S315080035E0400901239340024A42F82030704700BF41
S315080035F000E100E000280CDB00F01F02400901236F
S3150800360093402030034A42F82030BFF34F8FBFF370
S315080036106F8F704700E100E04211064B53F82230E5
S3150800362000F01F0023FA00F080F0010000F001000E
S31508003630704700BF00E100E0002808DB00F01F0229
S315080036404009012393406030014A42F82030704710
S3150800365000E100E010B507F087FF0B4B1B783BB97C
S31508003660094B01221A7007F07AFF6FF0040408E08C
S3150800367007F075FF07E00521204606F074FC0134C3
S3150800368064B24B2CF7DD10BD3E25002010B504466C
S3150800369007F061FF024B1C6007F058FF002010BDC1
S315080036A0E820002010B507F056FF034B1C6807F00A
S315080036B04DFF204610BD00BFE82000202DE9F0414F
S315080036C08EB007460E4614461D461368D3F800808A
S315080036D091F83130002B48D00DF1180CDFF830E2A4
S315080036E0BEE80F00ACE80F009EE80F008CE80F005C
S315080036F00023009301930293039304930593A3680D
S315080037000893237B012B3DD0022B3ED14FF4407307
S31508003710ADF82630607B06F04BFCADF82800CDF8F6
S3150800372034D001238DF80630A37B022B04D0032B5B
S3150800373002D0012B00D000238DF80030B36B6E4AFF
S315080037401A60B36B6D4A5A60B36B00229A60B36B0A
S315080037506B4ADA6032462946384600F0AFFA074621
S31508003760A8B138460EB0BDE8F0810DF1180CDFF8A7
S31508003770A4E1BEE80F00ACE80F009EE80F008CE855
S315080037800F00B5E74FF40073C2E70023C0E72369CB
S31508003790C5F8A430237E85F8AB30E37D85F8AA30DA
S315080037A0A37D85F8A930637D85F8A830A37E85F8C2
S315080037B0AD30637E85F8AC30237F85F8AF30E37E85
S315080037C085F8AE302368C5F8A0304E4807F0D9FE14
S315080037D001230422A17D607DFFF718FA0123022246
S315080037E0217EE07DFFF712FA002385F8B0302069C4
S315080037F007F0C7FE96F83130002B5DD006A9404683
S3150800380006F063FB95F8B03043F0040385F8B03052
S31508003810227D3D4B263203EB421214215160617D15
S31508003820A07D227D41EA004103EB4212C2F8DC1476
S31508003830E27D207E217D42EA004203EB4113C3F874
S31508003840D424A37B012B3CD0032B3AD0A37B023B89
S31508003850DBB2012B42D995F8B03013F0010F0CD02A
S31508003860627EA17E237D42EA01425B0103F1A04309
S3150800387003F5703341F2CC415A5095F8B03013F045
S31508003880010F10D0237D204AA63302EB43130221F1
S315080038905960E37E207F217D43EA004302EB411213
S315080038A041F2D041535008F50053184ADA6405210D
S315080038B0404606F0DFFA54E706A9404606F00BFB39
S315080038C0A6E795F8B03043F0010385F8B030002339
S315080038D00222A17E607EFFF799F9B7E795F8B03026
S315080038E043F0020385F8B03000230422217FE07EEE
S315080038F0FFF78CF9AFE700BFD99F000879A0000849
S31508003900F39F0008FCC3000800C00350FF3F0D03E7
S315080039101CC400083CC4000830B583B0007D104BB9
S3150800392000EB400203EB0212D56E00EB400203EBFC
S3150800393002131C6F0DF1070107F0A0FB9DF8073075
S315080039404BB904F00204074B9D4201D0002003E066
S3150800395024B1002000E0012003B030BD0120FBE7C0
S31508003960000004503F250020037D0E4A03EB430167
S3150800397002EB0111C96E03EB430302EB0312136F4B
S3150800398003F00203084A914201D0002070470BB9A0
S3150800399000207047036A006D984214BF002001207A
S315080039A0704700BF000004503F25002030B583B0A3
S315080039B003464169026902F1FF3CC5684C6F01F193
S315080039C07C020020C86750609060D060B1F87C0027
S315080039D06CF30E10A1F87C0091F87E0040F0100000
S315080039E081F87E0091F87F0040F0300081F87F0072
S315080039F0C1F88050C1F88440012081F88C0091F804
S31508003A0078000093024B6431FDF746FE03B030BDE3
S31508003A10D9A300082DE9F04184B0044600F1380620
S31508003A2000F11808002585637560B560F56090F8A3
S31508003A303A3043F0100380F83A3090F83B3043F0C0
S31508003A40030380F83B30494FC7630764007DFDF7E1
S31508003A504FFEA5637560B560F56094F83A3043F09B
S31508003A60100384F83A3094F83B3043F0030384F8A3
S31508003A703B30E7632764207D00EB40031B0103F11D
S31508003A80A04303F58023DB6EBB4219D00DF10F016D
S31508003A9007F0F4FA9DF80F30ABB194F844306FF3A1
S31508003AA0410384F844300094314B32462146207D48
S31508003AB0FDF7F2FD207DFDF73BFE04B0BDE8F08181
S31508003AC0FDF736FEF9E7204606F0E5FA054602A9AF
S31508003AD0207D07F0F7FA029B591E20690023A3618F
S31508003AE0E36123626362228B61F30E122283A27E54
S31508003AF042F01002A276E27E42F00302E276E0612C
S31508003B002562227D1B4902EB420001EB0010056F7E
S31508003B10C5F3400594F8247065F3410784F82470CA
S31508003B20A57E63F30415A576056FF8B265F3000064
S31508003B3084F8240002EB420201EB02110A6F92108C
S31508003B40616A62F39F01616294F8442042F00202BE
S31508003B5084F84420D2B263F3000284F844204FEA82
S31508003B60A808636C68F39F0363649CE73F250020FD
S31508003B7041A2000800000450F0B589B004460E467C
S31508003B80007DFDF7B5FD0DF11F01207D07F076FAE2
S31508003B90204606F080FA0546236D83424AD2A26C77
S31508003BA0934216D0238DC3F30A12324462F30E13DE
S31508003BB02385236D1E442665A26CE36C13449E423E
S31508003BC06FD0236DAB426ED0207DFDF7B1FD09B0F5
S31508003BD0F0BD701E276904F128030021A162E16285
S31508003BE021636163B4F828C060F30E1CA4F828C0EA
S31508003BF094F82A0040F0100084F82A0094F82B0064
S31508003C0040F0030084F82B00E762226394F82A2028
S31508003C1061F3041284F82A2023F00302237D42F07C
S31508003C20020203EB43031B0103F1A04303F58023C0
S31508003C301A67BEE79DF81F30B3B9227D1D4802EB0F
S31508003C40420300EB0313596EC1F30A1131445B6E4C
S31508003C5023F4FF4323F0700343EA011302EB420205
S31508003C6000EB02104366A4E70494134B0393002366
S31508003C700293019601230093236902462168207D59
S31508003C8005F092FE237D0B4A03EB430102EB01117B
S31508003C90496E21F4801103EB430302EB03125166CC
S31508003CA087E722658DE7012384F854302046FFF71D
S31508003CB0B1FE89E70000045041A2000870B588B03B
S31508003CC006460C461546A0220021204606F0E1FFCE
S31508003CD0A446AE46BEE80F00ACE80F00DEF800309A
S31508003CE0CCF8003004F1640C05F1140EBEE80F00A0
S31508003CF0ACE80F00DEF80030CCF80030AB6AA364FD
S31508003D00EA6AE264236595F8302084F8952095F8E8
S31508003D10332084F89620C4F89830012384F89C3020
S31508003D2084F85430AB6B23663460374B7360374B7B
S31508003D30B360374BF360374B7361374BB361374B1F
S31508003D403361FDF777FC10B1354A904253D1002113
S31508003D5007A8FDF7EDFB00284FD19DF81C30237509
S31508003D60002107A8FDF7E4FB00283FD19DF81C3089
S31508003D7084F87830207DFDF7BBFC002840D1E36C41
S31508003D800494284A03920022029201930123009385
S31508003D902369A26C2168207D05F006FE90BB237D71
S31508003DA003EB43031B0103F1A04303F5802342F20F
S31508003DB064024FF480119950AB6B93F91000FFF72A
S31508003DC03BFCAB6B93F9100006F0C9F804F19000C0
S31508003DD005F0D6FD3046FFF759FC2046FFF71AFED8
S31508003DE0207DFDF7A5FC48B1102007E0207DFDF7F2
S31508003DF0F7FB102002E0102000E0102008B070BD8C
S31508003E001020FBE71020F9E7E7A10008FBA100084E
S31508003E10A1A300088BA0000891A000081DA4000813
S31508003E20038000F041A200080346064A10680344CE
S31508003E30054A934202D8034A136070474FF0FF3091
S31508003E40704700BF0426002000800020BFF34F8F74
S31508003E500549CA6802F4E062044B1343CB60BFF31A
S31508003E604F8F00BFFDE700BF00ED00E00400FA0534
S31508003E70BFF35F8F074B5A6A22F480325A62D3F82F
S31508003E80942022F00102C3F89420BFF34F8FBFF3AA
S31508003E906F8F704700ED00E070B5FFF7E9FFA022CD
S31508003EA00021214806F0E9FA204B21498B4206D029
S31508003EB021F01F02203AB2F1005F0FD300E01D4A3D
S31508003EC01D4D286842F001021C4CC4F898001C4E8F
S31508003ED0C4F89C60C4F8A020013028608B4210D03A
S31508003EE01F3323F01F0343F00303134802681349E3
S31508003EF0C1F89820C1F89C30124BC1F8A0300132A5
S31508003F000260BFF35F8F0D4B0522C3F894205A6AEF
S31508003F1042F480325A62BFF34F8FBFF36F8FBFF3FD
S31508003F204F8FBFF36F8F70BD90ED00E0A025002086
S31508003F308025002000800020EC20002000ED00E015
S31508003F4003000020E17F002010B4194B5A6E02F4DA
S31508003F50803203F580514FF480304866586E4FF032
S31508003F6000434B66134B596C01F001014AF6CD34F8
S31508003F701C64104B5B6B13F0010FFAD10E4B012436
S31508003F805C600C4B1B6B13F0010FFAD011B1094B97
S31508003F900A491964002803DB094B4FF000415966AA
S31508003FA01AB9074B4FF480325A665DF8044B7047CE
S31508003FB00080005000400950006009503254FFFF4D
S31508003FC000A0005010B507F0CFFA0446144B1B7832
S31508003FD0DBB9144A1360144A1360144A136000F0DC
S31508003FE02DF8012007F0F0FB07F040FA0246104BC7
S31508003FF0186078B100230F4840F2E73104F066FEF6
S315080040000D4B1860064B01221A70204607F0A7FAD6
S31508004010002010BD204607F0A2FA2320F9E700BFCA
S3150800402042250020F8200020F4200020002100204E
S31508004030FC20002018FCFFFFF020002010B586B0F9
S3150800404000248DF814400094019402940394049477
S3150800405001238DF80030164807F093FABFF34F8F07
S3150800406005A8FEF7C5FF8DF8004069462046FEF70D
S31508004070D7FF0F21204607F05DF80F21204607F0ED
S315080040805FF8FEF799FF0B4B5B6813F0010F03D03F
S31508004090084BDB69002BF6D1064B00229A614620B5
S315080040A0FFF7CAFA462005F05AFF06B010BD00BF52
S315080040B0F4C3000800800A502DE9F843DFF8609041
S315080040C00646D9F8008008461746B8F1000F03D00F
S315080040D00E242046BDE8F88306B3336801331DD1A4
S315080040E0E1B100F067F805460028F1D0C9F80000EC
S315080040F000F086F8284606F02EFA044640B14046F7
S31508004100C9F8008000F07CF8284606F01FFAE0E7B8
S315080041103560002FDDD02846B847DAE72124D8E7EE
S3150800412004210020024B1868003818BF0120704788
S315080041300421002038B505460C4601F0A9F838B127
S31508004140204602F0F7FD40F26512412100F0FCF925
S3150800415044B1236833B11B68013303D0E3680BB15C
S31508004160A3684BB906F05DFC00204FF4C1724121EB
S3150800417000F0EAF9212038BD204601F0D9FB0023DA
S315080041800A4A85F83031C5E93743C2E9003363691D
S315080041904BB1074A422110684FF4D272C31A5842EB
S315080041A0584100F0D1F90020E5E700BFA02500201E
S315080041B048230020F8B5044607F0CDF9002607463F
S315080041C00E4B1B6893B19E68AEB196F82420D207B1
S315080041D011D435460FCC0FC50FCC0FC523682B60FD
S315080041E096F8243043F0010386F82430384607F061
S315080041F0ADF93046F8BD1B68E4E700BF0C26002081
S3150800420010B5044618B9054B054A136010BD00F0F1
S31508004210FDF9D4F8E830002BF6D1F4E739A5000803
S3150800422008260020084B10B4002A14BF14461C4662
S31508004230064B1C6019B15DF8044B06F0D3B9084665
S315080042405DF8044B704700BF39A500080826002012
S31508004250D0F8E0302DE9F04105460C4613B1C38D80
S315080042608B424CD0D5F8DC30002B4BD09E68002E04
S3150800427048D0D868002845D0013800B200281ADB93
S31508004280002106E0128A591CA24217D209B28842B6
S3150800429011DB0B1803EBD3735B1003EBC30206EBBE
S315080042A08202B2F80EC003F1FF3EA445EAD90FFA1E
S315080042B08EF08842EDDA2120BDE8F0814FF6FF72D4
S315080042C099B29142F7D09BB203EBC30306EB830680
S315080042D02846B6F9122095F82411D5F8F080FEF78D
S315080042E0E1FE0746B8F1000F04D0002332462846FF
S315080042F01946C047EC85C5F8E06085F82D710020A1
S31508004300BDE8F0810E20BDE8F08100BF2DE9F04739
S3150800431082B004460F46164600F0AEFF00286FD15D
S31508004320494D2B68D4F8DCA0D4F8E0800BB153458E
S315080043306AD04FF00009AF6000F0B4FF01280746C5
S3150800434004D001210022084600F0B0F92B68DAF8FB
S315080043500010D8F8002013B1186888425FD02046AC
S3150800436006F0D2FA94F82530C5E900A813F0010F33
S315080043700CBF32460122D4F8F05062F3000384F8E9
S3150800438025308DF80760002D50D0002220461146B2
S315080043900DF10703A847204600F06CFC0546B9F165
S315080043A0000F10D07EB9D4F88C3013BB012F06D07D
S315080043B0002D47D0254B002103205B6898472846E7
S315080043C002B0BDE8F087B5FA85F040F2FA4233212B
S315080043D0400900F0B9F83146204600F05FFD1C4B55
S315080043E005461B68414620469847D4F88C30002B72
S315080043F0DCD000224FF40073204600F017F9D5E709
S315080044000023114D6B608CE76B68002B91D04345F8
S315080044108FD1AB689F4215D04FF001098BE76968C9
S3150800442011B1096891429DD0596898E794F82A1005
S3150800443094F82D313246994228BF1946204600F095
S315080044406BFBA8E70025BAE7A02500201426002064
S3150800445008260020F8B50E46054607F07CF83146D2
S3150800446007462846FFF7F4FE044620B1384607F00B
S315080044706DF82046F8BD00F0DFFE22463146284694
S31508004480FFF744FF04460028F0D195F92430002BA5
S31508004490ECDA284606F08CFA0028E7D022462846A9
S315080044A095F82C1006F042FA0446DFE770B5044684
S315080044B00E4607F050F8314605462046FFF7CAFF74
S315080044C0044620B9044B01465B68032098472846F2
S315080044D007F03CF8204670BD1426002010B5FFF7FB
S315080044E021FE20B9054B1A68054B9A4204D1BDE84E
S315080044F01040044B1B68184710BD00BF502600200B
S31508004500008000405426002013B50446694606F08C
S31508004510D4F8204606F05CF9FF28024606D0204665
S315080045209DF80010FEF74EFE02B010BD0048FBE7EE
S315080045300080FFFF08B50B460249194006F0C1F88E
S31508004540002008BD0700110010B550B90548064BF4
S315080045500160064802601868054B1860186805F07F
S31508004560E8F910BD10260020042100200C230020A5
S3150800457008230020D0F8E43013B11A68032A10D8AB
S31508004580094BDB6BC3F3C20213F0380F03F00700C5
S3150800459018BF504313F4E07FC3F3821203D050438D
S315080045A07047986A400E7047008001B8431C07D0D0
S315080045B06FF0FF02034B10405A62A3F5805358620E
S315080045C0704700BF00E000B8F8B504460F46164627
S315080045D006F0C1FF0546A047044620B1284606F066
S315080045E0B5FF2046F8BD03F0BFFC04220549D1F803
S315080045F0003F23EA07033343C1F8003F024B5A64DE
S31508004600ECE700BF003000B0002002B838B10368FC
S31508004610044A002B08BF1346034A13607047014B30
S31508004620FAE700BF11A700082426002010B4D0E935
S31508004630544122400B4052EA030104D003495DF875
S31508004640044B096808475DF8044B70472426002088
S31508004650024B986F00F00F00704700BF003F00B094
S315080046600F2938B505460C460ED800F01BFE012862
S315080046700CD1074A2846936F23F00F032343936709
S3150800468006F07EF9002038BD2120FCE70220FAE773
S31508004690003F00B0014BD86F704700BF003F00B025
S315080046A0014B0020D9677047003F00B003282DE969
S315080046B0F74F0C46914600F28780444B13F800A04A
S315080046C0434B1E5C434B13F800B006F044FF80468C
S315080046D003F0FCFB074640B100230022CDE9003376
S315080046E001200023002103F0CFF903F0F7FB48B1BE
S315080046F000230022CDE90033002000234FF40041B7
S3150800470003F0C2F9002E52D0334BDD6C05F00805D4
S315080047100AEB0600314B23305844DD64C0B201F081
S315080047209BFD3146504603F081FC5A4631465046B9
S3150800473003F020FD2A4BDD64DFB12A4B1868D0F858
S315080047409410F83002F068F927490868FFF72EFF39
S315080047504FF0FF330B60254B1A68511C06D06FF0DB
S315080047607E402349C863A1F58051CA634FF0FF32E2
S315080047701A60B9F1000F04D01E4B002103205B68B4
S315080047809847B4B14FF480621B4B1D6F03F5005375
S31508004790C5F380251A67404606F0D8FE00F082FD6C
S315080047A0012808D15DB9002003B0BDE8F08F354671
S315080047B0AEE72546EFE7002CF0D10520F4E74FF4E5
S315080047C080620E4B1A67EEE72120EDE77CC40008ED
S315080047D078C4000874C40008004000B8006000B837
S315080047E0005000B804210020202600201C260020A6
S315080047F000E000B81426002000C001B800D001B8B7
S3150800480070B50D46064620B91A4B1B68A3B10E2093
S3150800481011E000F047FD012829D1174B93F9004014
S31508004820C4F12704641BC4F11C03002BB8BF5B4208
S31508004830232B0CDD212070BDA1F10B03002BB8BF83
S315080048405B42232BF6DC0C4B19700020F3E786F845
S31508004850275006F080FE094AE402136A04F4FF248E
S3150800486023F4FF231C43146206F070FEEDE70220D2
S31508004870E1E700BF042100204325002000C000B85E
S315080048800B4B08461A6D92020FD4D3F84021D10774
S315080048900CD4D3F83823D20708D4D3F8803013F4CD
S315080048A0706F14BF0120002070470120704700BFB9
S315080048B0004001B8F8B50D46D0F8943002EA010474
S315080048C023EA01032343C0F894303B4A01F00B0363
S315080048D023EA0401D1642340A2F580526F070646F5
S315080048E0D36410D50121FFF7CBFF60B103F03CFB81
S315080048F04FF4007314F0040F14BF304A304A13659E
S315080049000422304B5A64E90606D514F0100F14BF7A
S3150800491000221B222C4B5A652A0618D5230611D5C8
S315080049204FF40012254BDA6406F015FE0E210746F1
S31508004930032002F001F840F20122234B3846DA62DE
S3150800494006F004FE214606F1F80002F065F8EF05C8
S3150800495003D5E0052AD501F0DDFFA90503D5A20593
S3150800496027D501F0E3FF15F0600F0AD0D6F8E4105A
S31508004970304605F0CEFE8022144BC3F88800144B4F
S315080049801A612B0510D503F0EFFA124A14F4006FDA
S31508004990D2F8003F14BF43F0006323F00063C2F867
S315080049A0003F0422074B5A640020F8BD01F0ACFF13
S315080049B0D3E701F0B5FFD6E7006000B8005001B8AC
S315080049C0006001B8002002B8004000B8003F00B0FF
S315080049D0000002B8003000B00A78022A11D0101F71
S315080049E04242424152004B781201022B0BD0191F4A
S315080049F04B424B415B000549054842EA8312FFF7E3
S31508004A00E3BD0122EFE70123F5E700BFF0FFFF0052
S31508004A10ED5200080B78022B10D0181F4342434171
S31508004A205B004A78022A0BD0111F4A424A415200BB
S31508004A300F21044843EA8202FFF7C6BD0123F0E7C7
S31508004A400122F5E719530008F8B50D7804460A2D32
S31508004A500E4690F8247108D10625284600F080FFF6
S31508004A6018B90135EDB20A2DF7D1284600F078FFBE
S31508004A70002848D094F82431AB4209D1B288D4F83A
S31508004A80A4309A4204D17288B4F826319A4238D0B2
S31508004A9084F82451B3882846A4F82831738804F585
S31508004AA09275A4F82631B388C4F8A430FF2384F895
S31508004AB02B3005F0E1FF84F82A00284601F00CF8AF
S31508004AC010BB284600F042FFF0B9D4F8E03053B1E5
S31508004AD094F82411B94206D02046B3F91220FEF7FD
S31508004AE0E1FA84F82D01204601F016F90849A4F8E0
S31508004AF028010123074AD1F8FC1004F1F80002F056
S31508004B009FFD0020F8BD21200C2384F82431F9E705
S31508004B10004F00B0983F00B070B5054690F82401E4
S31508004B200C460C281FD0FF2901D1212070BD1AB1CF
S31508004B304FF0FF320D4B1A6005F09EFF064695F8BA
S31508004B40240100F04BFF844228BF0446E4B2B44275
S31508004B5038BF3446E0B285F82B0001F00DFAFF287D
S31508004B60E3D00020E2E70220E0E700BF2826002085
S31508004B7010B590F8243104460C2B44D0D0F8E03018
S31508004B8080F82A10DBB3D0F8F020D2B990F82D318E
S31508004B908B421CD300222046FFF7BEFF48BB1B4BA7
S31508004BA01B78063B032B23D8204601F0B5F8184995
S31508004BB00123184AD1F8FC1004F1F80002F040FD70
S31508004BC016E0B0F94220B3F912309A42E2DD00222B
S31508004BD0204694F82D11FFF79FFF50B9C4F8E0005E
S31508004BE0204605F00CFD4FF6FF739842014601D1A9
S31508004BF0002010BD2046BDE81040FFF72BBCFF2360
S31508004C0080F82B30F4E70220F3E700BFE026002007
S31508004C10004F00B0983F00B0F0B51D46144B04464F
S31508004C201B780F46164685B05BB1D0F8E030E3B185
S31508004C3002AAB3F912300092002205F06EF905B007
S31508004C40F0BD02A905F039FD9DF808103A46204640
S31508004C50FEF728FA014626B92A462046FFF75CFFE2
S31508004C60EDE72046FFF784FFE9E71846E7E700BFC8
S31508004C706AC20008F0B5D0F89C3095B0012B03D174
S31508004C800025284615B0F0BD04467C4905F02CFFE2
S31508004C90D4F8E0600146E58DC4F8E4002EB1336827
S31508004CA01BB15B68002B40F0A58006F054FC01465A
S31508004CB02046FFF75FFC0746084606F047FCD4F88F
S31508004CC0E410B3898DF80E70EB1A9BB2D6E9012071
S31508004CD000FB03226A48ADF80C3003680292994239
S31508004CE008D0204605F015FD80226649664BC1F8B6
S31508004CF088001A61654D644E00F0D4FA0128FBD18C
S31508004D002B6CDA07F8D4736CDB01F5D494F82530EC
S31508004D10DF070CD5D6F878215D4BC6F8EC23D3F817
S31508004D20F830D6F8A0209D06C6F8F02369D494F882
S31508004D302530D4F8E4106FF3000384F825302046B4
S31508004D4012919DF80E20029908AB02F0E5F880B999
S31508004D5000F0A8FA0128FBD14B4A4C49536CD801FC
S31508004D60FCD40B6CDB07F9D408A901A802F01AFBDE
S31508004D7018B10225284615B0F0BDE28D454B5A6498
S31508004D8000F036FE054600287FF47BAF94F8243001
S31508004D9060F3410384F8243000F034FBD4F8E030A3
S31508004DA0411E5B69C9B21E68FD29024604962CD9C4
S31508004DB0F71C3DD938490136096818BF0126C81CB1
S31508004DC042D85B68FF2A0491059344D1DF1C27D893
S31508004DD0204604A905F0F5FD002E7FF451AFD4F85E
S31508004DE0543198052AD494F8243043F0020384F801
S31508004DF0243045E71A68032A7FF657AF9F6A7F0E65
S31508004E005FE7204600F088FF91E75B680128059375
S31508004E1004D0204604A905F0D4FD31E70126D5E7DC
S31508004E2001331D4B5B6818D0D91C12D80593CFE700
S31508004E305B68FF280593F1D02A46EAE720464FF437
S31508004E40803105F04CFC1BE7FF2A5B680DD0059303
S31508004E50C2E7FF2AC0D10022BAE7DD1C08D82046DF
S31508004E6004A9059305F0ADFDB9E701220593ADE761
S31508004E70FF2AB4D10022204604A9F3E7FC4F00B06C
S31508004E8014230020003F00B0000002B800C002B89A
S31508004E90004F00B0008001B834260020F8B504465B
S31508004EA00E4619B990F824305A0647D43B4B3C4A6B
S31508004EB05B6A618EC3F3032313704FF6FF7399423F
S31508004EC0D4F8E47004D0374B1B680BB120469847DA
S31508004ED0354D2B68BB4256D0344B1B683BB11FB1CE
S31508004EE03A68002A51D0BF683946204698470727AE
S31508004EF0204600F011FF002E3BD006202C4B94F9DB
S31508004F00272093F900302549C3F127039B1A0A6A1B
S31508004F10DB0222F4FF2203F4FF2313430B62D4F8C7
S31508004F20E420244B2A60986701F0BEF80122224B40
S31508004F3020461A7005F024FD0020F8BD4FF6FF7CC8
S31508004F4066F38613154A80F82430536A164D1449B9
S31508004F50C3F30323D0F8E4700B702B68A0F832C0B3
S31508004F60BB4217D0114B1B68002BB8D100F0D4FEFA
S31508004F70072712493B46124AD1F8FC1004F1F800FB
S31508004F8002F05EFBB9E70127B2E717462046394625
S31508004F909847ACE700F0C0FE0127EAE700C000B872
S31508004FA0452500201C230020142300201823002058
S31508004FB043250020006000B844250020004F00B0BB
S31508004FC0983F00B0054A12681AB190F81E1119B92F
S31508004FD01047084601F0C2BC01487047102300205C
S31508004FE000FEFFFF404B2DE9F7431D6801F40079E9
S31508004FF000F00103174653EA090206460C4640D05C
S315080050004FF0000893B30023002201200021CDE9C8
S31508005010008802F039FD41462846FFF7D3FF0122F2
S3150800502041462886104605F0E8FAD5F8941005F1A9
S31508005030F80001F0F1FC2D490868FFF7B7FA4FF0C0
S31508005040FF330B602A4B1A68511C06D06FF07E405E
S315080050502849C863A1F58051CA634FF0FF321A6028
S3150800506095F8243043F0040385F82430B9F1000F8D
S3150800507007D00121284605F032FB24F400740643C4
S315080050800C43324623462846FFF7D0FA22044FF04F
S31508005090000308D5CDE900330022002300204FF491
S315080050A0004102F0F1FCFB070FD51349134A0868C3
S315080050B00021136811600121114A117003B1984744
S315080050C0104B002102205B68984717F00E0F08D096
S315080050D04FF409723B21002003B0BDE8F043FFF707
S315080050E033BA03B0BDE8F08304210020202600204F
S315080050F01C26002000E000B82023002024230020DE
S31508005100462500201426002008B558220021064806
S3150800511005F0BFFD1022FF21044805F0BAFD03F093
S315080051209BFD002008BD00BF043F00B0483F00B00B
S3150800513073B581217A22A0F814118221C0F80021C2
S31508005140C0E9411264220C23C0E9432207224FF02A
S31508005150FF35002680F824314FF6FF730446C287D0
S3150800516000F14C0282641F4AC385A0F8403080F8DB
S315080051702C3043864263038780F82760C0F8A45022
S31508005180458502F0B3FE2046FFF7BEFF0122164B07
S315080051902046C3F8382294F92710FFF731FB60231D
S315080051A0124A41F6FF71D3644FF03A421163116710
S315080051B00F4A2946D36440220E4B20465A64D4F837
S315080051C09420FFF777FB0E230022CDE9003340F247
S315080051D002231046194602F057FC00F0D9FB304668
S315080051E002B070BD4000FFFF005001B8004000B893
S315080051F0005000B8002002B838B506F0ACF94FF6F2
S31508005200FF710A4A13888B4203D106F09FF90E20D4
S3150800521038BD074C074D1B046567A4F580546367C2
S31508005220118006F093F90020F2E700BFDE26002081
S31508005230006001B80000FFFF08B50C4BD3F84C21FD
S31508005240531C11D012F080420ED1094B1B681BB1BA
S3150800525011460320FFF72AFA4FF08062054B1A65BC
S3150800526001225A6102229A6208BD00BF0080E00F3F
S3150800527004210020001002B84FF40022034B586C9A
S3150800528003F500535A64C0F3C0407047000002B8E3
S31508005290034BDB6913F4401F0CBF01200020704745
S315080052A00080E00F0F4BDB68C3F30363013B0B2B56
S315080052B00FD8DFE803F006060C06060606080A08F5
S315080052C0080802207047042070470520704703200D
S315080052D07047054B5B6913F0060F0CBF01200420CD
S315080052E0704700BF000002B800C001B8094AD36879
S315080052F0C3F303630B2B08D06FF49050184100F0EA
S31508005300010080F0010040007047506C10F48030B6
S31508005310EDD17047000002B80C4AD368C3F30363A3
S31508005320062B07D8042BD8B20BD8C31E58425841AF
S3150800533040007047072B06D1D2F868010028ECD147
S315080053407047022070470020704700BF000002B86F
S31508005350094BDB68C3F303639A1E012A8CBF00223C
S315080053600122012B02701EBF4FF4026222FA03F3D8
S3150800537003F001030B707047000002B8FF28074BC3
S3150800538009BF0A6851F82020C3F878224A6818BF6E
S31508005390C3F87822C3F87C22704700BF004001B8E2
S315080053A0144BFF281870144A144B09D11821C2F857
S315080053B0FC131022C3F8FC23114BD3F874320DE00A
S315080053C0C0431821C00000F00800C2F8FC13C3F857
S315080053D0FC030028F0D10A4BD3F8783240F2FF31AB
S315080053E0054AC3F30903C2F80C11A2F58052C2F8A4
S315080053F00C31704747250020002002B8001002B87B
S315080054000080E00F014B1878704700BF4725002041
S315080054104FF03A43D3F81421D2031ED54FF4803205
S315080054200E49C1F81421A1F58051C1F818215A6D09
S31508005430D1B2C2F30722C3F8A410C3F8A4200422E9
S31508005440C3F8A4200022C3F8A420C3F8A420C3F8F4
S31508005450A420C3F8A420C3F8A4207047002000BAEB
S31508005460F0220B4B01219A64A022A3F580539A647B
S315080054704FF03A43826CC3F8F410FC21C3F8CC1001
S31508005480C3F8D0204FF40052C3F8F020704700BF8D
S31508005490006000B8F8B50D464FF03A441746064680
S315080054A006F059F801230421074A6363E760266179
S315080054B06561C2F81411054AC2F8843106F046F847
S315080054C00DB102236363F8BD002000BA00E100E0D5
S315080054D02DE9F04105460124006800F00700063072
S315080054E004FA00F3A868EC685E1EA04262D000EADF
S315080054F0060E6C6810441E430640A3EB0E000EEB26
S31508005500040C8242644618D9D31A0EEB030298B1EA
