S01B00004E6574416E616C797A65725F464732335F5630312E73333705
S31508000000000800201916000863A3000863A3000867
S31508000010ABAE000863A3000863A3000863A3000847
S3150800002063A3000863A3000863A3000863A300088A
S3150800003063A3000863A3000863A3000863A300087A
S3150800004063A3000863A3000863A3000863A300086A
S3150800005063A3000863A3000863A3000863A300085A
S3150800006063A3000863A3000863A30008C514000877
S31508000070B514000863A3000863A3000863A3000877
S3150800008063A3000863A3000863A3000863A300082A
S3150800009063A3000863A30008311D000863A30008D2
S315080000A063A3000863A3000809190008E1180008FB
S315080000B063A3000863A30008218A0008DD940008EA
S315080000C0BDB60008B9B60008918C0008D3B600087A
S315080000D0C1B60008AD940008C5B6000841950008E9
S315080000E07995000863A3000863A3000863A30008C2
S315080000F063A3000863A3000863A3000863A30008BA
S3150800010063A3000863A3000863A3000863A30008A9
S3150800011063A3000863A3000863A3000863A3000899
S3150800012063A3000863A3000863A3000863A3000889
S3150800013063A3000863A3000863A3000863A3000879
S3150800014063A3000863A3000863A3000863A3000869
S3150800015063A3000863A30008B5C200083174000849
S3150800016063A3000863A300085FB6000865B6000825
S3150800018012F0080F00D1704708B500F00DF8044AC0
S31508000190136801331360034B01221A7008BD00BFB0
S315080001A060120020432500205FF800F065B10008C2
S315080001B00000000000000000000000000000000031
S315080001C00348044B834202D0034B03B118477047D8
S315080001D01C2700201C27002000000000064B0749AA
S315080001E0C91A891048BF0131491003D0044B0BB115
S315080001F001481847704700BF1C2700201C2700200D
S315080002000000000010B5064C237843B9FFF7D8FF65
S31508000210044B13B10448AFF300800123237010BDCB
S3150800022042250020000000009C06010808B5054B81
S315080002301BB105490548AFF30080BDE80840FFF744
S31508000240CDBF00BF00000000400A00209C06010840
S31508000250A3F5803A704700BF174B002B08BF134B16
S315080002609D46FFF7F5FF00218B460F461348144AB3
S31508000270121A0BF075FA0E4B002B00D098470D4B4F
S31508000280002B00D098470020002104000D000D48DF
S31508000290002802D00C48AFF3008009F0C7FB200005
S315080002A0290009F07EFF09F06DFB00BF0000080079
S315080002B000000000000000000008002000080020E0
S315080002C080250020000000000000000000B583B073
S315080002D00B4B4FF080625A66012304220921022043
S315080002E002F074FF0023019302E0019B013301939E
S315080002F0019A49F63F439A42F7D903B05DF804FBE1
S31508000300009000502DE9F04186B000F06BF9022309
S31508000310009301234FF4612206217E4809F0D6FE98
S315080003200023ADF81030ADF8143005A904A800F084
S31508000330ABFD00283AD07849784809F0C7FE42F65E
S31508000340B112BDF81010764809F0C0FE4FF20852F7
S31508000350BDF81410734809F0B9FE0023ADF80E3045
S315080003600493059305AA04A90DF10E0000F08CFE6E
S31508000370F0B169494EF67D330193BDF80E3000930E
S315080003804FF40C73049A684809F0A0FE059B0BB15C
S31508000390049B7BB9002001F021F9804600284DD046
S315080003A0624809F093FE0024274657E06049C3E7F0
S315080003B05F49DFE75F4809F089FE0BF025FD054632
S315080003C00499059800F040F90BF01EFD04465A48BA
S315080003D009F07CFE0BF032FD641B054660B3E20EA5
S315080003E063011B1B62F10002520242EAD3525B020E
S315080003F01B1942F10002910141EA93619801C01A62
S3150800040061EB020100192A464FF0000341F1000191
S3150800041009F028F9034622464849494809F056FE94
S3150800042000F02AF9044600F021F903462246294637
S31508000430444809F04BFEADE70346ECE7424809F0AD
S3150800044045FE57E0414A1DE0404B8D421ED03849D3
S31508000450009131463E4809F039FE0134072C17D879
S315080004603C4B33F81460314640460AF0C6FDB0FAF4
S3150800047080F14909384B1D5D8D4208BF01370028B8
S31508000480E0D1364A002DDFD0344BDEE72249DFE7DC
S3150800049008223946324809F019FE08220023CDE918
S315080004A0002340460AF0F0FD0222114640460AF0B3
S315080004B0EDFD2C4B1B88ADF8143005A940460AF013
S315080004C0E1FD0446C8B92849284809F0FFFDB4B932
S315080004D00022652140460AF02BFD044698B9224AB7
S315080004E001236521224809F0F1FD74B1214621480E
S315080004F009F0ECFD06B0BDE8F0810D49E4E71E48B9
S3150800050009F0E4FDE4E70A4AEAE71C4809F0DEFDDB
S31508000510F0E700BF44C3000820C3000898C30008DA
S31508000520B4C30008DCC3000804C4000804C50008F6
S3150800053028C3000844C4000854C4000864C400085A
S3150800054070C40008B0C40008E4C4000838C3000832
S315080005501CC50008A8C60008A0C6000830C30008C5
S3150800056040C50008B8C6000840C300085CC50008B6
S31508000570D8C5000808C600088CC5000854C6000877
S3150800058031B300B58E46144B1B889BB2134A1288AA
S3150800059092B29B1AC3F30A03C3F5FF6307338B4270
S315080005A018D30D4B1B889BB2002208E010F802C036
S315080005B00B4901F803C00133C3F30A03013272453C
S315080005C0F4D3BFF35F8F044A138001205DF804FB60
S315080005D0012070470020F9E7262500202425002061
S315080005E05C0A00200023034A1380034A1380034A47
S315080005F0136070472625002024250020580A00206D
S315080006000CE00D4A13889BB20C49C95C0C4B596423
S3150800061013889BB20133C3F30A031380064B1A8867
S3150800062092B2084B1B889BB29A4204D0044B9B6C2F
S3150800063013F0400FE5D17047242500205C0A0020FE
S315080006400000015B2625002060B110B50C4601B9F3
S3150800065010BDFFF795FF0028FAD1034A1368234413
S315080006601360F5E7704700BF580A0020014B186869
S31508000670704700BF580A0020044B188880B2044B04
S315080006801B889BB2C01AC0F30A00704726250020B3
S3150800069024250020F0B597B00023059305AB40222A
S315080006A006A9304800680AF05EF910B90446059BA9
S315080006B03BBB17B0F0BD9DF80850BDF80A60BDF801
S315080006C0107000F0DFFD00903B463246294626486A
S315080006D009F0FCFC9DF80830432B11D1BDF80A102F
S315080006E0039800F073F90BE0BDF81050BDF81260DE
S315080006F000F0C8FD0346324629461C4809F0E6FCC8
S315080007000134059BA342D4D902A904F158036B44CA
S3150800071013F8400C00F0FEFC01380428F0D801A3B9
S3150800072053F820F0B70600083907000847070008FD
S31508000730E90600085507000800F0A4FD01460C4824
S3150800074009F0C4FCDCE700F09DFD0146094809F004
S31508000750BDFCD5E700F096FD0146074809F0B6FC52
S31508000760CEE700BF04260020BCC60008F4C6000871
S3150800077028C7000864C7000894C70008644B1B789C
S3150800078003B970472DE9F04FADB00020604B1870E3
S3150800079000F024FF8346002800F0A4800027B8460E
S315080007A062E004AA1CA958460AF0E0FC10B9BDF894
S315080007B012507CE000257AE06522002324B99DF8D2
S315080007C0300090B1534C00E0534CBDF81200BAF11A
S315080007D0400F0CD9DFF864C1CDF808C00190009429
S315080007E04E4809F073FC002438E04D4CEDE7DFF87D
S315080007F050C1F1E703F1B0026A4412F8402C11091E
S31508000800484E16F8019000F1B001694401F8749C4D
S3150800081002F00F0116F801E000F1B101694401F890
S3150800082074EC00F1B2026A440330202102F8741C09
S3150800083001339BB2214604F11002934201D29D4234
S31508000840D8D800F1B0030DEB0300002300F8743C80
S315080008500FAA354809F03AFC1034A4B2A54202D9C9
S3150800086023460020E6E70137072F32D800230493F2
S31508000870059306930793089304AA022158460AF09B
S315080008806DFC814628B3002309930A930B930C93B6
S315080008900D930E9309AA014658460AF061FC0446D0
S315080008A0BDF812A0BAF1400F7FF67BAF0025494686
S315080008B058460AF059FC1D4B19680131196008F1B0
S315080008C00108002C7FF478AFBDF838209DF9323046
S315080008D074E7B8F1000F08D1154B1B68134A126864
S315080008E093420ED12DB0BDE8F08F002265215846FF
S315080008F00AF01EFB01460028EED00E4809F0E6FB7A
S31508000900EAE70B4B19680C4809F0E0FBEAE700BF79
S315080009104325002020C30008B4C70008D8C700082C
S3150800092028C30008B4C8000804C800085C120020E0
S315080009306012002018C8000860C80008BCC7000874
S3150800094000C4000838B5FFF75BFE0BF05DFA104BE4
S315080009501A685B68904271EB030304D2FFF79AFEAC
S31508000960FFF70CFF38BD05460C460A4B19680131DE
S315080009701960094809F0AAFB4FF47A700BF064FA7B
S31508000980401944F10004024B18605C60E6E700BFBA
S315080009900008002064120020A4C8000800B583B02F
S315080009A00B46009202464FF40C71074800F070FCA3
S315080009B0B0F50C7F02D003B05DF804FB014602488F
S315080009C0FFF742FEF7E700BF681200202DE9F04165
S315080009D0A6B0002878D00446002975D0B1F5077F5F
S315080009E001D94FF40771002320930D4620AB0093DD
S315080009F0112321AA204609F0B1FB00286CD09149A1
S31508000A0021A80AF0CCFE00286CD08F4921A80AF04C
S31508000A10C6FE00286CD08D4921A80AF0C0FE002821
S31508000A2000F08980209F3C44BD4240F28A80EF1B3B
S31508000A30874921A80AF0B3FE002800F0848085497A
S31508000A4021A80AF0ACFE002800F0B580824921A84A
S31508000A500AF0A5FE002800F02781804921A80AF09F
S31508000A609EFE002840F0808100252E46BD4280F07B
S31508000A7058810023089308AB0093082306AA791B1C
S31508000A80601909F06BFB002800F04B81089B1D4498
S31508000A90032E00F23A810DF1120106A809F03AFB7D
S31508000AA0002800F03881BDF81280404609F026FB80
S31508000AB0002800F03081731C06F198020DEB02063F
S31508000AC006F8848CDEB2D1E7654A00216548FFF74F
S31508000AD065FF26B0BDE8F081614A00216148FFF74D
S31508000AE05DFFF6E7604A012121A8FFF757FFF0E707
S31508000AF05E4A13889278B2B15D4A5C49C978A1B159
S31508000B005C495A48007A0290019100925A4A60213B
S31508000B1008A808F049FF002809DB08AA012121A82E
S31508000B20FFF73CFFD5E7554AE7E75549E9E70023CC
S31508000B308DF82030F1E7534A002121A8FFF72EFF50
S31508000B40C7E7002774E700230093082306AA394657
S31508000B50204609F003FB80B105A906A809F0DAFAD0
S31508000B6028B1BDF81440204609F0C8FA58B9464AD3
S31508000B70002121A8FFF712FFABE7444A002121A86C
S31508000B80FFF70CFFA5E7394A1480632C94BF0023AE
S31508000B90012393706BB1364B009323463C4A3021B0
S31508000BA008A808F001FF08AA012121A8FFF7F6FE08
S31508000BB08FE7324BF0E700230093082306AA39464D
S31508000BC0204609F0CBFA58B12C4906A80AF0E7FDE9
S31508000BD090B1274906A80AF0E2FD38B901220CE0CF
S31508000BE02C4A002121A8FFF7D9FE72E72A4A0021DC
S31508000BF021A8FFF7D3FE6CE700221C4B1B88632B4A
S31508000C0094BF002101218A4210D0632B0CD9184ABF
S31508000C100092224A502108A808F0C6FE08AA002118
S31508000C2021A8FFF7BBFE54E7144AF1E70F4B9A7069
S31508000C302AB11B4A012121A8FFF7B0FE49E7194A44
S31508000C40F8E700BF18C9000838C9000864C90008D1
S31508000C508CC90008D8C9000848CA00088CCA000808
S31508000C600CC9000814C900081CC9000898140020FB
S31508000C70DCC80008C8C8000840C90008E8C8000859
S31508000C80D0C8000868C900089CC9000890C90008AF
S31508000C90C8C90008DCC90008F8C9000810CA000855
S31508000CA0D8C80008E4C80008002300930A2308AA45
S31508000CB03946204609F052FAA8B12E4908A80AF082
S31508000CC06EFDB0B12C4908A80AF069FDA8B92B4BEE
S31508000CD00122DA70294BDB78ABB1294A012121A818
S31508000CE0FFF75CFEF5E6274A002121A8FFF756FE26
S31508000CF0EFE6224B0022DA70ECE7234A002121A80E
S31508000D00FFF74CFEE5E6214AE8E7214A002121A83B
S31508000D10FFF744FEDDE61F4A002121A8FFF73EFE45
S31508000D20D7E60EB100230FE01B4A002121A8FFF7E2
S31508000D3035FECEE603F198026A4412F8841C0F4A7F
S31508000D401A4411710133DBB29E42F3D80B4B1E7263
S31508000D503346124A302108A808F026FE08AA0121BF
S31508000D6021A8FFF71BFEB4E60D4A002121A8FFF7CC
S31508000D7015FEAEE6D0C80008C8C8000898140020BA
S31508000D80F0C8000850CA000870CA0008FCC8000865
S31508000D9094CA0008A8CA0008C4CA0008E0CA00081D
S31508000DA000CB000810B414460CE0094BA3FB01C3A2
S31508000DB0DB089C4603EB8303A1EB4303013C30337A
S31508000DC003556146002CF0D110445DF8044B70477A
S31508000DD0CDCCCCCC13467AB110B401F00F0C013B44
S31508000DE0064C14F80CC000F803C00909002BF4D10E
S31508000DF010445DF8044B70471044704728CB000830
S31508000E0038B51D4A136801331360012408E0012B25
S31508000E1018D9631C194AD35C542B13D00134A4B2D5
S31508000E20174B1D88A5420DD9144B1B5D532BF5D1C5
S31508000E302B1B9BB2052BEAD91048204409F007FA68
S31508000E400028EBD0A54205D800230D4A13800D4A89
S31508000E50137038BD2D1BADB208482A4601190AF091
S31508000E6065FC074B1D80012D03D90222054B1A701C
S31508000E70EFE70122FAE700BFA4140020A814002017
S31508000E80282500204425002070B506460D46092170
S31508000E900C4809F001FA044603210B4809F0FCF94D
S31508000EA006B1348005B1288042F6B1139C4201D0C0
S31508000EB0002070BD4FF20853984201D00020F8E791
S31508000EC00120F6E71CCB000818CB0008002800F024
S31508000ED0CC802DE9F04715460746002A00F0C78062
S31508000EE0B1F50C7FC0F0C580B2F818A05369002B85
S31508000EF06AD0BAF1F30F6AD8B846532308F8023B0A
S31508000F0054237B70BE1D52237B710A222968304602
S31508000F10FFF748FF2C2400F8014B0322A988FFF7A6
S31508000F2041FF0470B5F90610002953DB2B234370E3
S31508000F300029B8BF4942032289B20230FFF732FFBF
S31508000F402C2400F8014B0322297AFFF72BFF00F81F
S31508000F50014B6B7A002B3FD04849042209F02BF944
S31508000F602C2400F8014B0222A97AFFF733FF00F878
S31508000F70014B0222E97AFFF72DFF00F8014B022206
S31508000F80297BFFF727FF00F8014B0222697BFFF751
S31508000F9021FF00F8014B0422E989FFF71BFF00F83F
S31508000FA0014B0222297CFFF715FF00F8014BD146B9
S31508000FB003225146FFF7F6FE00F8014B831B352B3B
S31508000FC05AD1044600231DE04FF0000A94E74FF07B
S31508000FD0F30A91E72D23AAE72949BEE76A69D25C95
S31508000FE01209DFF8A0C01CF80210224602F8021BFC
S31508000FF06969C95C01F00F011CF8011061700133C1
S315080010009BB214469A45E9D802E0202304F8013B2E
S31508001010231AB3F5F37FF8D34FEA49010322353192
S315080010204046FFF7BFFE02E0202304F8013BA31B5E
S31508001030B3F5077FF8D3002303E0202204F8012B39
S315080010400133072BF9D94FF40A71404609F024F900
S31508001050014604222046FFF7BDFE0346452203F853
S31508001060022B44224270D81B04E00020704700205F
S3150800107000E00020BDE8F0870020FBE740C3000839
S3150800108028C3000828CB0008F0B589B007460E46E5
S3150800109015460DF1040C1C4C0FCCACE80F0094E877
S315080010A007008CE8070001AA4FF40C711748FFF7F0
S315080010B00DFFB0F50C7F1CD0002207B13A8006B1AF
S315080010C030600DB1114B2B60B0F50C7F14D00020A9
S315080010D009B0F0BD303B9BB243EA021292B201312D
S315080010E00329EADC0A4B5B5C402BF3D9373B9BB2FE
S315080010F0F2E700210A46F3E74EF67D339A4201D01D
S315080011000020E5E70120E3E73CCB0008D8160020DD
S31508001110021900200346574A107848B370B582B0C2
S315080011200C4601282FD054490A88551CADB20D80AB
S3150800113052498B54062D41D0B5F50C7FC0F09780E7
S3150800114044B14E4B5A79227006336360002363809C
S3150800115023816381494B93F82E32452B04D1474BA3
S3150800116093F82F32442B3BD0FFF74AFE032013E0B7
S31508001170532B00D07047414A137001233E4A13800F
S315080011803C4A13707047542B08D0532B0FD00020BD
S31508001190394B1880374B187002B070BD374A5370F8
S315080011A00223354A1380334A13700020F4E7334A82
S315080011B01370314B01221A800020EDE7084609F02A
S315080011C046F80028B8D13CB12C4B5B792370002334
S315080011D06380636023816381FFF712FE0220DBE7E9
S315080011E0274E4FF40A71304609F056F80546002393
S315080011F0ADF806300DF1060106F50A7008F0F7FF9E
S315080012001CB12581BDF80630638130B1BDF80630C2
S31508001210AB4202D1022200230CE0FFF7F1FD0420C5
S31508001220BAE703EB83035B009BB203449BB2303BF4
S315080012309BB20132042A0ADC1049885CA0F130010D
S31508001240C9B20929EDD9FFF7DBFD0520A4E7B3F5F7
S31508001250077F08D804B163800023074A1380054A2C
S315080012601370012098E7FFF7CBFD052094E70020CF
S3150800127092E700BF4425002028250020A814002056
S31508001280AA140020014B1868704700BFA414002058
S315080012902DE9F047DDF82090002866D014469A46D6
S315080012A00546002A63D0B1F50C7F62D3B9F1000F69
S315080012B026D048460AF06BFA804640F20623984242
S315080012C000D998462E46532306F8023B54236B70E2
S315080012D0AF1D41236B7110222146384608F06BFF7B
S315080012E02C2300F8013BBAF1000F0CD02249042246
S315080012F008F061FF04462C2304F8013B002309E0AB
S31508001300DFF87C90D5E71D49F1E719F8032004F8C2
S31508001310012B01339845F8D8032208F11601304607
S31508001320FFF740FD02E0202304F8013BE31BB3F579
S31508001330077FF8D3002303E0202204F8012B0133AA
S31508001340072BF9D94FF40A71304608F0A5FF014674
S3150800135004222046FFF73EFD0346452203F8022BEA
S3150800136044224270581BBDE8F0870020FBE70020A6
S31508001370F9E70020F7E700BF40C300080CCB0008D8
S3150800138000C400080023062073B1704754B224B97C
S31508001390013353B15DF8044B70470228F8D008684A
S315080013A00A4908601046F3E710B4094A52F82310B0
S315080013B00A7A022AEAD9032AEAD1441EE4B2012C9F
S315080013C0E6D90868014908601046E1E708190020CF
S315080013D0DC25002010B5A2B0202200211AA80AF0A8
S315080013E0BFF92B4B1A934FF461231C9302238DF8F4
S315080013F07530284A1E9201248DF87D408DF87E406E
S315080014008DF87F408DF8803000211591169117913F
S31508001410189119914FF4801315931F4B1993109136
S3150800142011911291139114911C4B10931C4B149308
S315080014303C2201A80AF094F90DF1040E0DF1540CA2
S31508001440BCE80F00AEE80F00DCF80030CEF800303C
S315080014500DF1180E0DF1400CBCE80F00AEE80F00B8
S31508001460DCF80030CEF800300E4B0B934FF4806357
S315080014700C938DF835408DF836400B4B0F930B4B7C
S315080014801AAA01A90A4802F0F9FB22B010BD00BF4A
S3150800149030D3000820D300083C00015B010010008F
S315080014A04400015B0C190020F02500200C1D0020CB
S315080014B0C01D002008B5024809F0E2FA08BD00BFC1
S315080014C0C01D002008B5024809F0DAFA08BD00BFB9
S315080014D0C01D002010B58EB02422002105A80AF0F0
S315080014E03FF9334B0593334B1B88ADF82430324B09
S315080014F01B88ADF82630314B1B680B93304B1B68A5
S315080015000C93304A05A9304803F0B6F800B1FEE757
S315080015102E4B1C682E4A21462B4B186803F062F99D
S3150800152000B1FEE74CB12146274B186809F04CFD7F
S3150800153001464FF6FF73984206D10021224B1868E0
S3150800154009F0EFF938B1FEE71F4B186803F08EFA79
S315080015500028F2D0FEE71F491B4B186803F0CAFAA9
S3150800156000B1FEE76FF0C00240F2FF33CDE9002379
S315080015704FF0FF324FF0FF331349086809F084FD36
S3150800158000B1FEE7144B1B88ADF81030ADF80C30EF
S3150800159004A90D4B186809F05FFD00B1FEE703A921
S315080015A0094B186809F06EFD00B1FEE70EB010BDD4
S315080015B053A300088AD3000888D3000890D30008EC
S315080015C08CD3000835A3000808260020CC25002067
S315080015D03FA300080700110078D1000882B0054B28
S315080015E0019302AB03EB800050F8043C186802B084
S315080015F0704700BF0826002008B50448044A121A96
S315080016009210044908F0AEFE08BD00BF800100082C
S31508001610C00100088025002008B5154B83F30A8809
S3150800162000F030F8FFF7E8FF124A0AE01068516840
S3150800163050F8230041F82300013391688B42F5D313
S315080016400C320D4B9A4201D20023F6E70B4A08E00A
S315080016501168002041F82300013351688B42F7D303
S315080016600832074B9A4201D20023F6E7FEF7F4FD4B
S3150800167000000020A4060108B0060108B00601080B
S31508001680B006010870B5134B134A9A60D3F8882040
S3150800169042F47002C3F88820104A4FF480419166DC
S315080016A00F4D05F500544FF0FF3222660D4A62666B
S315080016B00222C3F8D020BFF34F8FBFF36F8F0020ED
S315080016C002F09AFA4FF44036E660002009F043F932
S315080016D02E6170BD00ED00E000000008009000508B
S315080016E0008000447FFF7F01014B1860704700BFF0
S315080016F01026002008B5064B1860064B1B6F03F032
S315080017000703032B00D008BD0AF08AF9FBE700BFE0
S31508001710182600200080005010B504460FE001236B
S31508001720834024EA03040F2814D800EB40020E4B2A
S3150800173003EB82035A6812B19968C0B2904794B114
S31508001740234600201F28EAD813F0010FE7D10130FD
S315080017505B08F7E7103800EB40039B00B033024AFA
S3150800176013440433E6E710BDDC1D002008B50D4818
S315080017700AF06DFC1A2002F02FFA28B91B2002F095
S315080017802BFA40B9002008BD1A2002F035FA1A20B3
S3150800179009F0E1F8F2E71B2002F02EFA1B2009F007
S315080017A0DAF8EFE71CD300082DE9F04170B30C46D0
S315080017B0174605460F292BD803784BB1022B20D0A4
S315080017C0032B21D0012B01D0002303E00F2301E0D6
S315080017D040F2FF736A78D34013F0010F1AD00F4B0B
S315080017E0D3F81063C6B90AF025FC80463A46214666
S315080017F0284601F033FE40460AF017FC3046BDE89D
S31508001800F08140F2FF33E5E73F23E3E72226F5E7D9
S315080018102126F3E72126F1E70226EFE700C0035069
S3150800182040B310B5044603784BB1022B1DD0032BE9
S315080018301ED0012B01D0002303E00F2301E040F264
S31508001840FF736278D34013F0010F15D00AF0F2FB4C
S31508001850237862780121914003EB43031B01074A71
S31508001860D1500AF0E2FB002010BD40F2FF33E8E752
S315080018703F23E6E7222070472120F5E740D00350B2
S3150800188040B310B5044603784BB1022B1DD0032B89
S315080018901ED0012B01D0002303E00F2301E040F204
S315080018A0FF736278D34013F0010F15D00AF0C2FB1C
S315080018B0237862780121914003EB43031B01074A11
S315080018C0D1500AF0B2FB002010BD40F2FF33E8E722
S315080018D03F23E6E7222070472120F5E740E0035042
S315080018E008B5084BD3F82404D3F82024104000F098
S315080018F0553020F0502003F50053C3F82004FFF7B5
S315080019000BFF08BD00C0035008B5084BD3F82404E4
S31508001910D3F82024104000F0AA3020F0A02003F5C8
S315080019200053C3F82004FFF7F7FE08BD00C00350B4
S31508001930F0B585B00C4694469DF83410664A127880
S31508001940002A00F0BD800546BCF1070F00F2BA80F8
S315080019500A9A002A00F0B8800B9A002A00F0B6808E
S315080019600E9AB2F5006F00F3B38001285BD05B4A8C
S3150800197002EB0C12127B002A00F0AC8000220092C7
S31508001980019202920392564A02EB4C1E002C4FD14A
S315080019904FEA4C1600209051CEF80400CEF8080005
S315080019A0CEF80C009EF8020040F010008EF80200F7
S315080019B09EF8030040F030008EF8030021B9C1B24A
S315080019C041F003018EF8031000930E9B013B444A35
S315080019D04FEA4C1002EB4C11165A63F30E161652C8
S315080019E00A9B8B600B9B4B60CB789DF83C2062F37F
S315080019F08303CB70012D36D0109B002B56D0374A67
S31508001A004FEA0C1102EB0C1310985050119A5A60B9
S31508001A1000249C605D7372466946604601F07AFC54
S31508001A20204605B0F0BD0C9A002AA0D12D48F8E74B
S31508001A302B4F4FEA4C1607EB4C120020B85150605A
S31508001A409060D060907840F010009070D07840F0A8
S31508001A500300D0700029B7D107EB4C12C1B241F090
S31508001A603001D170B0E70E460A7B42F001020A73D4
S31508001A70D2B242F002020A73CA68042161F39F02D5
S31508001A80F26006F1100796E80F0087E80F00F26982
S31508001A906FF0030161F39F02F2610C9B7361012CE5
S31508001AA0AAD10B9AB2610C9A7260A5E7002DA6D14D
S31508001AB00B4B03EB4C139A786FF304129A709EE75C
S31508001AC00948AEE70748ACE70648AAE70548A8E785
S31508001AD00448A6E70548A4E7452500204420002039
S31508001AE0441F0020018000F0028000F0078000F00B
S31508001AF0134B1B78FBB110B50446F0B10AF09AFAFD
S31508001B000023072B13D80F4A02EB0312127B0AB1E4
S31508001B100133F6E723600B4A190102EB031301248C
S31508001B201C73002454500AF080FA204602E00AF09A
S31508001B307CFA054810BD054870470548FAE700BF16
S31508001B404525002044200020048000F0028000F093
S31508001B50018000F038B50AF06DFA04460023072B19
S31508001B6006DC0C4A02EB0312127B12B90133F6E7C4
S31508001B70002222B120460AF058FA074838BD01F07B
S31508001B8075FB0025054B1D7020460AF04EFA2846BF
S31508001B90F4E700BF44200020058000F0452500201A
S31508001BA00F4B1B78BBB110B50446072815D80AF0A9
S31508001BB041FA0C4B03EB04131B7B1BB90AF035FAED
S31508001BC009480BE0074B03EB041300241C730AF0C7
S31508001BD02CFA204602E005487047054810BD00BFAC
S31508001BE04525002044200020068000F0028000F0F1
S31508001BF0018000F000B583B0134B1B6801930023E6
S31508001C008DF804300AF016FA104B1B7833B90F4BCF
S31508001C1001221A700AF009FA002309E00AF005FA07
S31508001C200B480EE00B4A02EB031200211173013335
S31508001C30072BF7DD08238DF8073001A801F03AFBDA
S31508001C40002003B05DF804FB7CD100084525002080
S31508001C50038000F04420002010B5104C2478BCB155
S31508001C60072817DC0E4C04EB0014247BA4B10C4C9B
S31508001C704FEA001E04EB001C44F80E30029BCCF819
S31508001C8004300024CCF8084001F044FB204610BD7F
S31508001C900448FCE70448FAE70448F8E74525002025
S31508001CA044200020028000F0018000F0078000F048
S31508001CB008B50A4B1B785BB107280BD8084B03EB12
S31508001CC000131B7B43B1002101F0E6FA002008BD92
S31508001CD00448FCE70448FAE70448F8E745250020E5
S31508001CE044200020028000F0018000F0078000F008
S31508001CF008B50A4B1B785BB107280BD8084B03EBD2
S31508001D0000131B7B43B1012101F0C6FA002008BD70
S31508001D100448FCE70448FAE70448F8E745250020A4
S31508001D2044200020028000F0018000F0078000F0C7
S31508001D30F8B5194B1F6D5B6D1F4002D401250024B1
S31508001D4002E0FEE701346D00072C24D83D42F9D0A5
S31508001D50124B1D652301124AD358002BF2D002EB11
S31508001D600416B1680131B16072682046984780F060
S31508001D700100C0B2737B012BE4D10028E2D0094BE5
S31508001D8003EB44131A7B6FF341021A731A7F6FF33E
S31508001D9041021A77D6E7F8BD000004500020045027
S31508001DA044200020441F002038B505460C46164B33
S31508001DB0D3F8283103F00703013B052B20D8DFE8C9
S31508001DC003F003131B0F0B1709F004FE052305B1D7
S31508001DD0286004B1236038BD09F0FCFD0623F6E748
S31508001DE009F042FE0723F2E709F034FE0323EEE783
S31508001DF009F030FE0423EAE709F028FE0223E6E7A5
S31508001E0000231846E3E700BF0080005030B583B0D2
S31508001E1005460C4600230193154BD3F8203203F0F0
S31508001E200703042B21D8DFE803F0030B11161B0068
S31508001E3001230DB1019A2A6004B1236003B030BDB5
S31508001E40002101A8FFF7B0FF1123F2E709F00CFE05
S31508001E5001900723EDE70AF0D9F801900A23E8E78D
S31508001E6009F04CFE01900923E3E70023E1E700BFF0
S31508001E700080005038B505460C460F4BD3F8503253
S31508001E8003F00303022B12D0032B08D0012B0AD030
S31508001E900023184605B1286004B1236038BD0AF04E
S31508001EA0B8F80B23F6E70AF0B1F80A23F2E709F0C7
S31508001EB025FE0923EEE700BF0080005038B5054629
S31508001EC00C460C4BD3F8903203F00303012B05D0D4
S31508001ED0022B07D109F0C8FD072305E009F0B6FD76
S31508001EE0022301E00023184605B1286004B12360E7
S31508001EF038BD00BF00800050024B4FF480321A678D
S31508001F00704700BF00900050204B984236D009D940
S31508001F101F4B984236D01F4B984222D11E4BD3F8FE
S31508001F20D0007047A3F5B703A3F55863984221D0AC
S31508001F3006D91A4B984212D1174BD3F8BC007047F2
S31508001F40174B984202D0174B984203D1124BD3F83D
S31508001F50A0007047144B9842F8D000207047002024
S31508001F607047124B984203D10B4BD3F8C800704701
S31508001F7000207047084BD3F8B8007047064BD3F8D3
S31508001F80C0007047044BD3F8CC007047C0EA210163
S31508001F900048E801005A62020080E00F0024F400BD
S31508001FA080841E0000093D0040420F0080BA8C0163
S31508001FB038B505460C46104BD3F8000100F003006F
S31508001FC0032815D8DFE800F002080C10012305B134
S31508001FD0286004B1236038BD09F03CFD0323F6E709
S31508001FE009F08CFD0923F2E709F03AFD0823EEE72C
S31508001FF000231846EBE700BF0080005038B50546B9
S315080020000C46174BD3F8200100F00700062823D802
S31508002010DFE800F0040A0E16121A1E00012305B1A5
S31508002020286004B1236038BD09F0D4FC0523F6E71F
S3150800203009F010FD0323F2E709F016FD0723EEE782
S3150800204009F004FD0223EAE709F0C4FC0623E6E7E3
S3150800205009F000FD0423E2E700231846DFE700BF86
S315080020600080005038B505460C46104BD3F84001A1
S3150800207000F00300032815D8DFE800F002080C106A
S31508002080012305B1286004B1236038BD09F0BEFFFD
S315080020900A23F6E709F032FD0923F2E709F0B9FF4A
S315080020A00B23EEE700231846EBE700BF008000503D
S315080020B030B583B005460C4600230193144BD3F87C
S315080020C0603203F00703013B032B1FD8DFE803F058
S315080020D0020E1914002101A8FFF790FF0F230DB176
S315080020E0019A2A6004B1236003B030BD002101A81B
S315080020F0FFF7B8FF1023F2E709F0B6FC01900723B3
S31508002100EDE709F0A3FC01900223E8E70023E6E7E0
S315080021100080005030B583B005460C460023019375
S315080021200C4BD3F8703203F00303012B09D0022BB2
S315080021300DD114230DB1019A2A6004B1236003B0AE
S3150800214030BD002101A8FFF78DFF1023F2E7002319
S31508002150F0E700BF0080005038B505460C46104B26
S31508002160D3F8600100F00300032815D8DFE800F073
S3150800217002080C10012305B1286004B1236038BD9C
S3150800218009F044FF0A23F6E709F0B8FC0923F2E749
S3150800219009F03FFF0B23EEE700231846EBE700BFE5
S315080021A000800050324B984252D029D8314B984281
S315080021B048D009D9304B984247D0304B98421DD168
S315080021C02F4BD3F8800070472E4B984237D005D94D
S315080021D02D4B984210D12A4B186F70472B4B9842BB
S315080021E002D02B4B984202D1254B986D7047294B4C
S315080021F09842F9D0002070470020704700207047A9
S31508002200254B98422CD00CD9244B98422CD003F558
S31508002210740303F5105398420FD1194BD3F898005D
S3150800222070471F4B984217D01E4B984203D1144B48
S31508002230D3F88C0070470020704700207047104B79
S31508002240586E70470E4B586F70470D4B986F704716
S315080022500B4BD3F884007047094BD3F888007047B6
S31508002260074BD3F890007047054BD3F89400704796
S315080022700048E8010024F400C0EA210180BA8C0174
S315080022800080E00FC0CF6A00405DC60080841E0053
S3150800229000093D0040420F00007E56030090D0031F
S315080022A080D54302006CDC0270B582B006460D4646
S315080022B000230193104BD3F8804104F00304022C49
S315080022C016D0032C0FD0012C07D000240EB1019B89
S315080022D0336005B12C6002B070BD002101A8FFF77C
S315080022E08DFE0F24F2E709F0BFFB01900724EDE706
S315080022F009F0ACFB0190E9E70080005038B50546C7
S315080023000C46104BD3F8400200F00300032815D8FA
S31508002310DFE800F002080C10012305B1286004B1BB
S31508002320236038BD09F072FE0A23F6E709F0E6FBDA
S315080023300923F2E709F06DFE0B23EEE700231846A2
S31508002340EBE700BF0080005038B505460C46134B36
S31508002350D3F8000200F0070004281BD8DFE800F0D5
S3150800236003090D111500012305B1286004B1236086
S3150800237038BD09F04BFE0A23F6E709F0BFFB09232F
S31508002380F2E709F046FE0B23EEE709F049FB800A5F
S315080023900E23E9E700231846E6E700BF0080005051
S315080023A038B505460C46134BD3F8080200F007006B
S315080023B004281BD8DFE800F003090D1115000123D6
S315080023C005B1286004B1236038BD09F01FFE0A2351
S315080023D0F6E709F093FB0923F2E709F01AFE0B2347
S315080023E0EEE709F01DFB800A0E23E9E700231846ED
S315080023F0E6E700BF00800050B0F5207F20D00ED859
S31508002400B0F5007F16D020D810B1B0F5C07F04D142
S315080024100F4B186FC0F3033018E0002016E0B0F534
S31508002420607F05D10A4BD3F88000C0F301100DE098
S3150800243000200BE0064BD3F89000C0F3046005E0DB
S31508002440034B186FC0F3802000E00020013070476E
S315080024500080005038B505460C46174B4FF48032BD
S315080024609A660020FFF7C8FF05FB00F0134BDA69F0
S3150800247002F4803241F67131D9635B6823F4401364
S315080024806CB90F49884207D800210B430B494B60AA
S315080024900AB10022CA6338BD4FF48011F5E7002C53
S315080024A007DD0849884201D80021EEE74FF480117C
S315080024B0EBE74FF44011E8E70090005000000350A6
S315080024C0005A6202002D3101430905D0012B0DD0B7
S315080024D0022B0DD0002200E0002200F01F0049B1B7
S315080024E002F580520123834013607047034AF4E7DC
S315080024F0034AF2E702F50052F4E700BF6480005091
S315080025006880005008B5802007F0A3FF034B984267
S3150800251003D8034B4FF480321A6708BD005A62028B
S3150800252000A0005000B583B000230193B0F5807F6A
S3150800253000F0AF8011D9B0F5086F00F0B48044D927
S31508002540B0F5286F00F0C38069D9B0F5306F79D13E
S3150800255001A90020FFF7B2FC75E0802873D824286B
S3150800256071D324385C286ED8DFE800F04C4C4C4C0C
S315080025704C6D446D98546D6D6D6D6D6D6D6D6D6DB5
S315080025806D986D6D6D39A76D6D6D6D6D6D6D6D6D3C
S315080025906D6D6D6DAC4C6D6D6D676D6D5FB1A277D0
S315080025A0776D6D6D6D6D6D6D6D6D6D6D6D6D6D6D43
S315080025B06D6D6D6D6D6D6D6D6D6D6D6D6D6D6D6D3D
S315080025C06D6D6D6D6D6D6D6D7C00B0F5C06F65D010
S315080025D00AD9B0F5E06F70D0B0F5F06F17D101A940
S315080025E00020FFF7B9FD2EE0B0F5A06F60D0B0F57A
S315080025F0B06F04D101A90020FFF756FE23E0B0F51D
S31508002600806F20D101A90020FFF7F8FC1BE0B0F588
S31508002610D06F18D101A90020FFF796FE13E0B0F598
S31508002620186F4FD0B0F5206F04D101A90020FFF72D
S315080026303FFD08E0B0F5106F05D101A90020FFF7AE
S31508002640AFFE00E003D2019803B05DF804FBB0F5D5
S31508002650386F23D0B0F5406FF5D101A90020FFF7F8
S31508002660A3FBF0E71C4B1B6F03F00703013B032B8F
S31508002670E9D8DFE803F00B02050805230193E2E732
S3150800268003230193DFE708230193DCE70223019381
S31508002690D9E701A9002007F0B7FED4E701A9002071
S315080026A0FFF7E0FCCFE701A90020FFF781FCCAE7A6
S315080026B001A90020FFF7AAFBC5E701A90020FFF73B
S315080026C01DFEC0E701A90020FFF7D4FBBBE701A95F
S315080026D00020FFF71FFDB6E700800050094B596E32
S315080026E003F580534FF480325A66074A536A23F03B
S315080026F00103536211F4803F03D1044B4FF4803237
S315080027005A6670470080005000C0075000A000506D
S3150800271038B504468020FFF705FF032800F0B5808A
S31508002720604B4FF480125A665F4B45F60E02C3F8AB
S31508002730802003F580524FF0A061916203F50053A3
S315080027404FF480329A62584B9B6D13F4803FFAD14E
S31508002750554B9B6D13F0804FFAD1226863681B05B1
S3150800276043EA0263227B43EA0243627B43EA02337B
S31508002770A27B43EA8213E27B13434B4D2B61AB6981
S3150800278003F00043226943EA8263626943EA02630B
S31508002790227E43EA0243627E43EA0223A27E134371
S315080027A0AB614FF400624FF44061404807F013FEF6
S315080027B02B6A23F00F03E269002A46D111460B4320
S315080027C0E17E43EA81031A43374B1A62E369002B19
S315080027D03DD1354A916A364B0B4094F8201043EAAE
S315080027E0411394F8211043EA011394F8241043EA9C
S315080027F0C10343F4803393622B4B9A6D2D4B93435D
S31508002800FAD1294A02F580514FF080738B62136919
S3150800281023F47003A06843EA005313614FF00043A2
S315080028208B6194F822301BB9234B4FF080729A6261
S3150800283094F8233013BB204B4FF480329A621A4B1C
S315080028409B6D13F0804FFAD118E00821B7E7022BE9
S315080028501CD0154A916A164B0B4094F8201043EA8F
S31508002860411394F8221043EA016394F8241043EACA
S31508002870C10394F8231043EA0143936294F8253080
S315080028801BB1094B0D4AC3F8802038BD064B002200
S315080028901A619A614FF408524FF47F41084807F0CD
S315080028A09AFDD6E7009000500040005A3840005A7A
S315080028B0C7FFFEFE030001000060005AF1A7FFFFF4
S315080028C03440005A014B93F9000070470627002050
S315080028D0014B1880704700BFFC260020B0F5207F0A
S315080028E048D02DD8B0F5007F39D04CD810B1B0F506
S315080028F0C07F24D110B54C1E07F0A4FD07F08FFF4A
S31508002900FFF7FAFA204A136F23F4704343EA0433B5
S31508002910136709F085F81D4BD3F8843013F0100FB0
S31508002920F9D11A4BD3F88410C1F38111C1F1020110
S3150800293007F06AFF00F040F8FFF7E4FD10BD7047A6
S31508002940B0F5607F0AD101390F4AD2F8803023F0FA
S31508002950300343EA0113C2F88030704770470139E3
S31508002960094AD2F8903023F0F85343EA0163C2F8D3
S31508002970903070470139044A136F23F4806343EAA1
S31508002980812313677047704700800050004000504D
S3150800299008B50121022000F0F3F84FF42070FFF784
S315080029A02BFD044B187007F04DFD07F038FFFFF7B5
S315080029B0A3FA08BD4625002008B54FF4C07007F0F5
S315080029C048FD054B984205D902214FF42070FFF7C0
S315080029D085FF08BD0121F8E780F0FA0210B5044624
S315080029E009F01EF80F4BD3F8843013F0100FF9D105
S315080029F00C4BD3F88410C1F38111C1F1020107F021
S31508002A0003FF0121002000F001F924B1FFF7D4FFEC
S31508002A10FFF778FD10BD044B19784FF42070FFF7C7
S31508002A205DFFF5E7004000504625002070B50446D6
S31508002A30FFF7B8FB0546364B4FF4C0225A6603F536
S31508002A4098335B68012B29D08020FFF76BFD05289A
S31508002A502DD025F040752F4B9C422FD02E4B9C42F3
S31508002A602FD008F0B7FF064684422DD82B4BDB68DB
S31508002A7013F0060FFAD1294B9A689D609B686B4044
S31508002A8013F4F81F25D0254B9A6034468020FFF7AB
S31508002A9049FD052821D0B44235D970BD204B012205
S31508002AA05A60204B5B6813F0020FFAD1CCE707F0A7
S31508002AB0C9FC07F0B4FEFFF71FFACAE745F0007530
S31508002AC0CFE745F08075CCE70121204600F09EF857
S31508002AD0CCE72046FEF708FED8E708F0A1FF124B20
S31508002AE0D3F8843013F0100FF9D10F4BD3F88410B4
S31508002AF0C1F38111C1F1020107F086FEFFF75CFF01
S31508002B00FFF700FDC7E70121002000F07FF8C4E7C2
S31508002B100090005040420F0080841E0000000150C3
S31508002B2000E0015000C001500040005010B50446B6
S31508002B30FFF7EAF90A4B4FF400225A6620F0407074
S31508002B40084A944206D0084A944206D04FF0B44246
S31508002B50906010BD40F00070F8E740F08070F5E72F
S31508002B600090005040420F0080841E00034AD36E36
S31508002B7023F0300301790B43D366704700400050B9
S31508002B80F8B50446204BD3F8843013F0100FF9D16A
S31508002B901D4BD3F88430C3F381139C422DD008F023
S31508002BA01FFF0646012C11D009F03BFA0546164FC1
S31508002BB007F500534FF000725A66204607F036FEB6
S31508002BC0621E4FF4806393403B6706E0012107F0DD
S31508002BD01BFEE9E70C4BD3F884300B4B5B6E13F006
S31508002BE0007F05D1084BD3F8843013F0200FF1D0BD
S31508002BF0284609F011FA022C00D0F8BD002130460B
S31508002C0007F002FEF9E700BF0040005010B50C4679
S31508002C10034650B1094A127812B1094A934208D9B3
S31508002C2021460220FFF7ACFF10BD08F0D9FE034687
S31508002C30F0E721460120FFF7A3FFF5E7C4200020AF
S31508002C40005A620238B52F4B4FF000425A6603F518
S31508002C500B235C6C04F001044AF6CD321A64E8B919
S31508002C60294B5B6B13F00103FAD1274A556815F017
S31508002C70010539D002F50052012151601A46224950
S31508002C80096B11F0010F04D120498A4201D801329B
S31508002C90F5E71E498A422FD81D4625E000231A4A21
S31508002CA0126B12F0080F04D0184A934201D8013368
S31508002CB0F5E7164A934221D8134B03F50052202113
S31508002CC0916203F5805301225A60002300E0013324
S31508002CD00D4A926A12F0200F02D10C4A9342F6D995
S31508002CE00A4A93420CD8002514B1074B084A1A64BD
S31508002CF001F0D4FE284638BD0725F5E70725F3E792
S31508002D000725F1E700900050004009503F420F00A8
S31508002D103254FFFF10B51A4B4FF000425A6603F5BE
S31508002D200B235C6C04F001044AF6CD321A6443782E
S31508002D305B0043F00103134AD363134B5B6B13F039
S31508002D400B0FFAD1104A536823F4F873817843EAD3
S31508002D5001135360C178437943EA012393600179EB
S31508002D60837943EA012313610078FFF76BFF14B1F7
S31508002D70054B064A1A6401F091FE012010BD00BFFA
S31508002D800090005000400050004009503254FFFFA8
S31508002D9010B50F2800D90F20124B5C6E03F580532F
S31508002DA04FF000425A6603F50B235A6C02F00102F3
S31508002DB04AF6CD3119640C4B5B6B13F0800FFAD1D0
S31508002DC009490B6A23F00F0303430B620AB1074A4A
S31508002DD00A64002C03DB064B4FF000425A6601F0EA
S31508002DE05DFE10BD00800050004009503254FFFFC0
S31508002DF000A0005010B5134B5C6E03F580534FF0DE
S31508002E0000425A6603F50B235A6C02F001024AF691
S31508002E10CD3119640C4B5B6B13F0800FFAD10A495C
S31508002E200B6A23F4F85343EA00230B620AB1074AF4
S31508002E300A64002C03DB064B4FF000425A6601F089
S31508002E402DFE10BD00800050004009503254FFFF8F
S31508002E5000A00050084B98420AD0084B984209D067
S31508002E6003F58043984201D00020704758207047E8
S31508002E7056207047572070470000015B00000A5033
S31508002E8010B5044607F0D3FC042307E004F5805385
S31508002E9004221A6104F500531A610B46591E002BC9
S31508002EA0F4D1202323610023E360A36041F20202E8
S31508002EB06261A3614FF4A0226262E3612362A362A6
S31508002EC0E3626363236504F500520249D164236310
S31508002ED010BD00BFFF3F0D03F8B50446154608466A
S31508002EE0E1B1A36813F0010F34D06668B0FBF5F0C2
S31508002EF0451E16F001062BD0636D13F0280FFBD183
S31508002F00A36C13F0030F0FD1A36C13F0010F1BD1A1
S31508002F10A36C13F0020F19D1002706E02046FFF72D
S31508002F2099FF07F096FADCE70527204607F07FFCAD
S31508002F30236923F07F4343EA0563236146B3394691
S31508002F40204607F093FC23E00927EEE70627ECE77F
S31508002F500027EDE76368A36803F0E003402B1DD064
S31508002F6017D9602B1ED0802B12D10123400105FBF7
S31508002F7003F3B0FBF3F020380B4A02EAC002636D94
S31508002F8013F0010FFBD12263636D13F0010FFBD120
S31508002F90F8BD2BB1202BFBD10823E7E70623E5E78D
S31508002FA01023E3E70423E1E7F8FF7F0070B5044642
S31508002FB00D461646436823B1636DC3F30B03002B16
S31508002FC0FAD12046FFF75CFF636923F44C5323F0DC
S31508002FD00F036A7B1343EA8913432A8A13436361FF
S31508002FE0A36823F0804323F0E2032A7B13432A7E57
S31508002FF013436A691343A360AB681BB9A36843F01C
S315080030000043A360EA69002A70D0A168694B0B40A7
S31508003010117A43EA8153917A43EA4143918801F44C
S31508003020C0410B43517843EA8103517B43EAC1030C
S31508003030917B43EA0113927843EA8223A360E2680C
S315080030405D4B1340EA6911690B4351690B4391794A
S3150800305043EA8123D27943EA4223E360EB691B788A
S31508003060012B01D0032B03D1E36843F00403E3608B
S31508003070EB691B78023BDBB2012B51D94F4B9C42C3
S315080030806BD04F4B9C426AD003F580439C4262D07A
S315080030904FF0FF3303F593735B0103F1A04303F588
S315080030A0703302225A60EB695A7A04F580539A62A1
S315080030B0EB695B7A1BB1E36843F40063E360EB6991
S315080030C0DB7A63B1E36843F40043E3603B4B9C421D
S315080030D047D03B4B9C424BD03A4B9C424FD0636AFD
S315080030E023F00303EA69D27B134363623EB196F881
S315080030F02030002B4AD004F5805301221A6204F5C9
S31508003100805301225A60AA68002A4ED1297820469F
S3150800311007F0ACFBA36CDB4313F4405FFAD170BD38
S31508003120264B9C4213D0264B9C4212D003F5804373
S315080031309C420AD04FF0FF33A6335B0103F1A0434C
S3150800314003F5703302225A60ADE70223F4E7002341
S31508003150F2E70123F0E702239CE700239AE701231D
S3150800316098E7EB691B7B03F00F03174A5366B0E732
S31508003170EB691B7B03F00F03134A1367ACE7EB6994
S315080031801B7B03F00F03104AD367A8E7E36923F014
S31508003190090396F82220134396F82120134343F097
S315080031A0010304F58052D361A9E769682046FFF751
S315080031B093FEABE7E39BBDFFFFF9F0870000015BD9
S315080031C000000A5000400A5000900350F8B5044623
S315080031D00D461E4617463AB1FBB101228A4000EB5E
S315080031E0400109011D4B5A50072D1ED8A90004EBB2
S315080031F044031B0107FA01F20F2000FA01F11848EF
S31508003200184407F06AFB3FB9FEB10122AA4004EB55
S3150800321044042401114B1A51F8BD01228A4000EBDF
S31508003220400109010F4B5A50DEE7A5F108039B0040
S3150800323004EB440C4FEA0C1C07FA03F20F219940E1
S315080032400948604407F049FBDDE70122AA4004EB80
S3150800325044042401034B1A51DEE700BF40D0035053
S3150800326034C0035040E003503CC0035010B516204C
S3150800327007F06DFB074B00245C65FF229A625C60D1
S3150800328021462020FFF720F921462120FFF71CF9C7
S3150800329010BD00BF0000045029B9044A012303FAEF
S315080032A000F010607047024AF8E700BF401004506B
S315080032B04020045010B5044601212020FFF704F9E8
S315080032C001212120FFF700F9114B01225A602278CB
S315080032D012069A606178A27842EA01429A61FF2250
S315080032E09A6200229A631A644FF000425A6503F5FF
S315080032F000534FF0FF321A65162000F07DFCE17886
S31508003300162007F02CFB162007F025FB10BD00BF82
S315080033100000045070B50C46C3B201259D402149F2
S3150800332001F500531D65830003F1A04303F58823C7
S3150800333026685E60637B00EB400C01EB0C1CCCF846
S31508003340603094F80AE0E37A1B0543EA0E4394F8E2
S315080033500CE043EA4E53CCF85C3022F00302CCF87A
S31508003360702008F067FE104B5D65237A0BB10E4B93
S315080033701D64637A0BB10C4B9D632379A27942EAEB
S315080033800342084B03F500518A6194F805C0E279B7
S3150800339042EA0C4203F58054A2614D639D6408F02D
S315080033A044FE70BD000004500010045010B5C0B2B1
S315080033B00124844008F03EFE044B5A6D22EA0402BA
S315080033C05A659C6208F031FE10BD00BF000004502B
S315080033D010B5C0B20124844008F02CFE084BDB6A05
S315080033E0234205D1064B5B6B9C4306D0002400E0C4
S315080033F0002408F01AFE204610BD0124F9E700BF94
S315080034000000045070B50446C3B201259D4008F07B
S3150800341011FE084B5E6B04EB440403EB04135C6E6D
S3150800342008F003FE354203D1C4F30A10013070BD1B
S315080034300020FCE700000450074B4FF480325A6620
S3150800344003F5E6239B69C3F38512827003F03F02F6
S3150800345042701B0B037070470090005070B504460D
S315080034600D461646037841782C4AD2F810236A1E70
S315080034700E2A09D8DFE802F00A0A0A0A0A0A0A0A1C
S315080034800A0A0A0A0A0A0A00002200E02A463DB188
S3150800349016B30120884003EB43031B012049C8509B
S315080034A06178072920D82378890003EB43031B0199
S315080034B08A400F2000FA01F11A48184407F01BFA4F
S315080034C04DB906B3237862780121914003EB430393
S315080034D01B01134AD15070BD0120884003EB4303FA
S315080034E01B011149C850DBE723780839890003EB2B
S315080034F043031B018A400F2000FA01F10B481844C8
S3150800350007F0F9F9DCE7237862780121914003EBAB
S3150800351043031B01044AD150DDE700BF00C0035036
S3150800352040D0035034C0035040E003503CC0035021
S31508003530074B9B6813F0020FFAD1054B5B6813F033
S31508003540020FF5D1024BDB69002BF1D1704700BFA2
S3150800355000800A50074B5B68064B5B6813F0010F47
S3150800356003D0044BDB69002BF6D1024B02221A6109
S31508003570704700BF00800A5008B5FFF7D9FF034B14
S3150800358003F5805101224A601A6108BD00800A507D
S3150800359008B5054B5B68012B00D008BDFFF7DAFFBD
S315080035A0024B01225A60F8E700800A5000A00A5030
S315080035B010B50446FFF7BCFF084B5B68012B05D026
S315080035C0237843B10122054BDA6010BDFFF7E0FF0F
S315080035D0FFF7AEFFF4E70022F5E700BF00800A50C8
S315080035E038B505460C4608F0F7FADDB92378D3B1A5
S315080035F00123626812B1127843EAC2036278A2B163
S3150800360002221343A26812B1127843EA8213E278BF
S315080036106AB104221343226912B1127843EA42239B
S31508003620044A936438BD0023E3E70022E9E7002251
S31508003630F0E700BF00800A5038B5044607F065FD7C
S31508003640864658B9064DA446BCE80F000FC5BCE827
S315080036500F000FC59CE8030085E80300704638BDD7
S31508003660C820002047F6FF739A427DD009297DD8E5
S3150800367070B5414B13F801E0BEF1030F78D83F4B04
S3150800368003EBCE0191F802C0604613F83E30012BD9
S3150800369026D03A4B03EBCE035C68002C6AD0B4F90B
S315080036A00030934204DBB4F90230934200DC13463F
S315080036B0A288FF2A2CD000212826C8221D46D21A05
S315080036C092FBF6F20A4412B22C4B03EBCE0393F8A4
S315080036D001E0964501DD002A2FDA0EF1FF322CE0D3
S315080036E0CB78A3EB0C0300249C420ED2191BA3EB48
S315080036F05101224800EBCE00406830F91100904293
S3150800370001DC0C46F0E74B1EEEE76344D8B230E026
S31508003710B4F90620B4F908600121CFE75C331849EB
S31508003720A1FB03139B09013212B2164696450FDD1B
S3150800373004EBC201898899420AD304EBC2018B685B
S31508003740B1F9061001FB0533002BE7DA0023E5E79C
S31508003750013E04EBC604A2889A4200D31A46944551
S3150800376000D81046C0B204E0FF207047002070471A
S31508003770002070BD0020FCE780D10008C82000208A
S31508003780D34D621009296FD83A4B5B5C032B6DD871
S31508003790394911F8331001292AD010B4364901EBFA
S315080037A0C3014C68002C63D0201D334901EBC301CB
S315080037B08978914234D2304901EBC301C9789142E4
S315080037C033D92D4901EBC30393F801C00CF1FF3C33
S315080037D05FFA8CFCA388FF2B2AD00023634529D2E5
S315080037E0591C30F83110914224D30133DBB2F5E786
S315080037F0214901EBC301C978914200D20A461E4805
S3150800380000EBC3008078121AD2B2091A8A4200DD88
S315080038100022194901EBC3035B6833F912007047AC
S31508003820B4F902005DF8044B7047B4F90000F9E7F3
S315080038300123D3E74FF47A7101FB02F200EBC300D0
S315080038404368D31AB0F9022002EBD27103EB610385
S3150800385093FBF2F3B4F900009842E3DBB4F90200F3
S315080038609842DFDC18B2DDE7044870470348704722
S315080038700248D7E780D10008C82000200080FFFF53
S3150800388008B50348FFF7D8FE012007F042FC08BD3B
S315080038908CD1000830B583B00446694607F037FC7A
S315080038A000B1FEE79DF80030134A1278934217D00C
S315080038B00C2B06D164251049204607F015FC28B1C3
S315080038C0FEE7204601F000F90546F4E729462046BA
S315080038D007F0F1FB00B1FEE7074B1B780A2B01D076
S315080038E003B030BD6946204607F011FC9DF800205C
S315080038F0014B1A70F4E700BF1C26002008B50248E1
S3150800390008F0A5FB08BD00BF18D3000810B58AB09B
S31508003910EC46194C0FCCACE80F000FCCACE80F0006
S3150800392094E803008CE80300144BD3F84C3113F4E5
S31508003930002F05D0124B1C88FF2C05D98C2403E0D8
S315080039400E4BD3F85041E4B28DF81940FEF7BAFF92
S31508003950241803D4FF2C02DDFF2400E000248DF890
S3150800396018400848FDF7C6FE6846FEF7D1FE322025
S31508003970FEF7AEFF0AB010BDE4D200080080E00FE3
S315080039800001E00FC017530208B50248FFF74EF8CA
S3150800399008BD00BF00B4C40408B50248FFF7C6F85E
S315080039A008BD00BFC0EA210110B5FEF7F1FF4E4C75
S315080039B0236F23F0070343F0030323670020FFF771
S315080039C00DF8236F23F474432367484BD3F8FC3070
S315080039D013F0807F75D1464B0022C3F88020424CF5
S315080039E0D4F8203123F0070343F00203C4F820314A
S315080039F0D4F8283123F0070343F00203C4F828312A
S31508003A00D4F8803123F0030343F00103C4F880316E
S31508003A10D4F8903223F0030343F00103C4F890323C
S31508003A20D4F8403123F0030343F00103C4F84031CE
S31508003A30D4F8603123F0030343F00103C4F860317E
S31508003A40D4F8403223F0030343F00103C4F84032AC
S31508003A50D4F8003223F0070343F00103C4F8003218
S31508003A60D4F8083223F0070343F00103C4F80832F8
S31508003A70D4F8503223F0030343F00103C4F850325C
S31508003A80D4F8703223F0030343F00103C4F870320C
S31508003A90D4F8203223F0070343F00103C4F8203298
S31508003AA0FEF71CFE4FF0E022136943F0040313618E
S31508003AB0D4F8603223F0070343F00103C4F86032F8
S31508003AC010BD0A4BD3F8FC2022F08072C3F8FC2004
S31508003AD0074A0021C2F88010D3F8FC2042F0807211
S31508003AE0C3F8FC207BE700BF0080005000ED00E033
S31508003AF00090005008B5074808F0A9FAFFF706FF36
S31508003B00FFF742FFFFF748FFFFF7F8FEFFF74CFF06
S31508003B10002008BD14D3000800B583B0094B93E80C
S31508003B2003000090ADF80410090C8DF806106846DD
S31508003B30FFF7F0F80920FFF72BF9002003B05DF82E
S31508003B4004FB00BF0CD3000810B582B0074A536FB8
S31508003B5043F001035367002400948DF80440684637
S31508003B60FFF704F8204602B010BD00BF0040005021
S31508003B70002808DB0901C9B200F1604000F5614080
S31508003B8080F80013704700F00F000901C9B2014B15
S31508003B901954704714ED00E0002807DB00F01F02F7
S31508003BA0400901239340024A42F82030704700BF7B
S31508003BB000E100E000280CDB00F01F0240090123A9
S31508003BC093402030034A42F82030BFF34F8FBFF3AB
S31508003BD06F8F704700E100E04211064B53F8223020
S31508003BE000F01F0023FA00F080F0010000F0010049
S31508003BF0704700BF00E100E0002808DB00F01F0264
S31508003C004009012393406030014A42F8203070474A
S31508003C1000E100E010B508F00DFA0B4B1B783BB934
S31508003C20094B01221A7008F000FA6FF0040408E044
S31508003C3008F0FBF907E00521204606F090FE01345E
S31508003C4064B24B2CF7DD10BD4725002010B504469D
S31508003C5008F0E7F9024B1C6008F0DEF9002010BDF9
S31508003C60F020002010B508F0DCF9034B1C6808F0BA
S31508003C70D3F9204610BD00BFF02000202DE9F04101
S31508003C808EB007460E4614461D461368D3F80080C4
S31508003C9091F83130002B48D00DF1180CDFF830E2DE
S31508003CA0BEE80F00ACE80F009EE80F008CE80F0096
S31508003CB00023009301930293039304930593A36847
S31508003CC00893237B012B3DD0022B3ED14FF4407342
S31508003CD0ADF82630607B06F067FEADF82800CDF813
S31508003CE034D001238DF80630A37B022B04D0032B96
S31508003CF002D0012B00D000238DF80030B36B6E4A3A
S31508003D001A60B36B6D4A5A60B36B00229A60B36B44
S31508003D106B4ADA6032462946384600F0AFFA07465B
S31508003D20A8B138460EB0BDE8F0810DF1180CDFF8E1
S31508003D30A4E1BEE80F00ACE80F009EE80F008CE88F
S31508003D400F00B5E74FF40073C2E70023C0E7236905
S31508003D50C5F8A430237E85F8AB30E37D85F8AA3014
S31508003D60A37D85F8A930637D85F8A830A37E85F8FC
S31508003D70AD30637E85F8AC30237F85F8AF30E37EBF
S31508003D8085F8AE302368C5F8A0304E4808F05FF9CC
S31508003D9001230422A17D607DFFF718FA0123022280
S31508003DA0217EE07DFFF712FA002385F8B0302069FE
S31508003DB008F04DF996F83130002B5DD006A940463B
S31508003DC006F07FFD95F8B03043F0040385F8B0306F
S31508003DD0227D3D4B263203EB421214215160617D50
S31508003DE0A07D227D41EA004103EB4212C2F8DC14B1
S31508003DF0E27D207E217D42EA004203EB4113C3F8AF
S31508003E00D424A37B012B3CD0032B3AD0A37B023BC3
S31508003E10DBB2012B42D995F8B03013F0010F0CD064
S31508003E20627EA17E237D42EA01425B0103F1A04343
S31508003E3003F5703341F2CC415A5095F8B03013F07F
S31508003E40010F10D0237D204AA63302EB431302212B
S31508003E505960E37E207F217D43EA004302EB41124D
S31508003E6041F2D041535008F50053184ADA64052147
S31508003E70404606F0FBFC54E706A9404606F027FD37
S31508003E80A6E795F8B03043F0010385F8B030002373
S31508003E900222A17E607EFFF799F9B7E795F8B03060
S31508003EA043F0020385F8B03000230422217FE07E28
S31508003EB0FFF78CF9AFE700BFD1A9000871AA00087F
S31508003EC0EBA900081CD3000800C00350FF3F0D03F0
S31508003ED03CD300085CD3000830B583B0007D104B96
S31508003EE000EB400203EB0212D56E00EB400203EB37
S31508003EF002131C6F0DF1070107F026FE9DF8073027
S31508003F004BB904F00204074B9D4201D0002003E0A0
S31508003F1024B1002000E0012003B030BD0120FBE7FA
S31508003F200000045048250020037D0E4A03EB430198
S31508003F3002EB0111C96E03EB430302EB0312136F85
S31508003F4003F00203084A914201D0002070470BB9DA
S31508003F5000207047036A006D984214BF00200120B4
S31508003F60704700BF000004504825002030B583B0D4
S31508003F7003464169026902F1FF3CC5684C6F01F1CD
S31508003F807C020020C86750609060D060B1F87C0061
S31508003F906CF30E10A1F87C0091F87E0040F010003A
S31508003FA081F87E0091F87F0040F0300081F87F00AC
S31508003FB0C1F88050C1F88440012081F88C0091F83E
S31508003FC078000093024B6431FDF746FE03B030BD1E
S31508003FD0D1AD00082DE9F04184B0044600F1380659
S31508003FE000F11808002585637560B560F56090F8DE
S31508003FF03A3043F0100380F83A3090F83B3043F0FB
S31508004000030380F83B30494FC7630764007DFDF71B
S315080040104FFEA5637560B560F56094F83A3043F0D5
S31508004020100384F83A3094F83B3043F0030384F8DD
S315080040303B30E7632764207D00EB40031B0103F157
S31508004040A04303F58023DB6EBB4219D00DF10F01A7
S3150800405007F07AFD9DF80F30ABB194F844306FF352
S31508004060410384F844300094314B32462146207D82
S31508004070FDF7F2FD207DFDF73BFE04B0BDE8F081BB
S31508004080FDF736FEF9E7204606F001FD054602A9CA
S31508004090207D07F07DFD029B591E20690023A36140
S315080040A0E36123626362228B61F30E122283A27E8E
S315080040B042F01002A276E27E42F00302E276E06166
S315080040C02562227D1B4902EB420001EB0010056FB9
S315080040D0C5F3400594F8247065F3410784F8247005
S315080040E0A57E63F30415A576056FF8B265F300009F
S315080040F084F8240002EB420201EB02110A6F9210C7
S31508004100616A62F39F01616294F8442042F00202F8
S3150800411084F84420D2B263F3000284F844204FEABC
S31508004120A808636C68F39F0363649CE7482500202E
S3150800413039AC000800000450F0B589B004460E46B4
S31508004140007DFDF7B5FD0DF11F01207D07F0FCFC94
S31508004150204606F09CFC0546236D83424AD2A26C93
S31508004160934216D0238DC3F30A12324462F30E1318
S315080041702385236D1E442665A26CE36C13449E4278
S315080041806FD0236DAB426ED0207DFDF7B1FD09B02F
S31508004190F0BD701E276904F128030021A162E162BF
S315080041A021636163B4F828C060F30E1CA4F828C024
S315080041B094F82A0040F0100084F82A0094F82B009E
S315080041C040F0030084F82B00E762226394F82A2063
S315080041D061F3041284F82A2023F00302237D42F0B7
S315080041E0020203EB43031B0103F1A04303F58023FB
S315080041F01A67BEE79DF81F30B3B9227D1D4802EB4A
S31508004200420300EB0313596EC1F30A1131445B6E86
S3150800421023F4FF4323F0700343EA011302EB42023F
S3150800422000EB02104366A4E70494134B03930023A0
S315080042300293019601230093236902462168207D93
S3150800424006F0AEF8237D0B4A03EB430102EB01119E
S31508004250496E21F4801103EB430302EB0312516606
S3150800426087E722658DE7012384F854302046FFF757
S31508004270B1FE89E70000045039AC000870B588B073
S3150800428006460C461546A0220021204607F068FA85
S31508004290A446AE46BEE80F00ACE80F00DEF80030D4
S315080042A0CCF8003004F1640C05F1140EBEE80F00DA
S315080042B0ACE80F00DEF80030CCF80030AB6AA36437
S315080042C0EA6AE264236595F8302084F8952095F823
S315080042D0332084F89620C4F89830012384F89C305B
S315080042E084F85430AB6B23663460374B7360374BB6
S315080042F0B360374BF360374B7361374BB361374B5A
S315080043003361FDF777FC10B1354A904253D100214D
S3150800431007A8FDF7EDFB00284FD19DF81C30237543
S31508004320002107A8FDF7E4FB00283FD19DF81C30C3
S3150800433084F87830207DFDF7BBFC002840D1E36C7B
S315080043400494284A039200220292019301230093BF
S315080043502369A26C2168207D06F022F890BB237D94
S3150800436003EB43031B0103F1A04303F5802342F249
S3150800437064024FF480119950AB6B93F91000FFF764
S315080043803BFCAB6B93F9100006F0E5FA04F19000DC
S3150800439005F0F2FF3046FFF759FC2046FFF71AFEF4
S315080043A0207DFDF7A5FC48B1102007E0207DFDF72C
S315080043B0F7FB102002E0102000E0102008B070BDC6
S315080043C01020FBE71020F9E7DFAB0008F3AB000885
S315080043D099AD000883AA000889AA000815AE000846
S315080043E0038000F039AC00080346064A1068034407
S315080043F0054A934202D8034A136070474FF0FF30CC
S31508004400704700BF2426002000800020BFF34F8F8E
S315080044100549CA6802F4E062044B1343CB60BFF354
S315080044204F8F00BFFDE700BF00ED00E00400FA056E
S31508004430BFF35F8F074B5A6A22F480325A62D3F869
S31508004440942022F00102C3F89420BFF34F8FBFF3E4
S315080044506F8F704700ED00E070B5FFF7E9FFA02207
S315080044600021214806F005FD204B21498B4206D044
S3150800447021F01F02203AB2F1005F0FD300E01D4A77
S315080044801D4D286842F001021C4CC4F898001C4EC9
S31508004490C4F89C60C4F8A020013028608B4210D074
S315080044A01F3323F01F0343F003031348026813491D
S315080044B0C1F89820C1F89C30124BC1F8A0300132DF
S315080044C00260BFF35F8F0D4B0522C3F894205A6A2A
S315080044D042F480325A62BFF34F8FBFF36F8FBFF338
S315080044E04F8FBFF36F8F70BD90ED00E0C0250020A1
S315080044F08025002000800020F420002000ED00E048
S3150800450003000020E17F002010B4194B5A6E02F414
S31508004510803203F580514FF480304866586E4FF06C
S3150800452000434B66134B596C01F001014AF6CD3432
S315080045301C64104B5B6B13F0010FFAD10E4B012470
S315080045405C600C4B1B6B13F0010FFAD011B1094BD1
S315080045500A491964002803DB094B4FF000415966E4
S315080045601AB9074B4FF480325A665DF8044B704708
S315080045700080005000400950006009503254FFFF87
S3150800458000A0005010B507F055FD0446144B1B78E3
S31508004590DBB9144A1360144A1360144A136000F016
S315080045A02DF8012007F076FE07F0C6FC0246104BF0
S315080045B0186078B100230F4840F2E73105F052F849
S315080045C00D4B1860064B01221A70204607F02DFD88
S315080045D0002010BD204607F028FD2320F9E700BF7C
S315080045E04B25002000210020FC2000200821002067
S315080045F00421002018FCFFFFF820002010B586B023
S3150800460000248DF8144000940194029403940494B1
S3150800461001238DF80030164807F019FDBFF34F8FB8
S3150800462005A8FEF7C5FF8DF8004069462046FEF747
S31508004630D7FF0F21204607F0E3FA0F21204607F09F
S31508004640E5FAFEF799FF0B4B5B6813F0010F03D0F1
S31508004650084BDB69002BF6D1064B00229A614620EF
S31508004660FFF7CAFA462006F076F906B010BD00BF75
S3150800467014D3000800800A502DE9F843DFF860904B
S315080046800646D9F8008008461746B8F1000F03D049
S315080046900E242046BDE8F88306B3336801331DD1DE
S315080046A0E1B100F067F805460028F1D0C9F8000026
S315080046B000F086F8284606F04CFC044640B1404611
S315080046C0C9F8008000F07CF8284606F03DFCE0E7D3
S315080046D03560002FDDD02846B847DAE72124D8E729
S315080046E00C210020024B1868003818BF01207047BB
S315080046F00C21002038B505460C4601F099F938B169
S31508004700204602F0A5FF40F26512412100F0FCF9AF
S3150800471044B1236833B11B68013303D0E3680BB196
S31508004720A3684BB906F0CBFE00204FF4C1724121B5
S3150800473000F0EAF9212038BD204601F087FD002364
S315080047400A4A85F83031C5E93743C2E90033636957
S315080047504BB1074A422110684FF4D272C31A584225
S31508004760584100F0D1F90020E5E700BFC025002038
S3150800477050230020F8B5044607F053FC00260746E8
S315080047800E4B1B6893B19E68AEB196F82420D207EB
S3150800479011D435460FCC0FC50FCC0FC523682B6037
S315080047A096F8243043F0010386F82430384607F09B
S315080047B033FC3046F8BD1B68E4E700BF2C26002012
S315080047C010B5044618B9054B054A136010BD00F02C
S315080047D01FFAD4F8E830002BF6D1F4E735AF000815
S315080047E028260020084B10B4002A14BF14461C467D
S315080047F0064B1C6019B15DF8044B06F0F1BB084680
S315080048005DF8044B704700BF35AF00082826002026
S31508004810D0F8E0302DE9F04105460C4613B1C38DBA
S315080048208B424CD0D5F8DC30002B4BD09E68002E3E
S3150800483048D0D868002845D0013800B200281ADBCD
S31508004840002106E0128A591CA24217D209B28842F0
S3150800485011DB0B1803EBD3735B1003EBC30206EBF8
S315080048608202B2F80EC003F1FF3EA445EAD90FFA58
S315080048708EF08842EDDA2120BDE8F0814FF6FF720E
S3150800488099B29142F7D09BB203EBC30306EB8306BA
S315080048902846B6F9122095F82411D5F8F080FEF7C7
S315080048A0E1FE0746B8F1000F04D000233246284639
S315080048B01946C047EC85C5F8E06085F82D710020DB
S315080048C0BDE8F0810E20BDE8F08100BF2DE9F04774
S315080048D082B004460F46164601F09EF800286FD1AE
S315080048E0494D2B68D4F8DCA0D4F8E0800BB15345C9
S315080048F06AD04FF00009AF6001F0A4F80128074616
S3150800490004D001210022084600F0D2F92B68DAF813
S315080049100010D8F8002013B1186888425FD02046E6
S3150800492006F040FD94F82530C5E900A813F0010FFC
S315080049300CBF32460122D4F8F05062F3000384F823
S3150800494025308DF80760002D50D0002220461146EC
S315080049500DF10703A847204600F0B4FC0546B9F157
S31508004960000F10D07EB9D4F88C3013BB012F06D0B7
S31508004970002D47D0254B002103205B689847284621
S3150800498002B0BDE8F087B5FA85F040F2FA42332165
S31508004990400900F0B9F83146204600F04FFE1C4B9E
S315080049A005461B68414620469847D4F88C30002BAC
S315080049B0DCD000224FF40073204600F039F9D5E721
S315080049C00023114D6B608CE76B68002B91D0434533
S315080049D08FD1AB689F4215D04FF001098BE7696804
S315080049E011B1096891429DD0596898E794F82A1040
S315080049F094F82D313246994228BF1946204600F0D0
S31508004A00B3FBA8E70025BAE7C02500203426002016
S31508004A1028260020F8B50E46054607F002FB314663
S31508004A2007462846FFF7F4FE044620B1384607F045
S31508004A30F3FA2046F8BD00F0CFFF22463146284655
S31508004A40FFF744FF04460028F0D195F92430002BDF
S31508004A50ECDA284606F0FAFC0028E7D02246284673
S31508004A6095F82C1006F0B0FC0446DFE770B504464E
S31508004A700E4607F0D6FA314605462046FFF7CAFF26
S31508004A80044620B9044B01465B680320984728462C
S31508004A9007F0C2FA204670BD3426002010B5FFF78D
S31508004AA021FE20B9054B1A68054B9A4204D1BDE888
S31508004AB01040044B1B68184710BD00BF7026002025
S31508004AC0008000407426002013B50446694606F0A7
S31508004AD01EFB204606F0CAFBFF28024606D02046E3
S31508004AE09DF80010FEF74EFE02B010BD0048FBE729
S31508004AF00080FFFF08B50B460249194006F00BFB7C
S31508004B00002008BD0700110010B550B90548064B2E
S31508004B100160064802601868054B1860186805F0B9
S31508004B2004FC10BD302600200C2100201423002090
S31508004B301023002010B50446D0F818210B4B4FF46B
S31508004B400061C3F8D42090F82420D20102F4006250
S31508004B5004F030FD94F8243013F0100F4FF400736E
S31508004B6014BF034A034A536410BD00BF003E00B099
S31508004B70001002B8002002B8D0F8E43013B11A6861
S31508004B80032A10D8094BDB6BC3F3C20213F0380FA4
S31508004B9003F0070018BF504313F4E07FC3F38212F3
S31508004BA003D050437047986A400E7047008001B89A
S31508004BB0431C07D06FF0FF02034B10405A62A3F55F
S31508004BC080535862704700BF00E000B8F8B5044645
S31508004BD00F46164607F025FA0546A047044620B1B3
S31508004BE0284607F019FA2046F8BD03F075FE042298
S31508004BF00549D1F8003F23EA07033343C1F8003FCC
S31508004C00024B5A64ECE700BF003000B0002002B83F
S31508004C1038B10368044A002B08BF1346034A1360D9
S31508004C207047014BFAE700BFADB1000844260020E3
S31508004C3010B4D0E9544122400B4052EA030104D093
S31508004C4003495DF8044B096808475DF8044B70474B
S31508004C5044260020024B986F00F00F00704700BFF3
S31508004C60003F00B00F2938B505460C460ED800F0AF
S31508004C70E9FE01280CD1074A2846936F23F00F0353
S31508004C802343936706F0CAFB002038BD2120FCE7C2
S31508004C900220FAE7003F00B0014BD86F704700BF0B
S31508004CA0003F00B0014B0020D9677047003F00B0B5
S31508004CB003282DE9F74F0C46914600F28780444BAE
S31508004CC013F800A0434B1E5C434B13F800B007F0E3
S31508004CD0A8F9804603F0B2FD074640B1002300223A
S31508004CE0CDE9003301200023002103F085FB03F002
S31508004CF0ADFD48B100230022CDE900330020002392
S31508004D004FF4004103F078FB002E52D0334BDD6C94
S31508004D1005F008050AEB0600314B23305844DD64DC
S31508004D20C0B201F027FF3146504603F037FE5A4617
S31508004D303146504603F0D6FE2A4BDD64DFB12A4BD6
S31508004D401868D0F89410F83002F0F4FA2749086881
S31508004D50FFF72EFF4FF0FF330B60254B1A68511CE7
S31508004D6006D06FF07E402349C863A1F58051CA6317
S31508004D704FF0FF321A60B9F1000F04D01E4B002124
S31508004D8003205B689847B4B14FF480621B4B1D6FD4
S31508004D9003F50053C5F380251A67404607F03CF92A
S31508004DA000F050FE012808D15DB9002003B0BDE827
S31508004DB0F08F3546AEE72546EFE7002CF0D1052003
S31508004DC0F4E74FF480620E4B1A67EEE72120EDE711
S31508004DD09CD3000898D3000894D30008004000B874
S31508004DE0006000B8005000B80C21002040260020C2
S31508004DF03C26002000E000B83426002000C001B898
S31508004E0000D001B870B50D46064620B91A4B1B6886
S31508004E10A3B10E2011E000F015FE012829D1174B89
S31508004E2093F90040C4F12704641BC4F11C03002B4A
S31508004E30B8BF5B42232B0CDD212070BDA1F10B030B
S31508004E40002BB8BF5B42232BF6DC0C4B19700020F5
S31508004E50F3E786F8275007F0E4F8094AE402136AEC
S31508004E6004F4FF2423F4FF231C43146207F0D4F848
S31508004E70EDE70220E1E700BF0C2100204C250020C9
S31508004E8000C000B810B5FFF755FE0D4B1B689847D4
S31508004E9007F0C7F80B4A0121D2F8D03E044623F0A2
S31508004EA02003C2F8D03E0222074B08469A60074BF9
S31508004EB05B689847204607F0AFF8002010BD00BF92
S31508004EC074260020003000B0001002B834260020F6
S31508004ED00B4B08461A6D92020FD4D3F84021D1071E
S31508004EE00CD4D3F83823D20708D4D3F8803013F477
S31508004EF0706F14BF0120002070470120704700BF63
S31508004F00004001B8F8B50D46D0F8943002EA01041D
S31508004F1023EA01032343C0F894303B4A01F00B030C
S31508004F2023EA0401D1642340A2F580526F0706469E
S31508004F30D36410D50121FFF7CBFF60B103F0CCFC99
S31508004F404FF4007314F0040F14BF304A304A136547
S31508004F500422304B5A64E90606D514F0100F14BF24
S31508004F6000221B222C4B5A652A0618D5230611D572
S31508004F704FF40012254BDA6407F053F80E21074662
S31508004F80032002F067F940F20122234B3846DA6221
S31508004F9007F042F8214606F1F80002F0CBF9EF05D2
S31508004FA003D5E0052AD502F043F9A90503D5A205DC
S31508004FB027D502F049F915F0600F0AD0D6F8E410A3
S31508004FC0304606F0F4F88022144BC3F88800144BD8
S31508004FD01A612B0510D503F07FFC124A14F4006FF2
S31508004FE0D2F8003F14BF43F0006323F00063C2F811
S31508004FF0003F0422074B5A640020F8BD02F012F95C
S31508005000D3E702F01BF9D6E7006000B8005001B8F4
S31508005010006001B8002002B8004000B8003F00B0A8
S31508005020000002B8003000B00A78022A11D0101F1A
S315080050304242424152004B781201022B0BD0191FF3
S315080050404B424B415B000549054842EA8312FFF78C
S31508005050BDBD0122EFE70123F5E700BFF0FFFF0022
S315080050608D5A00080B78022B10D0181F4342434173
S315080050705B004A78022A0BD0111F4A424A41520065
S315080050800F21044843EA8202FFF7A0BD0123F0E797
S315080050900122F5E7B95A0008F8B50D7804460A2D35
S315080050A00E4690F8247108D10625284601F0E6F840
S315080050B018B90135EDB20A2DF7D1284601F0DEF808
S315080050C0002848D094F82431AB4209D1B288D4F8E4
S315080050D0A4309A4204D17288B4F826319A4238D05C
S315080050E084F82451B3882846A4F82831738804F52F
S315080050F09275A4F82631B388C4F8A430FF2384F83F
S315080051002B3006F007FA84F82A00284601F072F9CF
S3150800511010BB284601F0A8F8F0B9D4F8E03053B12E
S3150800512094F82411B94206D02046B3F91220FEF7A6
S3150800513099FA84F82D01204601F07CFA0849A4F86A
S3150800514028010123074AD1F8FC1004F1F80002F0FF
S3150800515013FF0020F8BD21200C2384F82431F9E739
S31508005160004F00B0983F00B070B5054690F824018E
S315080051700C460C281FD0FF2901D1212070BD1AB179
S315080051804FF0FF320D4B1A6006F0C4F9064695F843
S31508005190240101F0B1F8844228BF0446E4B2B442BF
S315080051A038BF3446E0B285F82B0001F073FBFF28C0
S315080051B0E3D00020E2E70220E0E700BF482600200F
S315080051C010B590F8243104460C2B44D0D0F8E030C2
S315080051D080F82A10DBB3D0F8F020D2B990F82D3138
S315080051E08B421CD300222046FFF7BEFF48BB1B4B51
S315080051F01B78063B032B23D8204601F01BFA1849D7
S315080052000123184AD1F8FC1004F1F80002F0B4FEA4
S3150800521016E0B0F94220B3F912309A42E2DD0022D4
S31508005220204694F82D11FFF79FFF50B9C4F8E00007
S31508005230204605F0F9FE4FF6FF739842014601D164
S31508005240002010BD2046BDE81040FFF7E3BBFF2352
S3150800525080F82B30F4E70220F3E700BF0027002090
S31508005260004F00B0983F00B0F0B51D46144B0446F9
S315080052701B780F46164685B05BB1D0F8E030E3B12F
S3150800528002AAB3F912300092002205F042FB05B0DB
S31508005290F0BD02A905F03BFF9DF808103A462046E6
S315080052A0FEF7E0F9014626B92A462046FFF75CFFD5
S315080052B0EDE72046FFF784FFE9E71846E7E700BF72
S315080052C08AD10008F0B5D0F89C3095B0012B03D1EF
S315080052D00025284615B0F0BD04467C4906F06BF952
S315080052E0D4F8E0600146E58DC4F8E4002EB13368D1
S315080052F01BB15B68002B40F0A58006F092FE0146C4
S315080053002046FFF739FC0746084606F085FED4F81E
S31508005310E410B3898DF80E70EB1A9BB2D6E901201A
S3150800532000FB03226A48ADF80C30036802929942E2
S3150800533008D0204605F03BFF80226649664BC1F837
S3150800534088001A61654D644E00F07CFB0128FBD18C
S315080053502B6CDA07F8D4736CDB01F5D494F8253096
S31508005360DF070CD5D6F878215D4BC6F8EC23D3F8C1
S31508005370F830D6F8A0209D06C6F8F02369D494F82C
S315080053802530D4F8E4106FF3000384F8253020465E
S3150800539012919DF80E20029908AB02F04BFA80B9DB
S315080053A000F050FB0128FBD14B4A4C49536CD801FD
S315080053B0FCD40B6CDB07F9D408A901A802F080FC21
S315080053C018B10225284615B0F0BDE28D454B5A6442
S315080053D000F09CFF054600287FF47BAF94F8243044
S315080053E060F3410384F8243000F0DCFBD4F8E030A5
S315080053F0411E5B69C9B21E68FD29024604962CD96E
S31508005400F71C3DD938490136096818BF0126C81C5A
S3150800541042D85B68FF2A0491059344D1DF1C27D83C
S31508005420204604A906F01BF8002E7FF451AFD4F8E5
S31508005430543198052AD494F8243043F0020384F8AA
S31508005440243045E71A68032A7FF657AF9F6A7F0E0E
S315080054505FE7204601F0EEF891E75B6801280593BF
S3150800546004D0204604A905F0FAFF31E70126D5E75E
S3150800547001331D4B5B6818D0D91C12D80593CFE7AA
S315080054805B68FF280593F1D02A46EAE720464FF4E1
S31508005490803105F04EFE1BE7FF2A5B680DD00593A9
S315080054A0C2E7FF2AC0D10022BAE7DD1C08D8204689
S315080054B004A9059305F0D3FFB9E701220593ADE7E3
S315080054C0FF2AB4D10022204604A9F3E7FC4F00B016
S315080054D01C230020003F00B0000002B800C002B83C
S315080054E0004F00B0008001B8542600202DE9F04195
S315080054F00B460646154611B92120BDE8F081002A5B
S31508005500FAD0032905D8002200F0EEFD034600284C
